{
  "_format": "hh-sol-artifact-1",
  "contractName": "RewardsVault",
  "sourceName": "contracts/RewardsVault.sol",
  "abi": [
    {
      "inputs": [],
      "stateMutability": "nonpayable",
      "type": "constructor"
    },
    {
      "inputs": [
        {
          "internalType": "address",
          "name": "owner",
          "type": "address"
        }
      ],
      "name": "OwnableInvalidOwner",
      "type": "error"
    },
    {
      "inputs": [
        {
          "internalType": "address",
          "name": "account",
          "type": "address"
        }
      ],
      "name": "OwnableUnauthorizedAccount",
      "type": "error"
    },
    {
      "inputs": [],
      "name": "ReentrancyGuardReentrantCall",
      "type": "error"
    },
    {
      "inputs": [],
      "name": "RewardsVault__AlreadyFunded",
      "type": "error"
    },
    {
      "inputs": [],
      "name": "RewardsVault__InvalidQuest",
      "type": "error"
    },
    {
      "inputs": [],
      "name": "RewardsVault__NothingToRefund",
      "type": "error"
    },
    {
      "inputs": [],
      "name": "RewardsVault__NothingToRelease",
      "type": "error"
    },
    {
      "inputs": [],
      "name": "RewardsVault__Unauthorized",
      "type": "error"
    },
    {
      "inputs": [
        {
          "internalType": "address",
          "name": "token",
          "type": "address"
        }
      ],
      "name": "SafeERC20FailedOperation",
      "type": "error"
    },
    {
      "anonymous": false,
      "inputs": [
        {
          "indexed": true,
          "internalType": "address",
          "name": "previousOwner",
          "type": "address"
        },
        {
          "indexed": true,
          "internalType": "address",
          "name": "newOwner",
          "type": "address"
        }
      ],
      "name": "OwnershipTransferred",
      "type": "event"
    },
    {
      "anonymous": false,
      "inputs": [
        {
          "indexed": true,
          "internalType": "address",
          "name": "questArcade",
          "type": "address"
        }
      ],
      "name": "QuestArcadeUpdated",
      "type": "event"
    },
    {
      "anonymous": false,
      "inputs": [
        {
          "indexed": true,
          "internalType": "uint256",
          "name": "questId",
          "type": "uint256"
        },
        {
          "indexed": true,
          "internalType": "address",
          "name": "creator",
          "type": "address"
        },
        {
          "indexed": false,
          "internalType": "address",
          "name": "token",
          "type": "address"
        },
        {
          "indexed": false,
          "internalType": "uint256",
          "name": "amount",
          "type": "uint256"
        }
      ],
      "name": "QuestFunded",
      "type": "event"
    },
    {
      "anonymous": false,
      "inputs": [
        {
          "indexed": true,
          "internalType": "uint256",
          "name": "questId",
          "type": "uint256"
        },
        {
          "indexed": true,
          "internalType": "address",
          "name": "creator",
          "type": "address"
        },
        {
          "indexed": false,
          "internalType": "uint256",
          "name": "amount",
          "type": "uint256"
        }
      ],
      "name": "QuestRewardRefunded",
      "type": "event"
    },
    {
      "anonymous": false,
      "inputs": [
        {
          "indexed": true,
          "internalType": "uint256",
          "name": "questId",
          "type": "uint256"
        },
        {
          "indexed": true,
          "internalType": "address",
          "name": "recipient",
          "type": "address"
        },
        {
          "indexed": false,
          "internalType": "uint256",
          "name": "amount",
          "type": "uint256"
        }
      ],
      "name": "QuestRewardReleased",
      "type": "event"
    },
    {
      "inputs": [
        {
          "internalType": "uint256",
          "name": "questId",
          "type": "uint256"
        },
        {
          "internalType": "contract IERC20",
          "name": "token",
          "type": "address"
        },
        {
          "internalType": "uint256",
          "name": "amount",
          "type": "uint256"
        }
      ],
      "name": "fundQuest",
      "outputs": [],
      "stateMutability": "nonpayable",
      "type": "function"
    },
    {
      "inputs": [
        {
          "internalType": "uint256",
          "name": "questId",
          "type": "uint256"
        }
      ],
      "name": "getEscrow",
      "outputs": [
        {
          "components": [
            {
              "internalType": "address",
              "name": "token",
              "type": "address"
            },
            {
              "internalType": "address",
              "name": "creator",
              "type": "address"
            },
            {
              "internalType": "uint256",
              "name": "amount",
              "type": "uint256"
            },
            {
              "internalType": "bool",
              "name": "released",
              "type": "bool"
            },
            {
              "internalType": "bool",
              "name": "refunded",
              "type": "bool"
            },
            {
              "internalType": "bool",
              "name": "exists",
              "type": "bool"
            }
          ],
          "internalType": "struct RewardsVault.Escrow",
          "name": "",
          "type": "tuple"
        }
      ],
      "stateMutability": "view",
      "type": "function"
    },
    {
      "inputs": [],
      "name": "owner",
      "outputs": [
        {
          "internalType": "address",
          "name": "",
          "type": "address"
        }
      ],
      "stateMutability": "view",
      "type": "function"
    },
    {
      "inputs": [],
      "name": "questArcade",
      "outputs": [
        {
          "internalType": "address",
          "name": "",
          "type": "address"
        }
      ],
      "stateMutability": "view",
      "type": "function"
    },
    {
      "inputs": [
        {
          "internalType": "uint256",
          "name": "questId",
          "type": "uint256"
        }
      ],
      "name": "refundCreator",
      "outputs": [],
      "stateMutability": "nonpayable",
      "type": "function"
    },
    {
      "inputs": [
        {
          "internalType": "uint256",
          "name": "questId",
          "type": "uint256"
        },
        {
          "internalType": "address",
          "name": "recipient",
          "type": "address"
        }
      ],
      "name": "releaseReward",
      "outputs": [],
      "stateMutability": "nonpayable",
      "type": "function"
    },
    {
      "inputs": [],
      "name": "renounceOwnership",
      "outputs": [],
      "stateMutability": "nonpayable",
      "type": "function"
    },
    {
      "inputs": [
        {
          "internalType": "address",
          "name": "newQuestArcade",
          "type": "address"
        }
      ],
      "name": "setQuestArcade",
      "outputs": [],
      "stateMutability": "nonpayable",
      "type": "function"
    },
    {
      "inputs": [
        {
          "internalType": "address",
          "name": "newOwner",
          "type": "address"
        }
      ],
      "name": "transferOwnership",
      "outputs": [],
      "stateMutability": "nonpayable",
      "type": "function"
    }
  ],
  "bytecode": "0x6080604052348015600f57600080fd5b503380603557604051631e4fbdf760e01b81526000600482015260240160405180910390fd5b603c816045565b50600180556095565b600080546001600160a01b038381166001600160a01b0319831681178455604051919092169283917f8be0079c531659141344cd1fd0a4f28419497f9722a3daafe3b4186f6b6457e09190a35050565b6109aa806100a46000396000f3fe608060405234801561001057600080fd5b50600436106100935760003560e01c80638da5cb5b116100665780638da5cb5b146101de578063a1a6a77614610203578063d7ee3bd214610216578063f2fde38b14610229578063f6a0adb01461023c57600080fd5b8063365eee54146100985780635d4330bf146100ad578063715018a6146100c05780637d19e596146100c8575b600080fd5b6100ab6100a63660046108cf565b61024f565b005b6100ab6100bb366004610907565b610400565b6100ab610452565b61017a6100d636600461092b565b6040805160c081018252600080825260208201819052918101829052606081018290526080810182905260a081019190915250600090815260026020818152604092839020835160c08101855281546001600160a01b0390811682526001830154169281019290925291820154928101929092526003015460ff8082161515606084015261010082048116151560808401526201000090910416151560a082015290565b6040516101d5919081516001600160a01b039081168252602080840151909116908201526040808301519082015260608083015115159082015260808083015115159082015260a09182015115159181019190915260c00190565b60405180910390f35b6000546001600160a01b03165b6040516001600160a01b0390911681526020016101d5565b6003546101eb906001600160a01b031681565b6100ab61022436600461092b565b610466565b6100ab610237366004610907565b61059a565b6100ab61024a366004610944565b6105da565b610257610704565b82158061026b57506001600160a01b038216155b80610274575080155b156102925760405163fd9bbc2360e01b815260040160405180910390fd5b6000838152600260205260409020600381015462010000900460ff16156102cc5760405163b21828b760e01b815260040160405180910390fd5b6102e16001600160a01b03841633308561072e565b6040805160c0810182526001600160a01b03808616825233602080840182815284860188815260006060870181815260808801828152600160a08a018181528f8552600297889052938b902099518a54908a166001600160a01b0319918216178b559551908a01805491909916951694909417909655905192860192909255925160039094018054935191511515620100000262ff0000199215156101000261ff00199615159690961661ffff1990951694909417949094171691909117909155905185907f5d84cd3694266a7ec51072c065ee8620f1e100648655f8a7d1a8c6764c8bdc83906103e990879087906001600160a01b03929092168252602082015260400190565b60405180910390a3506103fb60018055565b505050565b61040861079b565b600380546001600160a01b0319166001600160a01b0383169081179091556040517f628b03a2737dcbc78dccf126de4e62e205a763879aba55d8a3097d4e90d0a77590600090a250565b61045a61079b565b61046460006107c8565b565b61046e610704565b6003546001600160a01b03163314610498576040516267e3cb60e81b815260040160405180910390fd5b6000818152600260205260409020600381015462010000900460ff1615806104c957506003810154610100900460ff165b156104e75760405163d770aa5b60e01b815260040160405180910390fd5b600381015460ff161561050d5760405163d770aa5b60e01b815260040160405180910390fd5b60038101805461ff001916610100179055600181015460028201548254610542926001600160a01b0391821692911690610818565b600181015460028201546040519081526001600160a01b039091169083907f4ea984d2f65b5608a366b4d8debf4b7d12cc161822d80cb07a6fba63c8f9b4a59060200160405180910390a35061059760018055565b50565b6105a261079b565b6001600160a01b0381166105d157604051631e4fbdf760e01b8152600060048201526024015b60405180910390fd5b610597816107c8565b6105e2610704565b6003546001600160a01b0316331461060c576040516267e3cb60e81b815260040160405180910390fd5b6000828152600260205260409020600381015462010000900460ff1615806106385750600381015460ff165b156106565760405163312e2be960e11b815260040160405180910390fd5b6003810154610100900460ff16156106815760405163312e2be960e11b815260040160405180910390fd5b60038101805460ff19166001179055600281015481546106ae916001600160a01b03909116908490610818565b816001600160a01b0316837f1f72ffe17eea4c925d4325875c57e10abaa5eb6c9583e946e6fa0c56a6bac29883600201546040516106ee91815260200190565b60405180910390a35061070060018055565b5050565b60026001540361072757604051633ee5aeb560e01b815260040160405180910390fd5b6002600155565b6040516001600160a01b0384811660248301528381166044830152606482018390526107959186918216906323b872dd906084015b604051602081830303815290604052915060e01b6020820180516001600160e01b038381831617835250505050610849565b50505050565b6000546001600160a01b031633146104645760405163118cdaa760e01b81523360048201526024016105c8565b600080546001600160a01b038381166001600160a01b0319831681178455604051919092169283917f8be0079c531659141344cd1fd0a4f28419497f9722a3daafe3b4186f6b6457e09190a35050565b6040516001600160a01b038381166024830152604482018390526103fb91859182169063a9059cbb90606401610763565b600080602060008451602086016000885af18061086c576040513d6000823e3d81fd5b50506000513d91508115610884578060011415610891565b6001600160a01b0384163b155b1561079557604051635274afe760e01b81526001600160a01b03851660048201526024016105c8565b6001600160a01b038116811461059757600080fd5b6000806000606084860312156108e457600080fd5b8335925060208401356108f6816108ba565b929592945050506040919091013590565b60006020828403121561091957600080fd5b8135610924816108ba565b9392505050565b60006020828403121561093d57600080fd5b5035919050565b6000806040838503121561095757600080fd5b823591506020830135610969816108ba565b80915050925092905056fea264697066735822122019ab81198c88d4407c6dccd2deaefb2beddbb666037cd07917e6a9fb927c27ff64736f6c634300081c0033",
  "linkReferences": {},
  "deployedLinkReferences": {}
}