{
  "_format": "hh-sol-artifact-1",
  "contractName": "Reputation",
  "sourceName": "contracts/Reputation.sol",
  "abi": [
    {
      "inputs": [],
      "stateMutability": "nonpayable",
      "type": "constructor"
    },
    {
      "inputs": [
        {
          "internalType": "address",
          "name": "owner",
          "type": "address"
        }
      ],
      "name": "OwnableInvalidOwner",
      "type": "error"
    },
    {
      "inputs": [
        {
          "internalType": "address",
          "name": "account",
          "type": "address"
        }
      ],
      "name": "OwnableUnauthorizedAccount",
      "type": "error"
    },
    {
      "inputs": [],
      "name": "Reputation__Unauthorized",
      "type": "error"
    },
    {
      "anonymous": false,
      "inputs": [
        {
          "indexed": true,
          "internalType": "address",
          "name": "previousOwner",
          "type": "address"
        },
        {
          "indexed": true,
          "internalType": "address",
          "name": "newOwner",
          "type": "address"
        }
      ],
      "name": "OwnershipTransferred",
      "type": "event"
    },
    {
      "anonymous": false,
      "inputs": [
        {
          "indexed": true,
          "internalType": "address",
          "name": "questArcade",
          "type": "address"
        }
      ],
      "name": "QuestArcadeUpdated",
      "type": "event"
    },
    {
      "anonymous": false,
      "inputs": [
        {
          "indexed": true,
          "internalType": "address",
          "name": "reporter",
          "type": "address"
        },
        {
          "indexed": false,
          "internalType": "bool",
          "name": "isAuthorized",
          "type": "bool"
        }
      ],
      "name": "ReporterStatusUpdated",
      "type": "event"
    },
    {
      "anonymous": false,
      "inputs": [
        {
          "indexed": true,
          "internalType": "address",
          "name": "account",
          "type": "address"
        },
        {
          "indexed": false,
          "internalType": "uint256",
          "name": "xpGain",
          "type": "uint256"
        },
        {
          "indexed": false,
          "internalType": "uint256",
          "name": "reputationGain",
          "type": "uint256"
        },
        {
          "indexed": false,
          "internalType": "uint256",
          "name": "newXp",
          "type": "uint256"
        },
        {
          "indexed": false,
          "internalType": "uint256",
          "name": "newReputation",
          "type": "uint256"
        },
        {
          "indexed": false,
          "internalType": "string",
          "name": "level",
          "type": "string"
        }
      ],
      "name": "ReputationIncreased",
      "type": "event"
    },
    {
      "inputs": [
        {
          "internalType": "address",
          "name": "account",
          "type": "address"
        }
      ],
      "name": "getProfile",
      "outputs": [
        {
          "components": [
            {
              "internalType": "uint256",
              "name": "xp",
              "type": "uint256"
            },
            {
              "internalType": "uint256",
              "name": "reputation",
              "type": "uint256"
            }
          ],
          "internalType": "struct Reputation.Profile",
          "name": "profile",
          "type": "tuple"
        },
        {
          "internalType": "string",
          "name": "level",
          "type": "string"
        }
      ],
      "stateMutability": "view",
      "type": "function"
    },
    {
      "inputs": [
        {
          "internalType": "address",
          "name": "account",
          "type": "address"
        },
        {
          "internalType": "uint256",
          "name": "xpGain",
          "type": "uint256"
        },
        {
          "internalType": "uint256",
          "name": "reputationGain",
          "type": "uint256"
        }
      ],
      "name": "increaseReputation",
      "outputs": [
        {
          "components": [
            {
              "internalType": "uint256",
              "name": "xp",
              "type": "uint256"
            },
            {
              "internalType": "uint256",
              "name": "reputation",
              "type": "uint256"
            }
          ],
          "internalType": "struct Reputation.Profile",
          "name": "",
          "type": "tuple"
        }
      ],
      "stateMutability": "nonpayable",
      "type": "function"
    },
    {
      "inputs": [
        {
          "internalType": "address",
          "name": "reporter",
          "type": "address"
        }
      ],
      "name": "isReporter",
      "outputs": [
        {
          "internalType": "bool",
          "name": "",
          "type": "bool"
        }
      ],
      "stateMutability": "view",
      "type": "function"
    },
    {
      "inputs": [
        {
          "internalType": "uint256",
          "name": "xp",
          "type": "uint256"
        }
      ],
      "name": "levelForXp",
      "outputs": [
        {
          "internalType": "string",
          "name": "",
          "type": "string"
        }
      ],
      "stateMutability": "pure",
      "type": "function"
    },
    {
      "inputs": [],
      "name": "owner",
      "outputs": [
        {
          "internalType": "address",
          "name": "",
          "type": "address"
        }
      ],
      "stateMutability": "view",
      "type": "function"
    },
    {
      "inputs": [],
      "name": "questArcade",
      "outputs": [
        {
          "internalType": "address",
          "name": "",
          "type": "address"
        }
      ],
      "stateMutability": "view",
      "type": "function"
    },
    {
      "inputs": [],
      "name": "renounceOwnership",
      "outputs": [],
      "stateMutability": "nonpayable",
      "type": "function"
    },
    {
      "inputs": [
        {
          "internalType": "address",
          "name": "newQuestArcade",
          "type": "address"
        }
      ],
      "name": "setQuestArcade",
      "outputs": [],
      "stateMutability": "nonpayable",
      "type": "function"
    },
    {
      "inputs": [
        {
          "internalType": "address",
          "name": "reporter",
          "type": "address"
        },
        {
          "internalType": "bool",
          "name": "isAuthorized",
          "type": "bool"
        }
      ],
      "name": "setReporter",
      "outputs": [],
      "stateMutability": "nonpayable",
      "type": "function"
    },
    {
      "inputs": [
        {
          "internalType": "address",
          "name": "newOwner",
          "type": "address"
        }
      ],
      "name": "transferOwnership",
      "outputs": [],
      "stateMutability": "nonpayable",
      "type": "function"
    }
  ],
  "bytecode": "0x6080604052348015600f57600080fd5b503380603557604051631e4fbdf760e01b81526000600482015260240160405180910390fd5b603c816041565b506091565b600080546001600160a01b038381166001600160a01b0319831681178455604051919092169283917f8be0079c531659141344cd1fd0a4f28419497f9722a3daafe3b4186f6b6457e09190a35050565b6107e7806100a06000396000f3fe608060405234801561001057600080fd5b506004361061009e5760003560e01c80638da5cb5b116100665780638da5cb5b14610142578063a1a6a77614610167578063b25f94ea1461017a578063e1bb51331461019a578063f2fde38b146101ad57600080fd5b8063044ad7be146100a35780630f53a470146100e45780635d4330bf14610105578063715018a61461011a57806374041b2914610122575b600080fd5b6100cf6100b1366004610612565b6001600160a01b031660009081526002602052604090205460ff1690565b60405190151581526020015b60405180910390f35b6100f76100f2366004610612565b6101c0565b6040516100db92919061067a565b610118610113366004610612565b610218565b005b61011861026a565b6101356101303660046106a6565b61027e565b6040516100db91906106bf565b6000546001600160a01b03165b6040516001600160a01b0390911681526020016100db565b60035461014f906001600160a01b031681565b61018d6101883660046106d2565b6103a3565b6040516100db9190610705565b6101186101a836600461071e565b6104cf565b6101186101bb366004610612565b610536565b6040805180820190915260008082526020820152506001600160a01b03811660009081526001602081815260409283902083518085019094528054808552920154908301526060906102119061027e565b9050915091565b610220610579565b600380546001600160a01b0319166001600160a01b0383169081179091556040517f628b03a2737dcbc78dccf126de4e62e205a763879aba55d8a3097d4e90d0a77590600090a250565b610272610579565b61027c60006105a6565b565b606061271082106102ab5750506040805180820190915260068152654d797468696360d01b602082015290565b61138882106102d95750506040805180820190915260098152684c6567656e6461727960b81b602082015290565b6109c48210610303575050604080518082019091526005815264456c69746560d81b602082015290565b6103e8821061032c57505060408051808201909152600481526311dbdb1960e21b602082015290565b610190821061035757505060408051808201909152600681526529b4b63b32b960d11b602082015290565b6096821061038157505060408051808201909152600681526542726f6e7a6560d01b602082015290565b5050604080518082019091526006815265526f6f6b696560d01b602082015290565b60408051808201909152600080825260208201526003546001600160a01b031633148015906103e257503360009081526002602052604090205460ff16155b156104005760405163f17bde0560e01b815260040160405180910390fd5b6001600160a01b038416600090815260016020526040812080549091859183919061042c90849061075a565b9250508190555082816001016000828254610447919061075a565b9091555050805460009061045a9061027e565b9050856001600160a01b03167fcc94961aad50ffba435a576ecb734a8df660dc8623bcc5b3220e8a5788f78b07868685600001548660010154866040516104a595949392919061077b565b60405180910390a25060408051808201909152815481526001909101546020820152949350505050565b6104d7610579565b6001600160a01b038216600081815260026020908152604091829020805460ff191685151590811790915591519182527f0c1707a80b7979101ec1b90d1fd375c65d0b2c6df9e6c9479c32a480072a3016910160405180910390a25050565b61053e610579565b6001600160a01b03811661056d57604051631e4fbdf760e01b8152600060048201526024015b60405180910390fd5b610576816105a6565b50565b6000546001600160a01b0316331461027c5760405163118cdaa760e01b8152336004820152602401610564565b600080546001600160a01b038381166001600160a01b0319831681178455604051919092169283917f8be0079c531659141344cd1fd0a4f28419497f9722a3daafe3b4186f6b6457e09190a35050565b80356001600160a01b038116811461060d57600080fd5b919050565b60006020828403121561062457600080fd5b61062d826105f6565b9392505050565b6000815180845260005b8181101561065a5760208185018101518683018201520161063e565b506000602082860101526020601f19601f83011685010191505092915050565b825181526020808401519082015260606040820152600061069e6060830184610634565b949350505050565b6000602082840312156106b857600080fd5b5035919050565b60208152600061062d6020830184610634565b6000806000606084860312156106e757600080fd5b6106f0846105f6565b95602085013595506040909401359392505050565b8151815260208083015190820152604081015b92915050565b6000806040838503121561073157600080fd5b61073a836105f6565b91506020830135801515811461074f57600080fd5b809150509250929050565b8082018082111561071857634e487b7160e01b600052601160045260246000fd5b85815284602082015283604082015282606082015260a0608082015260006107a660a0830184610634565b97965050505050505056fea264697066735822122098fc0250081bc6ef336348105ea9a942a81efaa967286af3d7576ef4cc92e73264736f6c634300081c0033",
  "linkReferences": {},
  "deployedLinkReferences": {}
}