{
  "_format": "hh-sol-artifact-1",
  "contractName": "QuestArcade",
  "sourceName": "contracts/QuestArcade.sol",
  "abi": [
    {
      "inputs": [
        {
          "internalType": "contract ICUSD",
          "name": "_stableToken",
          "type": "address"
        },
        {
          "internalType": "address",
          "name": "_feeRecipient",
          "type": "address"
        },
        {
          "internalType": "uint256",
          "name": "_platformFeeBps",
          "type": "uint256"
        }
      ],
      "stateMutability": "nonpayable",
      "type": "constructor"
    },
    {
      "inputs": [
        {
          "internalType": "address",
          "name": "owner",
          "type": "address"
        }
      ],
      "name": "OwnableInvalidOwner",
      "type": "error"
    },
    {
      "inputs": [
        {
          "internalType": "address",
          "name": "account",
          "type": "address"
        }
      ],
      "name": "OwnableUnauthorizedAccount",
      "type": "error"
    },
    {
      "inputs": [],
      "name": "QuestArcade__CreatorNotApproved",
      "type": "error"
    },
    {
      "inputs": [],
      "name": "QuestArcade__CreatorOnly",
      "type": "error"
    },
    {
      "inputs": [],
      "name": "QuestArcade__DeadlineElapsed",
      "type": "error"
    },
    {
      "inputs": [],
      "name": "QuestArcade__FundsNotEscrowed",
      "type": "error"
    },
    {
      "inputs": [],
      "name": "QuestArcade__InvalidFeeBps",
      "type": "error"
    },
    {
      "inputs": [],
      "name": "QuestArcade__InvalidQuest",
      "type": "error"
    },
    {
      "inputs": [],
      "name": "QuestArcade__InvalidStatusTransition",
      "type": "error"
    },
    {
      "inputs": [],
      "name": "QuestArcade__InvalidVerificationType",
      "type": "error"
    },
    {
      "inputs": [],
      "name": "QuestArcade__QuestAlreadyAccepted",
      "type": "error"
    },
    {
      "inputs": [],
      "name": "QuestArcade__RewardAlreadyClaimed",
      "type": "error"
    },
    {
      "inputs": [],
      "name": "QuestArcade__Unauthorized",
      "type": "error"
    },
    {
      "inputs": [],
      "name": "QuestArcade__WorkerOnly",
      "type": "error"
    },
    {
      "inputs": [],
      "name": "ReentrancyGuardReentrantCall",
      "type": "error"
    },
    {
      "inputs": [
        {
          "internalType": "address",
          "name": "token",
          "type": "address"
        }
      ],
      "name": "SafeERC20FailedOperation",
      "type": "error"
    },
    {
      "anonymous": false,
      "inputs": [
        {
          "indexed": true,
          "internalType": "address",
          "name": "creator",
          "type": "address"
        },
        {
          "indexed": false,
          "internalType": "bool",
          "name": "isApproved",
          "type": "bool"
        }
      ],
      "name": "CreatorStatusUpdated",
      "type": "event"
    },
    {
      "anonymous": false,
      "inputs": [
        {
          "indexed": true,
          "internalType": "address",
          "name": "previousOwner",
          "type": "address"
        },
        {
          "indexed": true,
          "internalType": "address",
          "name": "newOwner",
          "type": "address"
        }
      ],
      "name": "OwnershipTransferred",
      "type": "event"
    },
    {
      "anonymous": false,
      "inputs": [
        {
          "indexed": false,
          "internalType": "uint256",
          "name": "feeBps",
          "type": "uint256"
        },
        {
          "indexed": true,
          "internalType": "address",
          "name": "feeRecipient",
          "type": "address"
        }
      ],
      "name": "PlatformFeeUpdated",
      "type": "event"
    },
    {
      "anonymous": false,
      "inputs": [
        {
          "indexed": true,
          "internalType": "uint256",
          "name": "questId",
          "type": "uint256"
        },
        {
          "indexed": true,
          "internalType": "address",
          "name": "user",
          "type": "address"
        }
      ],
      "name": "QuestAccepted",
      "type": "event"
    },
    {
      "anonymous": false,
      "inputs": [
        {
          "indexed": true,
          "internalType": "uint256",
          "name": "questId",
          "type": "uint256"
        }
      ],
      "name": "QuestCancelled",
      "type": "event"
    },
    {
      "anonymous": false,
      "inputs": [
        {
          "indexed": true,
          "internalType": "uint256",
          "name": "questId",
          "type": "uint256"
        },
        {
          "indexed": true,
          "internalType": "address",
          "name": "user",
          "type": "address"
        },
        {
          "indexed": false,
          "internalType": "enum QuestArcade.QuestStatus",
          "name": "status",
          "type": "uint8"
        }
      ],
      "name": "QuestCompleted",
      "type": "event"
    },
    {
      "anonymous": false,
      "inputs": [
        {
          "indexed": true,
          "internalType": "uint256",
          "name": "questId",
          "type": "uint256"
        },
        {
          "indexed": true,
          "internalType": "address",
          "name": "creator",
          "type": "address"
        },
        {
          "indexed": false,
          "internalType": "uint256",
          "name": "rewardAmount",
          "type": "uint256"
        }
      ],
      "name": "QuestCreated",
      "type": "event"
    },
    {
      "anonymous": false,
      "inputs": [
        {
          "indexed": true,
          "internalType": "uint256",
          "name": "questId",
          "type": "uint256"
        },
        {
          "indexed": true,
          "internalType": "address",
          "name": "user",
          "type": "address"
        },
        {
          "indexed": false,
          "internalType": "string",
          "name": "proofCID",
          "type": "string"
        }
      ],
      "name": "QuestSubmitted",
      "type": "event"
    },
    {
      "anonymous": false,
      "inputs": [
        {
          "indexed": true,
          "internalType": "uint256",
          "name": "questId",
          "type": "uint256"
        }
      ],
      "name": "QuestUpdated",
      "type": "event"
    },
    {
      "anonymous": false,
      "inputs": [
        {
          "indexed": true,
          "internalType": "address",
          "name": "user",
          "type": "address"
        },
        {
          "indexed": false,
          "internalType": "uint256",
          "name": "newReputation",
          "type": "uint256"
        },
        {
          "indexed": false,
          "internalType": "uint256",
          "name": "newXp",
          "type": "uint256"
        },
        {
          "indexed": false,
          "internalType": "string",
          "name": "newLevel",
          "type": "string"
        }
      ],
      "name": "ReputationUpdated",
      "type": "event"
    },
    {
      "anonymous": false,
      "inputs": [
        {
          "indexed": true,
          "internalType": "uint256",
          "name": "questId",
          "type": "uint256"
        },
        {
          "indexed": true,
          "internalType": "address",
          "name": "user",
          "type": "address"
        },
        {
          "indexed": false,
          "internalType": "uint256",
          "name": "amount",
          "type": "uint256"
        }
      ],
      "name": "RewardClaimed",
      "type": "event"
    },
    {
      "inputs": [
        {
          "internalType": "uint256",
          "name": "questId",
          "type": "uint256"
        }
      ],
      "name": "acceptQuest",
      "outputs": [],
      "stateMutability": "nonpayable",
      "type": "function"
    },
    {
      "inputs": [
        {
          "internalType": "address",
          "name": "",
          "type": "address"
        }
      ],
      "name": "approvedCreators",
      "outputs": [
        {
          "internalType": "bool",
          "name": "",
          "type": "bool"
        }
      ],
      "stateMutability": "view",
      "type": "function"
    },
    {
      "inputs": [
        {
          "internalType": "uint256",
          "name": "questId",
          "type": "uint256"
        }
      ],
      "name": "cancelQuest",
      "outputs": [],
      "stateMutability": "nonpayable",
      "type": "function"
    },
    {
      "inputs": [
        {
          "internalType": "uint256",
          "name": "questId",
          "type": "uint256"
        }
      ],
      "name": "claimReward",
      "outputs": [],
      "stateMutability": "nonpayable",
      "type": "function"
    },
    {
      "inputs": [
        {
          "internalType": "string",
          "name": "title",
          "type": "string"
        },
        {
          "internalType": "string",
          "name": "description",
          "type": "string"
        },
        {
          "internalType": "uint256",
          "name": "rewardAmount",
          "type": "uint256"
        },
        {
          "internalType": "enum QuestArcade.VerificationType",
          "name": "verificationType",
          "type": "uint8"
        },
        {
          "internalType": "uint64",
          "name": "deadline",
          "type": "uint64"
        }
      ],
      "name": "createQuest",
      "outputs": [
        {
          "internalType": "uint256",
          "name": "questId",
          "type": "uint256"
        }
      ],
      "stateMutability": "nonpayable",
      "type": "function"
    },
    {
      "inputs": [],
      "name": "feeRecipient",
      "outputs": [
        {
          "internalType": "address",
          "name": "",
          "type": "address"
        }
      ],
      "stateMutability": "view",
      "type": "function"
    },
    {
      "inputs": [],
      "name": "getAvailableQuests",
      "outputs": [
        {
          "components": [
            {
              "internalType": "uint256",
              "name": "id",
              "type": "uint256"
            },
            {
              "internalType": "string",
              "name": "title",
              "type": "string"
            },
            {
              "internalType": "string",
              "name": "description",
              "type": "string"
            },
            {
              "internalType": "uint256",
              "name": "rewardAmount",
              "type": "uint256"
            },
            {
              "internalType": "enum QuestArcade.VerificationType",
              "name": "verificationType",
              "type": "uint8"
            },
            {
              "internalType": "uint64",
              "name": "deadline",
              "type": "uint64"
            },
            {
              "internalType": "address",
              "name": "creator",
              "type": "address"
            },
            {
              "internalType": "address",
              "name": "worker",
              "type": "address"
            },
            {
              "internalType": "enum QuestArcade.QuestStatus",
              "name": "status",
              "type": "uint8"
            },
            {
              "internalType": "string",
              "name": "proofCID",
              "type": "string"
            },
            {
              "internalType": "string",
              "name": "proofMetadata",
              "type": "string"
            },
            {
              "internalType": "bool",
              "name": "exists",
              "type": "bool"
            },
            {
              "internalType": "bool",
              "name": "rewardEscrowed",
              "type": "bool"
            },
            {
              "internalType": "bool",
              "name": "rewardClaimed",
              "type": "bool"
            }
          ],
          "internalType": "struct QuestArcade.Quest[]",
          "name": "",
          "type": "tuple[]"
        }
      ],
      "stateMutability": "view",
      "type": "function"
    },
    {
      "inputs": [
        {
          "internalType": "address",
          "name": "creator",
          "type": "address"
        }
      ],
      "name": "getCreatorQuests",
      "outputs": [
        {
          "internalType": "uint256[]",
          "name": "",
          "type": "uint256[]"
        }
      ],
      "stateMutability": "view",
      "type": "function"
    },
    {
      "inputs": [
        {
          "internalType": "uint256",
          "name": "questId",
          "type": "uint256"
        }
      ],
      "name": "getQuestDetails",
      "outputs": [
        {
          "components": [
            {
              "internalType": "uint256",
              "name": "id",
              "type": "uint256"
            },
            {
              "internalType": "string",
              "name": "title",
              "type": "string"
            },
            {
              "internalType": "string",
              "name": "description",
              "type": "string"
            },
            {
              "internalType": "uint256",
              "name": "rewardAmount",
              "type": "uint256"
            },
            {
              "internalType": "enum QuestArcade.VerificationType",
              "name": "verificationType",
              "type": "uint8"
            },
            {
              "internalType": "uint64",
              "name": "deadline",
              "type": "uint64"
            },
            {
              "internalType": "address",
              "name": "creator",
              "type": "address"
            },
            {
              "internalType": "address",
              "name": "worker",
              "type": "address"
            },
            {
              "internalType": "enum QuestArcade.QuestStatus",
              "name": "status",
              "type": "uint8"
            },
            {
              "internalType": "string",
              "name": "proofCID",
              "type": "string"
            },
            {
              "internalType": "string",
              "name": "proofMetadata",
              "type": "string"
            },
            {
              "internalType": "bool",
              "name": "exists",
              "type": "bool"
            },
            {
              "internalType": "bool",
              "name": "rewardEscrowed",
              "type": "bool"
            },
            {
              "internalType": "bool",
              "name": "rewardClaimed",
              "type": "bool"
            }
          ],
          "internalType": "struct QuestArcade.Quest",
          "name": "",
          "type": "tuple"
        }
      ],
      "stateMutability": "view",
      "type": "function"
    },
    {
      "inputs": [
        {
          "internalType": "address",
          "name": "user",
          "type": "address"
        }
      ],
      "name": "getUserQuests",
      "outputs": [
        {
          "internalType": "uint256[]",
          "name": "",
          "type": "uint256[]"
        }
      ],
      "stateMutability": "view",
      "type": "function"
    },
    {
      "inputs": [
        {
          "internalType": "address",
          "name": "user",
          "type": "address"
        }
      ],
      "name": "getUserReputation",
      "outputs": [
        {
          "components": [
            {
              "internalType": "uint256",
              "name": "xp",
              "type": "uint256"
            },
            {
              "internalType": "uint256",
              "name": "reputation",
              "type": "uint256"
            },
            {
              "internalType": "string",
              "name": "level",
              "type": "string"
            }
          ],
          "internalType": "struct QuestArcade.ReputationProfile",
          "name": "profile",
          "type": "tuple"
        }
      ],
      "stateMutability": "view",
      "type": "function"
    },
    {
      "inputs": [],
      "name": "owner",
      "outputs": [
        {
          "internalType": "address",
          "name": "",
          "type": "address"
        }
      ],
      "stateMutability": "view",
      "type": "function"
    },
    {
      "inputs": [],
      "name": "platformFeeBps",
      "outputs": [
        {
          "internalType": "uint256",
          "name": "",
          "type": "uint256"
        }
      ],
      "stateMutability": "view",
      "type": "function"
    },
    {
      "inputs": [],
      "name": "questCounter",
      "outputs": [
        {
          "internalType": "uint256",
          "name": "",
          "type": "uint256"
        }
      ],
      "stateMutability": "view",
      "type": "function"
    },
    {
      "inputs": [],
      "name": "renounceOwnership",
      "outputs": [],
      "stateMutability": "nonpayable",
      "type": "function"
    },
    {
      "inputs": [
        {
          "internalType": "address",
          "name": "creator",
          "type": "address"
        },
        {
          "internalType": "bool",
          "name": "approved",
          "type": "bool"
        }
      ],
      "name": "setCreatorStatus",
      "outputs": [],
      "stateMutability": "nonpayable",
      "type": "function"
    },
    {
      "inputs": [
        {
          "internalType": "uint256",
          "name": "newFeeBps",
          "type": "uint256"
        },
        {
          "internalType": "address",
          "name": "newFeeRecipient",
          "type": "address"
        }
      ],
      "name": "setPlatformFee",
      "outputs": [],
      "stateMutability": "nonpayable",
      "type": "function"
    },
    {
      "inputs": [],
      "name": "stableToken",
      "outputs": [
        {
          "internalType": "contract ICUSD",
          "name": "",
          "type": "address"
        }
      ],
      "stateMutability": "view",
      "type": "function"
    },
    {
      "inputs": [
        {
          "internalType": "uint256",
          "name": "questId",
          "type": "uint256"
        },
        {
          "internalType": "string",
          "name": "proofCID",
          "type": "string"
        },
        {
          "internalType": "string",
          "name": "metadataCID",
          "type": "string"
        }
      ],
      "name": "submitProof",
      "outputs": [],
      "stateMutability": "nonpayable",
      "type": "function"
    },
    {
      "inputs": [
        {
          "internalType": "address",
          "name": "newOwner",
          "type": "address"
        }
      ],
      "name": "transferOwnership",
      "outputs": [],
      "stateMutability": "nonpayable",
      "type": "function"
    },
    {
      "inputs": [
        {
          "internalType": "uint256",
          "name": "questId",
          "type": "uint256"
        },
        {
          "internalType": "string",
          "name": "title",
          "type": "string"
        },
        {
          "internalType": "string",
          "name": "description",
          "type": "string"
        },
        {
          "internalType": "uint256",
          "name": "rewardAmount",
          "type": "uint256"
        },
        {
          "internalType": "uint64",
          "name": "deadline",
          "type": "uint64"
        }
      ],
      "name": "updateQuest",
      "outputs": [],
      "stateMutability": "nonpayable",
      "type": "function"
    },
    {
      "inputs": [
        {
          "internalType": "address",
          "name": "",
          "type": "address"
        }
      ],
      "name": "userReputation",
      "outputs": [
        {
          "internalType": "uint256",
          "name": "",
          "type": "uint256"
        }
      ],
      "stateMutability": "view",
      "type": "function"
    },
    {
      "inputs": [
        {
          "internalType": "address",
          "name": "",
          "type": "address"
        }
      ],
      "name": "userXp",
      "outputs": [
        {
          "internalType": "uint256",
          "name": "",
          "type": "uint256"
        }
      ],
      "stateMutability": "view",
      "type": "function"
    },
    {
      "inputs": [
        {
          "internalType": "uint256",
          "name": "questId",
          "type": "uint256"
        },
        {
          "internalType": "bool",
          "name": "approved",
          "type": "bool"
        }
      ],
      "name": "verifyQuest",
      "outputs": [],
      "stateMutability": "nonpayable",
      "type": "function"
    }
  ],
  "bytecode": "0x60a060405234801561001057600080fd5b50604051612b0e380380612b0e83398101604081905261002f91610144565b338061005557604051631e4fbdf760e01b81526000600482015260240160405180910390fd5b61005e816100dc565b50600180556001600160a01b03831661008a5760405163d6967ff960e01b815260040160405180910390fd5b6103e88111156100ad576040516302332ead60e61b815260040160405180910390fd5b6001600160a01b03928316608052600280546001600160a01b0319169290931691909117909155600355610187565b600080546001600160a01b038381166001600160a01b0319831681178455604051919092169283917f8be0079c531659141344cd1fd0a4f28419497f9722a3daafe3b4186f6b6457e09190a35050565b6001600160a01b038116811461014157600080fd5b50565b60008060006060848603121561015957600080fd5b83516101648161012c565b60208501519093506101758161012c565b80925050604084015190509250925092565b60805161293b6101d3600039600081816102da01528181610690015281816106eb01528181610bc101528181611a4901528181611c4a01528181611d4c0152611d88015261293b6000f3fe608060405234801561001057600080fd5b50600436106101585760003560e01c80638da5cb5b116100c3578063b0f929b01161007c578063b0f929b01461030f578063b4d884f61461032f578063baccbfdb14610342578063e503bb0514610362578063f2fde38b14610382578063fe90ff7d1461039557600080fd5b80638da5cb5b146102895780638f0603611461029a5780639e86b057146102ad578063a047a000146102c0578063a9d75b2b146102d5578063ae169a50146102fc57600080fd5b80634e08dab0116101155780634e08dab0146101ff5780634f3518841461021f5780635523246714610232578063560483c714610265578063715018a6146102785780637d7591f01461028057600080fd5b806307f4f2841461015d5780630f373d411461017257806312e0b1b614610185578063139f399a146101b857806322dcd13e146101cb57806346904840146101d4575b600080fd5b61017061016b36600461214d565b6103a8565b005b6101706101803660046121e6565b610539565b6101a5610193366004612293565b600a6020526000908152604090205481565b6040519081526020015b60405180910390f35b6101706101c63660046122b5565b61079f565b6101a560035481565b6002546101e7906001600160a01b031681565b6040516001600160a01b0390911681526020016101af565b61021261020d366004612293565b61092a565b6040516101af91906122ce565b61021261022d366004612293565b610996565b610255610240366004612293565b60066020526000908152604090205460ff1681565b60405190151581526020016101af565b6101a5610273366004612311565b610a00565b610170610c55565b6101a560045481565b6000546001600160a01b03166101e7565b6101706102a83660046123b6565b610c69565b6101706102bb3660046123e2565b610e35565b6102c8610e9d565b6040516101af91906125cd565b6101e77f000000000000000000000000000000000000000000000000000000000000000081565b61017061030a3660046122b5565b611366565b61032261031d3660046122b5565b611470565b6040516101af9190612632565b61017061033d366004612645565b611804565b610355610350366004612293565b611882565b6040516101af9190612668565b6101a5610370366004612293565b60096020526000908152604090205481565b610170610390366004612293565b6118e8565b6101706103a33660046122b5565b611928565b600085815260056020526040902060080154859060ff166103dc5760405163d6967ff960e01b815260040160405180910390fd5b6000868152600560208190526040909120015486906001600160a01b031633146104195760405163e4b4e61b60e01b815260040160405180910390fd5b60008781526005602052604090206001600582810154600160a01b900460ff169081111561044957610449612452565b1461046757604051634e2dffb760e01b815260040160405180910390fd5b6004810154426101009091046001600160401b03161161049a576040516344d3875d60e11b815260040160405180910390fd5b60008690036104bc5760405163d6967ff960e01b815260040160405180910390fd5b600681016104cb878983612737565b50600781016104db858783612737565b5060058101805460ff60a01b1916600160a11b179055604051339089907fdf0b8b552ac9cfd0f5a27f0179d7e90a6b2c142548c0f9ee92cceebdaf36c28690610527908b908b906127f6565b60405180910390a35050505050505050565b610541611ab1565b600087815260056020526040902060080154879060ff166105755760405163d6967ff960e01b815260040160405180910390fd5b6000888152600560205260409020600401548890600160481b90046001600160a01b031633146105b85760405163b44924cb60e01b815260040160405180910390fd5b600089815260056020526040812090600582810154600160a01b900460ff16908111156105e7576105e7612452565b1461060557604051634e2dffb760e01b815260040160405180910390fd5b42846001600160401b03161161062e576040516344d3875d60e11b815260040160405180910390fd5b8060030154851461071c576008810154610100900460ff1661066357604051631119a5df60e31b815260040160405180910390fd5b80600301548511156106be576000816003015486610681919061283b565b90506106b86001600160a01b037f000000000000000000000000000000000000000000000000000000000000000016333084611adb565b50610714565b80600301548510156107145760008582600301546106dc919061283b565b90506107126001600160a01b037f0000000000000000000000000000000000000000000000000000000000000000163383611b48565b505b600381018590555b6001810161072b898b83612737565b506002810161073b878983612737565b5060048101805468ffffffffffffffff0019166101006001600160401b038716021790556040518a907fe2535f2c1e4708ddaf426a1bf41884b74d371bd9bcbc59c257ae5f75811ffae590600090a250505061079660018055565b50505050505050565b600081815260056020526040902060080154819060ff166107d35760405163d6967ff960e01b815260040160405180910390fd5b600082815260056020526040812090600582810154600160a01b900460ff169081111561080257610802612452565b1461082057604051634e2dffb760e01b815260040160405180910390fd5b600481015433600160481b9091046001600160a01b03160361085557604051632667023560e21b815260040160405180910390fd5b6004810154426101009091046001600160401b031611610888576040516344d3875d60e11b815260040160405180910390fd5b60058101546001600160a01b0316156108b4576040516352809f4360e11b815260040160405180910390fd5b6005810180546001600160a81b0319163360ff60a01b19811691909117600160a01b17909155600081815260076020908152604080832080546001810182559084529183209091018690555185917f7d422f3e3149564cf96cfeab23ae433b6b1d7259c2873096244209f9b40befee91a3505050565b6001600160a01b03811660009081526007602090815260409182902080548351818402810184019094528084526060939283018282801561098a57602002820191906000526020600020905b815481526020019060010190808311610976575b50505050509050919050565b6001600160a01b03811660009081526008602090815260409182902080548351818402810184019094528084526060939283018282801561098a57602002820191906000526020600020908154815260200190600101908083116109765750505050509050919050565b6000610a0a611ab1565b6000879003610a2c5760405163d6967ff960e01b815260040160405180910390fd5b83600003610a4d5760405163d6967ff960e01b815260040160405180910390fd5b42826001600160401b031611610a76576040516344d3875d60e11b815260040160405180910390fd5b60028381811115610a8957610a89612452565b60ff161115610aab57604051631158a6a760e31b815260040160405180910390fd5b600460008154610aba90612854565b9182905550600081815260056020526040902081815590915060018101610ae2898b83612737565b5060028101610af2878983612737565b506003810185905560048101805485919060ff19166001836002811115610b1b57610b1b612452565b0217905550600481018054610100600160e81b0319166101006001600160401b038616027fffffff0000000000000000000000000000000000000000ffffffffffffffffff161733600160481b021790556005810180546000919060ff60a01b1916600160a01b8302179055506008808201805460ff191660019081179091553360008181526020938452604081208054938401815581529290922001839055610bf1907f00000000000000000000000000000000000000000000000000000000000000006001600160a01b0316903088611adb565b60088101805461ff001916610100179055604051339083907f8611ab57bc82cba189efe93ed2768ca2aee3cfbff8227866a8b3400d0d14ed0690610c389089815260200190565b60405180910390a350610c4a60018055565b979650505050505050565b610c5d611b7e565b610c676000611bab565b565b610c71611ab1565b600082815260056020526040902060080154829060ff16610ca55760405163d6967ff960e01b815260040160405180910390fd5b60008381526005602052604090206002600582810154600160a01b900460ff1690811115610cd557610cd5612452565b14610cf357604051634e2dffb760e01b815260040160405180910390fd5b6004810154600160481b90046001600160a01b03163314801590610d2257506000546001600160a01b03163314155b15610d4057604051632667023560e21b815260040160405180910390fd5b8215610db35760058101805460ff60a01b198116600360a01b17918290556040516001600160a01b039091169186917fb7e370342196b323c20aa611000555179b5bbaaeeb1e287aa812b032f58aac4191610da691600160a01b90910460ff169061286d565b60405180910390a3610e26565b60058101805460ff60a01b1916600160a21b179055610dd181611bfb565b60058101546040516001600160a01b0382169186917fb7e370342196b323c20aa611000555179b5bbaaeeb1e287aa812b032f58aac4191610e1d91600160a01b90910460ff169061286d565b60405180910390a35b5050610e3160018055565b5050565b610e3d611b7e565b6001600160a01b038216600081815260066020908152604091829020805460ff191685151590811790915591519182527ff88db92c03486c8c8f4a8ba1bff0126f0fba2a721832b8581e1c2bb86b44978991015b60405180910390a25050565b600454606090600060015b828111610f1f5760008181526005602052604090206008015460ff168015610efa575060008181526005602081905260408220810154600160a01b900460ff1690811115610ef857610ef8612452565b145b15610f0d5781610f0981612854565b9250505b80610f1781612854565b915050610ea8565b506000816001600160401b03811115610f3a57610f3a61269f565b604051908082528060200260200182016040528015610f7357816020015b610f60612084565b815260200190600190039081610f585790505b509050600060015b84811161135c5760008181526005602052604090206008015460ff168015610fcd575060008181526005602081905260408220810154600160a01b900460ff1690811115610fcb57610fcb612452565b145b1561134a5760056000828152602001908152602001600020604051806101c00160405290816000820154815260200160018201805461100b906126b5565b80601f0160208091040260200160405190810160405280929190818152602001828054611037906126b5565b80156110845780601f1061105957610100808354040283529160200191611084565b820191906000526020600020905b81548152906001019060200180831161106757829003601f168201915b5050505050815260200160028201805461109d906126b5565b80601f01602080910402602001604051908101604052809291908181526020018280546110c9906126b5565b80156111165780601f106110eb57610100808354040283529160200191611116565b820191906000526020600020905b8154815290600101906020018083116110f957829003601f168201915b505050918352505060038201546020820152600482015460409091019060ff16600281111561114757611147612452565b600281111561115857611158612452565b8152600482015461010081046001600160401b03166020830152600160481b90046001600160a01b0390811660408301526005808401549182166060840152608090920191600160a01b90910460ff16908111156111b8576111b8612452565b60058111156111c9576111c9612452565b81526020016006820180546111dd906126b5565b80601f0160208091040260200160405190810160405280929190818152602001828054611209906126b5565b80156112565780601f1061122b57610100808354040283529160200191611256565b820191906000526020600020905b81548152906001019060200180831161123957829003601f168201915b5050505050815260200160078201805461126f906126b5565b80601f016020809104026020016040519081016040528092919081815260200182805461129b906126b5565b80156112e85780601f106112bd576101008083540402835291602001916112e8565b820191906000526020600020905b8154815290600101906020018083116112cb57829003601f168201915b50505091835250506008919091015460ff80821615156020840152610100820481161515604084015262010000909104161515606090910152838361132c81612854565b94508151811061133e5761133e61287b565b60200260200101819052505b8061135481612854565b915050610f7b565b5090949350505050565b61136e611ab1565b600081815260056020526040902060080154819060ff166113a25760405163d6967ff960e01b815260040160405180910390fd5b6000828152600560208190526040909120015482906001600160a01b031633146113df5760405163e4b4e61b60e01b815260040160405180910390fd5b60008381526005602052604090206003600582810154600160a01b900460ff169081111561140f5761140f612452565b1461142d57604051634e2dffb760e01b815260040160405180910390fd5b600881015462010000900460ff161561145857604051629736f760e31b815260040160405180910390fd5b61146181611c7b565b50505061146d60018055565b50565b611478612084565b600082815260056020526040902060080154829060ff166114ac5760405163d6967ff960e01b815260040160405180910390fd5b60056000848152602001908152602001600020604051806101c0016040529081600082015481526020016001820180546114e5906126b5565b80601f0160208091040260200160405190810160405280929190818152602001828054611511906126b5565b801561155e5780601f106115335761010080835404028352916020019161155e565b820191906000526020600020905b81548152906001019060200180831161154157829003601f168201915b50505050508152602001600282018054611577906126b5565b80601f01602080910402602001604051908101604052809291908181526020018280546115a3906126b5565b80156115f05780601f106115c5576101008083540402835291602001916115f0565b820191906000526020600020905b8154815290600101906020018083116115d357829003601f168201915b505050918352505060038201546020820152600482015460409091019060ff16600281111561162157611621612452565b600281111561163257611632612452565b8152600482015461010081046001600160401b03166020830152600160481b90046001600160a01b0390811660408301526005808401549182166060840152608090920191600160a01b90910460ff169081111561169257611692612452565b60058111156116a3576116a3612452565b81526020016006820180546116b7906126b5565b80601f01602080910402602001604051908101604052809291908181526020018280546116e3906126b5565b80156117305780601f1061170557610100808354040283529160200191611730565b820191906000526020600020905b81548152906001019060200180831161171357829003601f168201915b50505050508152602001600782018054611749906126b5565b80601f0160208091040260200160405190810160405280929190818152602001828054611775906126b5565b80156117c25780601f10611797576101008083540402835291602001916117c2565b820191906000526020600020905b8154815290600101906020018083116117a557829003601f168201915b50505091835250506008919091015460ff8082161515602084015261010082048116151560408401526201000090910416151560609091015291505b50919050565b61180c611b7e565b6103e882111561182f576040516302332ead60e61b815260040160405180910390fd5b6003829055600280546001600160a01b0319166001600160a01b0383169081179091556040518381527ff0c09f5238364083d828870e877edaebb364d9f19f4093fdbf24e486bbdca48490602001610e91565b6118a660405180606001604052806000815260200160008152602001606081525090565b6001600160a01b0382166000818152600a60209081526040808320548086529383526009825290912054908301526118dd81611e1a565b604083015250919050565b6118f0611b7e565b6001600160a01b03811661191f57604051631e4fbdf760e01b8152600060048201526024015b60405180910390fd5b61146d81611bab565b611930611ab1565b600081815260056020526040902060080154819060ff166119645760405163d6967ff960e01b815260040160405180910390fd5b6000828152600560205260409020600401548290600160481b90046001600160a01b031633146119a75760405163b44924cb60e01b815260040160405180910390fd5b600083815260056020526040812090600582810154600160a01b900460ff16908111156119d6576119d6612452565b146119f457604051634e2dffb760e01b815260040160405180910390fd5b60058101805460ff60a01b1916600560a01b17905560088101805460ff191690819055610100900460ff1615611a7a5760088101805461ff001916905560048101546003820154611a7a916001600160a01b037f0000000000000000000000000000000000000000000000000000000000000000811692600160481b9092041690611b48565b60405184907f8be3723411cc8577ee6cd118cbdbcefd5a0d748b4ce31edbbbad3b8a013cc79990600090a250505061146d60018055565b600260015403611ad457604051633ee5aeb560e01b815260040160405180910390fd5b6002600155565b6040516001600160a01b038481166024830152838116604483015260648201839052611b429186918216906323b872dd906084015b604051602081830303815290604052915060e01b6020820180516001600160e01b038381831617835250505050611ee6565b50505050565b6040516001600160a01b03838116602483015260448201839052611b7991859182169063a9059cbb90606401611b10565b505050565b6000546001600160a01b03163314610c675760405163118cdaa760e01b8152336004820152602401611916565b600080546001600160a01b038381166001600160a01b0319831681178455604051919092169283917f8be0079c531659141344cd1fd0a4f28419497f9722a3daafe3b4186f6b6457e09190a35050565b6008810154610100900460ff16611c2557604051631119a5df60e31b815260040160405180910390fd5b60088101805461ff00191690556004810154600382015461146d916001600160a01b037f0000000000000000000000000000000000000000000000000000000000000000811692600160481b9092041690611b48565b6008810154610100900460ff16611ca557604051631119a5df60e31b815260040160405180910390fd5b600881015462010000900460ff1615611cd057604051629736f760e31b815260040160405180910390fd5b60088101805462ffff00191662010000179055600380549082015460009161271091611cfc9190612891565b611d0691906128a8565b90506000818360030154611d1a919061283b565b9050600082118015611d3657506002546001600160a01b031615155b15611d7557600254611d75906001600160a01b037f00000000000000000000000000000000000000000000000000000000000000008116911684611b48565b6005830154611db1906001600160a01b037f00000000000000000000000000000000000000000000000000000000000000008116911683611b48565b60058301546003840154611dcf916001600160a01b03169083611f57565b600583015483546040518381526001600160a01b03909216917f24b5efa61dd1cfc659205a97fb8ed868f3cb8c81922bab2b96423e5de1de2cb79060200160405180910390a3505050565b60606109c48210611e46575050604080518082019091526005815264456c69746560d81b602082015290565b6103e88210611e6f57505060408051808201909152600481526311dbdb1960e21b602082015290565b6101908210611e9a57505060408051808201909152600681526529b4b63b32b960d11b602082015290565b60968210611ec457505060408051808201909152600681526542726f6e7a6560d01b602082015290565b5050604080518082019091526006815265526f6f6b696560d01b602082015290565b600080602060008451602086016000885af180611f09576040513d6000823e3d81fd5b50506000513d91508115611f21578060011415611f2e565b6001600160a01b0384163b155b15611b4257604051635274afe760e01b81526001600160a01b0385166004820152602401611916565b6000611f6b670de0b6b3a7640000846128a8565b905080600003611f79575060015b6001600160a01b0384166000908152600a602052604081208054839290611fa19084906128ca565b9091555060009050611fbb670de0b6b3a7640000846128a8565b905080600003611fc9575060015b6001600160a01b03851660009081526009602052604081208054839290611ff19084906128ca565b90915550506001600160a01b0385166000908152600a602052604081205461201890611e1a565b6001600160a01b038716600081815260096020908152604080832054600a9092529182902054915193945091927f4146a620f234be49686701963664655b5fb451997f8462f773d272d68f17043f9261207492909186906128dd565b60405180910390a2505050505050565b604051806101c0016040528060008152602001606081526020016060815260200160008152602001600060028111156120bf576120bf612452565b81526000602082018190526040820181905260608083018290526080830182905260a0830181905260c083015260e0820181905261010082018190526101209091015290565b60008083601f84011261211757600080fd5b5081356001600160401b0381111561212e57600080fd5b60208301915083602082850101111561214657600080fd5b9250929050565b60008060008060006060868803121561216557600080fd5b8535945060208601356001600160401b0381111561218257600080fd5b61218e88828901612105565b90955093505060408601356001600160401b038111156121ad57600080fd5b6121b988828901612105565b969995985093965092949392505050565b80356001600160401b03811681146121e157600080fd5b919050565b600080600080600080600060a0888a03121561220157600080fd5b8735965060208801356001600160401b0381111561221e57600080fd5b61222a8a828b01612105565b90975095505060408801356001600160401b0381111561224957600080fd5b6122558a828b01612105565b9095509350506060880135915061226e608089016121ca565b905092959891949750929550565b80356001600160a01b03811681146121e157600080fd5b6000602082840312156122a557600080fd5b6122ae8261227c565b9392505050565b6000602082840312156122c757600080fd5b5035919050565b602080825282518282018190526000918401906040840190835b818110156123065783518352602093840193909201916001016122e8565b509095945050505050565b600080600080600080600060a0888a03121561232c57600080fd5b87356001600160401b0381111561234257600080fd5b61234e8a828b01612105565b90985096505060208801356001600160401b0381111561236d57600080fd5b6123798a828b01612105565b9096509450506040880135925060608801356003811061239857600080fd5b915061226e608089016121ca565b803580151581146121e157600080fd5b600080604083850312156123c957600080fd5b823591506123d9602084016123a6565b90509250929050565b600080604083850312156123f557600080fd5b6123fe8361227c565b91506123d9602084016123a6565b6000815180845260005b8181101561243257602081850181015186830182015201612416565b506000602082860101526020601f19601f83011685010191505092915050565b634e487b7160e01b600052602160045260246000fd5b6003811061247857612478612452565b9052565b6006811061247857612478612452565b80518252600060208201516101c060208501526124ad6101c085018261240c565b9050604083015184820360408601526124c6828261240c565b9150506060830151606085015260808301516124e56080860182612468565b5060a083015161250060a08601826001600160401b03169052565b5060c083015161251b60c08601826001600160a01b03169052565b5060e083015161253660e08601826001600160a01b03169052565b5061010083015161254b61010086018261247c565b50610120830151848203610120860152612565828261240c565b915050610140830151848203610140860152612581828261240c565b91505061016083015161259961016086018215159052565b506101808301516125af61018086018215159052565b506101a08301516125c56101a086018215159052565b509392505050565b6000602082016020835280845180835260408501915060408160051b86010192506020860160005b8281101561262657603f1987860301845261261185835161248c565b945060209384019391909101906001016125f5565b50929695505050505050565b6020815260006122ae602083018461248c565b6000806040838503121561265857600080fd5b823591506123d96020840161227c565b60208152815160208201526020820151604082015260006040830151606080840152612697608084018261240c565b949350505050565b634e487b7160e01b600052604160045260246000fd5b600181811c908216806126c957607f821691505b6020821081036117fe57634e487b7160e01b600052602260045260246000fd5b601f821115611b7957806000526020600020601f840160051c810160208510156127105750805b601f840160051c820191505b81811015612730576000815560010161271c565b5050505050565b6001600160401b0383111561274e5761274e61269f565b6127628361275c83546126b5565b836126e9565b6000601f841160018114612796576000851561277e5750838201355b600019600387901b1c1916600186901b178355612730565b600083815260209020601f19861690835b828110156127c757868501358255602094850194600190920191016127a7565b50868210156127e45760001960f88860031b161c19848701351681555b505060018560011b0183555050505050565b60208152816020820152818360408301376000818301604090810191909152601f909201601f19160101919050565b634e487b7160e01b600052601160045260246000fd5b8181038181111561284e5761284e612825565b92915050565b60006001820161286657612866612825565b5060010190565b6020810161284e828461247c565b634e487b7160e01b600052603260045260246000fd5b808202811582820484141761284e5761284e612825565b6000826128c557634e487b7160e01b600052601260045260246000fd5b500490565b8082018082111561284e5761284e612825565b8381528260208201526060604082015260006128fc606083018461240c565b9594505050505056fea2646970667358221220a27cae9bfb4afd3c9dcb8ae08bd00d811e75fee021ffee95987b4667eb57ba5464736f6c634300081c0033",
  "linkReferences": {},
  "deployedLinkReferences": {}
}