{
  "_format": "hh-sol-artifact-1",
  "contractName": "QuestRegistry",
  "sourceName": "contracts/QuestRegistry.sol",
  "abi": [
    {
      "inputs": [],
      "stateMutability": "nonpayable",
      "type": "constructor"
    },
    {
      "inputs": [
        {
          "internalType": "address",
          "name": "owner",
          "type": "address"
        }
      ],
      "name": "OwnableInvalidOwner",
      "type": "error"
    },
    {
      "inputs": [
        {
          "internalType": "address",
          "name": "account",
          "type": "address"
        }
      ],
      "name": "OwnableUnauthorizedAccount",
      "type": "error"
    },
    {
      "inputs": [],
      "name": "QuestRegistry__InvalidQuest",
      "type": "error"
    },
    {
      "inputs": [],
      "name": "QuestRegistry__QuestAlreadyExists",
      "type": "error"
    },
    {
      "inputs": [],
      "name": "QuestRegistry__QuestNotFound",
      "type": "error"
    },
    {
      "inputs": [],
      "name": "QuestRegistry__Unauthorized",
      "type": "error"
    },
    {
      "anonymous": false,
      "inputs": [
        {
          "indexed": true,
          "internalType": "address",
          "name": "previousOwner",
          "type": "address"
        },
        {
          "indexed": true,
          "internalType": "address",
          "name": "newOwner",
          "type": "address"
        }
      ],
      "name": "OwnershipTransferred",
      "type": "event"
    },
    {
      "anonymous": false,
      "inputs": [
        {
          "indexed": true,
          "internalType": "address",
          "name": "questArcade",
          "type": "address"
        }
      ],
      "name": "QuestArcadeUpdated",
      "type": "event"
    },
    {
      "anonymous": false,
      "inputs": [
        {
          "indexed": true,
          "internalType": "uint256",
          "name": "questId",
          "type": "uint256"
        },
        {
          "indexed": false,
          "internalType": "string",
          "name": "metadataURI",
          "type": "string"
        },
        {
          "indexed": false,
          "internalType": "uint64",
          "name": "deadline",
          "type": "uint64"
        },
        {
          "indexed": false,
          "internalType": "uint256",
          "name": "rewardAmount",
          "type": "uint256"
        }
      ],
      "name": "QuestMetadataUpdated",
      "type": "event"
    },
    {
      "anonymous": false,
      "inputs": [
        {
          "indexed": true,
          "internalType": "uint256",
          "name": "questId",
          "type": "uint256"
        },
        {
          "indexed": true,
          "internalType": "address",
          "name": "creator",
          "type": "address"
        },
        {
          "components": [
            {
              "internalType": "uint256",
              "name": "questId",
              "type": "uint256"
            },
            {
              "internalType": "address",
              "name": "creator",
              "type": "address"
            },
            {
              "internalType": "string",
              "name": "title",
              "type": "string"
            },
            {
              "internalType": "string",
              "name": "description",
              "type": "string"
            },
            {
              "internalType": "string",
              "name": "metadataURI",
              "type": "string"
            },
            {
              "internalType": "uint64",
              "name": "deadline",
              "type": "uint64"
            },
            {
              "internalType": "uint256",
              "name": "rewardAmount",
              "type": "uint256"
            },
            {
              "internalType": "enum QuestRegistry.QuestState",
              "name": "state",
              "type": "uint8"
            },
            {
              "internalType": "bool",
              "name": "exists",
              "type": "bool"
            }
          ],
          "indexed": false,
          "internalType": "struct QuestRegistry.QuestMetadata",
          "name": "metadata",
          "type": "tuple"
        }
      ],
      "name": "QuestRegistered",
      "type": "event"
    },
    {
      "anonymous": false,
      "inputs": [
        {
          "indexed": true,
          "internalType": "uint256",
          "name": "questId",
          "type": "uint256"
        },
        {
          "indexed": false,
          "internalType": "enum QuestRegistry.QuestState",
          "name": "previousState",
          "type": "uint8"
        },
        {
          "indexed": false,
          "internalType": "enum QuestRegistry.QuestState",
          "name": "newState",
          "type": "uint8"
        }
      ],
      "name": "QuestStateUpdated",
      "type": "event"
    },
    {
      "inputs": [
        {
          "internalType": "uint256",
          "name": "questId",
          "type": "uint256"
        }
      ],
      "name": "getQuest",
      "outputs": [
        {
          "components": [
            {
              "internalType": "uint256",
              "name": "questId",
              "type": "uint256"
            },
            {
              "internalType": "address",
              "name": "creator",
              "type": "address"
            },
            {
              "internalType": "string",
              "name": "title",
              "type": "string"
            },
            {
              "internalType": "string",
              "name": "description",
              "type": "string"
            },
            {
              "internalType": "string",
              "name": "metadataURI",
              "type": "string"
            },
            {
              "internalType": "uint64",
              "name": "deadline",
              "type": "uint64"
            },
            {
              "internalType": "uint256",
              "name": "rewardAmount",
              "type": "uint256"
            },
            {
              "internalType": "enum QuestRegistry.QuestState",
              "name": "state",
              "type": "uint8"
            },
            {
              "internalType": "bool",
              "name": "exists",
              "type": "bool"
            }
          ],
          "internalType": "struct QuestRegistry.QuestMetadata",
          "name": "",
          "type": "tuple"
        }
      ],
      "stateMutability": "view",
      "type": "function"
    },
    {
      "inputs": [],
      "name": "owner",
      "outputs": [
        {
          "internalType": "address",
          "name": "",
          "type": "address"
        }
      ],
      "stateMutability": "view",
      "type": "function"
    },
    {
      "inputs": [],
      "name": "questArcade",
      "outputs": [
        {
          "internalType": "address",
          "name": "",
          "type": "address"
        }
      ],
      "stateMutability": "view",
      "type": "function"
    },
    {
      "inputs": [
        {
          "internalType": "uint256",
          "name": "questId",
          "type": "uint256"
        }
      ],
      "name": "questExists",
      "outputs": [
        {
          "internalType": "bool",
          "name": "",
          "type": "bool"
        }
      ],
      "stateMutability": "view",
      "type": "function"
    },
    {
      "inputs": [
        {
          "internalType": "uint256",
          "name": "questId",
          "type": "uint256"
        },
        {
          "internalType": "address",
          "name": "creator",
          "type": "address"
        },
        {
          "internalType": "string",
          "name": "title",
          "type": "string"
        },
        {
          "internalType": "string",
          "name": "description",
          "type": "string"
        },
        {
          "internalType": "string",
          "name": "metadataURI",
          "type": "string"
        },
        {
          "internalType": "uint64",
          "name": "deadline",
          "type": "uint64"
        },
        {
          "internalType": "uint256",
          "name": "rewardAmount",
          "type": "uint256"
        }
      ],
      "name": "registerQuest",
      "outputs": [],
      "stateMutability": "nonpayable",
      "type": "function"
    },
    {
      "inputs": [],
      "name": "renounceOwnership",
      "outputs": [],
      "stateMutability": "nonpayable",
      "type": "function"
    },
    {
      "inputs": [
        {
          "internalType": "address",
          "name": "newQuestArcade",
          "type": "address"
        }
      ],
      "name": "setQuestArcade",
      "outputs": [],
      "stateMutability": "nonpayable",
      "type": "function"
    },
    {
      "inputs": [
        {
          "internalType": "address",
          "name": "newOwner",
          "type": "address"
        }
      ],
      "name": "transferOwnership",
      "outputs": [],
      "stateMutability": "nonpayable",
      "type": "function"
    },
    {
      "inputs": [
        {
          "internalType": "uint256",
          "name": "questId",
          "type": "uint256"
        },
        {
          "internalType": "string",
          "name": "metadataURI",
          "type": "string"
        },
        {
          "internalType": "uint64",
          "name": "deadline",
          "type": "uint64"
        },
        {
          "internalType": "uint256",
          "name": "rewardAmount",
          "type": "uint256"
        }
      ],
      "name": "updateQuestMetadata",
      "outputs": [],
      "stateMutability": "nonpayable",
      "type": "function"
    },
    {
      "inputs": [
        {
          "internalType": "uint256",
          "name": "questId",
          "type": "uint256"
        },
        {
          "internalType": "enum QuestRegistry.QuestState",
          "name": "newState",
          "type": "uint8"
        }
      ],
      "name": "updateQuestState",
      "outputs": [],
      "stateMutability": "nonpayable",
      "type": "function"
    }
  ],
  "bytecode": "0x6080604052348015600f57600080fd5b503380603557604051631e4fbdf760e01b81526000600482015260240160405180910390fd5b603c816041565b506091565b600080546001600160a01b038381166001600160a01b0319831681178455604051919092169283917f8be0079c531659141344cd1fd0a4f28419497f9722a3daafe3b4186f6b6457e09190a35050565b6110f5806100a06000396000f3fe608060405234801561001057600080fd5b506004361061009e5760003560e01c80639edf5a69116100665780639edf5a6914610149578063a1a6a7761461015c578063ae82222f1461016f578063b41ae24714610182578063f2fde38b1461019557600080fd5b806349f86f34146100a35780635d4330bf146100cc578063715018a6146100e157806375be329b146100e95780638da5cb5b14610124575b600080fd5b6100b66100b1366004610ac4565b6101a8565b6040516100c39190610b5b565b60405180910390f35b6100df6100da366004610c48565b610431565b005b6100df6104aa565b6101146100f7366004610ac4565b600090815260016020526040902060070154610100900460ff1690565b60405190151581526020016100c3565b6000546001600160a01b03165b6040516001600160a01b0390911681526020016100c3565b6100df610157366004610cc9565b6104be565b600254610131906001600160a01b031681565b6100df61017d366004610da6565b6107b6565b6100df610190366004610e0b565b6108af565b6100df6101a3366004610c48565b610995565b6101b0610a55565b600082815260016020818152604080842081516101208101835281548152938101546001600160a01b031692840192909252600282018054918401916101f590610e3f565b80601f016020809104026020016040519081016040528092919081815260200182805461022190610e3f565b801561026e5780601f106102435761010080835404028352916020019161026e565b820191906000526020600020905b81548152906001019060200180831161025157829003601f168201915b5050505050815260200160038201805461028790610e3f565b80601f01602080910402602001604051908101604052809291908181526020018280546102b390610e3f565b80156103005780601f106102d557610100808354040283529160200191610300565b820191906000526020600020905b8154815290600101906020018083116102e357829003601f168201915b5050505050815260200160048201805461031990610e3f565b80601f016020809104026020016040519081016040528092919081815260200182805461034590610e3f565b80156103925780601f1061036757610100808354040283529160200191610392565b820191906000526020600020905b81548152906001019060200180831161037557829003601f168201915b50505091835250506005828101546001600160401b0316602083015260068301546040830152600783015460609092019160ff16908111156103d6576103d6610b23565b60058111156103e7576103e7610b23565b81526020016007820160019054906101000a900460ff161515151581525050905080610100015161042b5760405163c971547f60e01b815260040160405180910390fd5b92915050565b6104396109d8565b6001600160a01b03811661046057604051635c5ba3df60e01b815260040160405180910390fd5b600280546001600160a01b0319166001600160a01b0383169081179091556040517f628b03a2737dcbc78dccf126de4e62e205a763879aba55d8a3097d4e90d0a77590600090a250565b6104b26109d8565b6104bc6000610a05565b565b6000546001600160a01b031633148015906104e457506002546001600160a01b03163314155b156105025760405163acf1b54560e01b815260040160405180910390fd5b89158061051657506001600160a01b038916155b8061051f575086155b1561053d57604051635c5ba3df60e01b815260040160405180910390fd5b60008a815260016020526040902060070154610100900460ff161561057557604051630a197c4960e01b815260040160405180910390fd5b60006040518061012001604052808c81526020018b6001600160a01b031681526020018a8a8080601f016020809104026020016040519081016040528093929190818152602001838380828437600092019190915250505090825250604080516020601f8b0181900481028201810190925289815291810191908a908a9081908401838280828437600092019190915250505090825250604080516020601f8901819004810282018101909252878152918101919088908890819084018382808284376000920191909152505050908252506001600160401b038516602082015260408101849052606001600181526001602091820181905260008e8152818352604090819020845181559284015191830180546001600160a01b0319166001600160a01b0390931692909217909155820151919250829160028201906106bc9082610ede565b50606082015160038201906106d19082610ede565b50608082015160048201906106e69082610ede565b5060a08201516005828101805467ffffffffffffffff19166001600160401b039093169290921790915560c0830151600683015560e08301516007830180549192909160ff191690600190849081111561074257610742610b23565b021790555061010091820151600791909101805461ff0019169115159092021790556040516001600160a01b038b16908c907f91b4466a9b276e9c47777960fe75f1665d6c533cf9f9677a6f480f179793e271906107a1908590610b5b565b60405180910390a35050505050505050505050565b6000546001600160a01b031633148015906107dc57506002546001600160a01b03163314155b156107fa5760405163acf1b54560e01b815260040160405180910390fd5b60008581526001602052604090206007810154610100900460ff166108325760405163c971547f60e01b815260040160405180910390fd5b60048101610841858783610f9c565b5060058101805467ffffffffffffffff19166001600160401b0385161790556006810182905560405186907f5736f4b1a67110fe03d070f6fee264183fa045714be19ac93f36530280fde4059061089f90889088908890889061105b565b60405180910390a2505050505050565b6000546001600160a01b031633148015906108d557506002546001600160a01b03163314155b156108f35760405163acf1b54560e01b815260040160405180910390fd5b60008281526001602052604090206007810154610100900460ff1661092b5760405163c971547f60e01b815260040160405180910390fd5b60078101805460ff811691849160ff1916600183600581111561095057610950610b23565b0217905550837f823c59756dab68a87a9996ab8f3a480c2cb4be2608d3d7cafe3ac480b3bd45f382856040516109879291906110a4565b60405180910390a250505050565b61099d6109d8565b6001600160a01b0381166109cc57604051631e4fbdf760e01b8152600060048201526024015b60405180910390fd5b6109d581610a05565b50565b6000546001600160a01b031633146104bc5760405163118cdaa760e01b81523360048201526024016109c3565b600080546001600160a01b038381166001600160a01b0319831681178455604051919092169283917f8be0079c531659141344cd1fd0a4f28419497f9722a3daafe3b4186f6b6457e09190a35050565b6040518061012001604052806000815260200160006001600160a01b0316815260200160608152602001606081526020016060815260200160006001600160401b031681526020016000815260200160006005811115610ab757610ab7610b23565b8152600060209091015290565b600060208284031215610ad657600080fd5b5035919050565b6000815180845260005b81811015610b0357602081850181015186830182015201610ae7565b506000602082860101526020601f19601f83011685010191505092915050565b634e487b7160e01b600052602160045260246000fd5b60068110610b5757634e487b7160e01b600052602160045260246000fd5b9052565b602081528151602082015260006020830151610b8260408401826001600160a01b03169052565b5060408301516101206060840152610b9e610140840182610add565b90506060840151601f19848303016080850152610bbb8282610add565b9150506080840151601f198483030160a0850152610bd98282610add565b91505060a0840151610bf660c08501826001600160401b03169052565b5060c084015160e084015260e0840151610c14610100850182610b39565b50610100840151801515610120850152509392505050565b80356001600160a01b0381168114610c4357600080fd5b919050565b600060208284031215610c5a57600080fd5b610c6382610c2c565b9392505050565b60008083601f840112610c7c57600080fd5b5081356001600160401b03811115610c9357600080fd5b602083019150836020828501011115610cab57600080fd5b9250929050565b80356001600160401b0381168114610c4357600080fd5b60008060008060008060008060008060e08b8d031215610ce857600080fd5b8a359950610cf860208c01610c2c565b985060408b01356001600160401b03811115610d1357600080fd5b610d1f8d828e01610c6a565b90995097505060608b01356001600160401b03811115610d3e57600080fd5b610d4a8d828e01610c6a565b90975095505060808b01356001600160401b03811115610d6957600080fd5b610d758d828e01610c6a565b9095509350610d88905060a08c01610cb2565b9150600060c08c01359050809150509295989b9194979a5092959850565b600080600080600060808688031215610dbe57600080fd5b8535945060208601356001600160401b03811115610ddb57600080fd5b610de788828901610c6a565b9095509350610dfa905060408701610cb2565b949793965091946060013592915050565b60008060408385031215610e1e57600080fd5b82359150602083013560068110610e3457600080fd5b809150509250929050565b600181811c90821680610e5357607f821691505b602082108103610e7357634e487b7160e01b600052602260045260246000fd5b50919050565b634e487b7160e01b600052604160045260246000fd5b601f821115610ed957806000526020600020601f840160051c81016020851015610eb65750805b601f840160051c820191505b81811015610ed65760008155600101610ec2565b50505b505050565b81516001600160401b03811115610ef757610ef7610e79565b610f0b81610f058454610e3f565b84610e8f565b6020601f821160018114610f3f5760008315610f275750848201515b600019600385901b1c1916600184901b178455610ed6565b600084815260208120601f198516915b82811015610f6f5787850151825560209485019460019092019101610f4f565b5084821015610f8d5786840151600019600387901b60f8161c191681555b50505050600190811b01905550565b6001600160401b03831115610fb357610fb3610e79565b610fc783610fc18354610e3f565b83610e8f565b6000601f841160018114610ffb5760008515610fe35750838201355b600019600387901b1c1916600186901b178355610ed6565b600083815260209020601f19861690835b8281101561102c578685013582556020948501946001909201910161100c565b50868210156110495760001960f88860031b161c19848701351681555b505060018560011b0183555050505050565b606081528360608201528385608083013760006080858301015260006080601f19601f87011683010190506001600160401b038416602083015282604083015295945050505050565b604081016110b28285610b39565b610c636020830184610b3956fea2646970667358221220c9d78a9e4b781353ddd0cbf9472f1bc8dda1afc0a57c32459755bb3a9f00274764736f6c634300081c0033",
  "linkReferences": {},
  "deployedLinkReferences": {}
}