{
  "contracts/QuestArcade.sol": {
    "QuestArcade": {
      "abi": [
        {
          "inputs": [
            {
              "internalType": "contract ICUSD",
              "name": "_stableToken",
              "type": "address"
            },
            {
              "internalType": "address",
              "name": "_feeRecipient",
              "type": "address"
            },
            {
              "internalType": "uint256",
              "name": "_platformFeeBps",
              "type": "uint256"
            }
          ],
          "stateMutability": "nonpayable",
          "type": "constructor"
        },
        {
          "inputs": [
            {
              "internalType": "address",
              "name": "owner",
              "type": "address"
            }
          ],
          "name": "OwnableInvalidOwner",
          "type": "error"
        },
        {
          "inputs": [
            {
              "internalType": "address",
              "name": "account",
              "type": "address"
            }
          ],
          "name": "OwnableUnauthorizedAccount",
          "type": "error"
        },
        {
          "inputs": [],
          "name": "QuestArcade__CreatorNotApproved",
          "type": "error"
        },
        {
          "inputs": [],
          "name": "QuestArcade__CreatorOnly",
          "type": "error"
        },
        {
          "inputs": [],
          "name": "QuestArcade__DeadlineElapsed",
          "type": "error"
        },
        {
          "inputs": [],
          "name": "QuestArcade__FundsNotEscrowed",
          "type": "error"
        },
        {
          "inputs": [],
          "name": "QuestArcade__InvalidFeeBps",
          "type": "error"
        },
        {
          "inputs": [],
          "name": "QuestArcade__InvalidQuest",
          "type": "error"
        },
        {
          "inputs": [],
          "name": "QuestArcade__InvalidStatusTransition",
          "type": "error"
        },
        {
          "inputs": [],
          "name": "QuestArcade__InvalidVerificationType",
          "type": "error"
        },
        {
          "inputs": [],
          "name": "QuestArcade__QuestAlreadyAccepted",
          "type": "error"
        },
        {
          "inputs": [],
          "name": "QuestArcade__RewardAlreadyClaimed",
          "type": "error"
        },
        {
          "inputs": [],
          "name": "QuestArcade__Unauthorized",
          "type": "error"
        },
        {
          "inputs": [],
          "name": "QuestArcade__WorkerOnly",
          "type": "error"
        },
        {
          "inputs": [],
          "name": "ReentrancyGuardReentrantCall",
          "type": "error"
        },
        {
          "inputs": [
            {
              "internalType": "address",
              "name": "token",
              "type": "address"
            }
          ],
          "name": "SafeERC20FailedOperation",
          "type": "error"
        },
        {
          "anonymous": false,
          "inputs": [
            {
              "indexed": true,
              "internalType": "address",
              "name": "creator",
              "type": "address"
            },
            {
              "indexed": false,
              "internalType": "bool",
              "name": "isApproved",
              "type": "bool"
            }
          ],
          "name": "CreatorStatusUpdated",
          "type": "event"
        },
        {
          "anonymous": false,
          "inputs": [
            {
              "indexed": true,
              "internalType": "address",
              "name": "previousOwner",
              "type": "address"
            },
            {
              "indexed": true,
              "internalType": "address",
              "name": "newOwner",
              "type": "address"
            }
          ],
          "name": "OwnershipTransferred",
          "type": "event"
        },
        {
          "anonymous": false,
          "inputs": [
            {
              "indexed": false,
              "internalType": "uint256",
              "name": "feeBps",
              "type": "uint256"
            },
            {
              "indexed": true,
              "internalType": "address",
              "name": "feeRecipient",
              "type": "address"
            }
          ],
          "name": "PlatformFeeUpdated",
          "type": "event"
        },
        {
          "anonymous": false,
          "inputs": [
            {
              "indexed": true,
              "internalType": "uint256",
              "name": "questId",
              "type": "uint256"
            },
            {
              "indexed": true,
              "internalType": "address",
              "name": "user",
              "type": "address"
            }
          ],
          "name": "QuestAccepted",
          "type": "event"
        },
        {
          "anonymous": false,
          "inputs": [
            {
              "indexed": true,
              "internalType": "uint256",
              "name": "questId",
              "type": "uint256"
            }
          ],
          "name": "QuestCancelled",
          "type": "event"
        },
        {
          "anonymous": false,
          "inputs": [
            {
              "indexed": true,
              "internalType": "uint256",
              "name": "questId",
              "type": "uint256"
            },
            {
              "indexed": true,
              "internalType": "address",
              "name": "user",
              "type": "address"
            },
            {
              "indexed": false,
              "internalType": "enum QuestArcade.QuestStatus",
              "name": "status",
              "type": "uint8"
            }
          ],
          "name": "QuestCompleted",
          "type": "event"
        },
        {
          "anonymous": false,
          "inputs": [
            {
              "indexed": true,
              "internalType": "uint256",
              "name": "questId",
              "type": "uint256"
            },
            {
              "indexed": true,
              "internalType": "address",
              "name": "creator",
              "type": "address"
            },
            {
              "indexed": false,
              "internalType": "uint256",
              "name": "rewardAmount",
              "type": "uint256"
            }
          ],
          "name": "QuestCreated",
          "type": "event"
        },
        {
          "anonymous": false,
          "inputs": [
            {
              "indexed": true,
              "internalType": "uint256",
              "name": "questId",
              "type": "uint256"
            },
            {
              "indexed": true,
              "internalType": "address",
              "name": "user",
              "type": "address"
            },
            {
              "indexed": false,
              "internalType": "string",
              "name": "proofCID",
              "type": "string"
            }
          ],
          "name": "QuestSubmitted",
          "type": "event"
        },
        {
          "anonymous": false,
          "inputs": [
            {
              "indexed": true,
              "internalType": "uint256",
              "name": "questId",
              "type": "uint256"
            }
          ],
          "name": "QuestUpdated",
          "type": "event"
        },
        {
          "anonymous": false,
          "inputs": [
            {
              "indexed": true,
              "internalType": "address",
              "name": "user",
              "type": "address"
            },
            {
              "indexed": false,
              "internalType": "uint256",
              "name": "newReputation",
              "type": "uint256"
            },
            {
              "indexed": false,
              "internalType": "uint256",
              "name": "newXp",
              "type": "uint256"
            },
            {
              "indexed": false,
              "internalType": "string",
              "name": "newLevel",
              "type": "string"
            }
          ],
          "name": "ReputationUpdated",
          "type": "event"
        },
        {
          "anonymous": false,
          "inputs": [
            {
              "indexed": true,
              "internalType": "uint256",
              "name": "questId",
              "type": "uint256"
            },
            {
              "indexed": true,
              "internalType": "address",
              "name": "user",
              "type": "address"
            },
            {
              "indexed": false,
              "internalType": "uint256",
              "name": "amount",
              "type": "uint256"
            }
          ],
          "name": "RewardClaimed",
          "type": "event"
        },
        {
          "inputs": [
            {
              "internalType": "uint256",
              "name": "questId",
              "type": "uint256"
            }
          ],
          "name": "acceptQuest",
          "outputs": [],
          "stateMutability": "nonpayable",
          "type": "function"
        },
        {
          "inputs": [
            {
              "internalType": "address",
              "name": "",
              "type": "address"
            }
          ],
          "name": "approvedCreators",
          "outputs": [
            {
              "internalType": "bool",
              "name": "",
              "type": "bool"
            }
          ],
          "stateMutability": "view",
          "type": "function"
        },
        {
          "inputs": [
            {
              "internalType": "uint256",
              "name": "questId",
              "type": "uint256"
            }
          ],
          "name": "cancelQuest",
          "outputs": [],
          "stateMutability": "nonpayable",
          "type": "function"
        },
        {
          "inputs": [
            {
              "internalType": "uint256",
              "name": "questId",
              "type": "uint256"
            }
          ],
          "name": "claimReward",
          "outputs": [],
          "stateMutability": "nonpayable",
          "type": "function"
        },
        {
          "inputs": [
            {
              "internalType": "string",
              "name": "title",
              "type": "string"
            },
            {
              "internalType": "string",
              "name": "description",
              "type": "string"
            },
            {
              "internalType": "uint256",
              "name": "rewardAmount",
              "type": "uint256"
            },
            {
              "internalType": "enum QuestArcade.VerificationType",
              "name": "verificationType",
              "type": "uint8"
            },
            {
              "internalType": "uint64",
              "name": "deadline",
              "type": "uint64"
            }
          ],
          "name": "createQuest",
          "outputs": [
            {
              "internalType": "uint256",
              "name": "questId",
              "type": "uint256"
            }
          ],
          "stateMutability": "nonpayable",
          "type": "function"
        },
        {
          "inputs": [],
          "name": "feeRecipient",
          "outputs": [
            {
              "internalType": "address",
              "name": "",
              "type": "address"
            }
          ],
          "stateMutability": "view",
          "type": "function"
        },
        {
          "inputs": [],
          "name": "getAvailableQuests",
          "outputs": [
            {
              "components": [
                {
                  "internalType": "uint256",
                  "name": "id",
                  "type": "uint256"
                },
                {
                  "internalType": "string",
                  "name": "title",
                  "type": "string"
                },
                {
                  "internalType": "string",
                  "name": "description",
                  "type": "string"
                },
                {
                  "internalType": "uint256",
                  "name": "rewardAmount",
                  "type": "uint256"
                },
                {
                  "internalType": "enum QuestArcade.VerificationType",
                  "name": "verificationType",
                  "type": "uint8"
                },
                {
                  "internalType": "uint64",
                  "name": "deadline",
                  "type": "uint64"
                },
                {
                  "internalType": "address",
                  "name": "creator",
                  "type": "address"
                },
                {
                  "internalType": "address",
                  "name": "worker",
                  "type": "address"
                },
                {
                  "internalType": "enum QuestArcade.QuestStatus",
                  "name": "status",
                  "type": "uint8"
                },
                {
                  "internalType": "string",
                  "name": "proofCID",
                  "type": "string"
                },
                {
                  "internalType": "string",
                  "name": "proofMetadata",
                  "type": "string"
                },
                {
                  "internalType": "bool",
                  "name": "exists",
                  "type": "bool"
                },
                {
                  "internalType": "bool",
                  "name": "rewardEscrowed",
                  "type": "bool"
                },
                {
                  "internalType": "bool",
                  "name": "rewardClaimed",
                  "type": "bool"
                }
              ],
              "internalType": "struct QuestArcade.Quest[]",
              "name": "",
              "type": "tuple[]"
            }
          ],
          "stateMutability": "view",
          "type": "function"
        },
        {
          "inputs": [
            {
              "internalType": "address",
              "name": "creator",
              "type": "address"
            }
          ],
          "name": "getCreatorQuests",
          "outputs": [
            {
              "internalType": "uint256[]",
              "name": "",
              "type": "uint256[]"
            }
          ],
          "stateMutability": "view",
          "type": "function"
        },
        {
          "inputs": [
            {
              "internalType": "uint256",
              "name": "questId",
              "type": "uint256"
            }
          ],
          "name": "getQuestDetails",
          "outputs": [
            {
              "components": [
                {
                  "internalType": "uint256",
                  "name": "id",
                  "type": "uint256"
                },
                {
                  "internalType": "string",
                  "name": "title",
                  "type": "string"
                },
                {
                  "internalType": "string",
                  "name": "description",
                  "type": "string"
                },
                {
                  "internalType": "uint256",
                  "name": "rewardAmount",
                  "type": "uint256"
                },
                {
                  "internalType": "enum QuestArcade.VerificationType",
                  "name": "verificationType",
                  "type": "uint8"
                },
                {
                  "internalType": "uint64",
                  "name": "deadline",
                  "type": "uint64"
                },
                {
                  "internalType": "address",
                  "name": "creator",
                  "type": "address"
                },
                {
                  "internalType": "address",
                  "name": "worker",
                  "type": "address"
                },
                {
                  "internalType": "enum QuestArcade.QuestStatus",
                  "name": "status",
                  "type": "uint8"
                },
                {
                  "internalType": "string",
                  "name": "proofCID",
                  "type": "string"
                },
                {
                  "internalType": "string",
                  "name": "proofMetadata",
                  "type": "string"
                },
                {
                  "internalType": "bool",
                  "name": "exists",
                  "type": "bool"
                },
                {
                  "internalType": "bool",
                  "name": "rewardEscrowed",
                  "type": "bool"
                },
                {
                  "internalType": "bool",
                  "name": "rewardClaimed",
                  "type": "bool"
                }
              ],
              "internalType": "struct QuestArcade.Quest",
              "name": "",
              "type": "tuple"
            }
          ],
          "stateMutability": "view",
          "type": "function"
        },
        {
          "inputs": [
            {
              "internalType": "address",
              "name": "user",
              "type": "address"
            }
          ],
          "name": "getUserQuests",
          "outputs": [
            {
              "internalType": "uint256[]",
              "name": "",
              "type": "uint256[]"
            }
          ],
          "stateMutability": "view",
          "type": "function"
        },
        {
          "inputs": [
            {
              "internalType": "address",
              "name": "user",
              "type": "address"
            }
          ],
          "name": "getUserReputation",
          "outputs": [
            {
              "components": [
                {
                  "internalType": "uint256",
                  "name": "xp",
                  "type": "uint256"
                },
                {
                  "internalType": "uint256",
                  "name": "reputation",
                  "type": "uint256"
                },
                {
                  "internalType": "string",
                  "name": "level",
                  "type": "string"
                }
              ],
              "internalType": "struct QuestArcade.ReputationProfile",
              "name": "profile",
              "type": "tuple"
            }
          ],
          "stateMutability": "view",
          "type": "function"
        },
        {
          "inputs": [],
          "name": "owner",
          "outputs": [
            {
              "internalType": "address",
              "name": "",
              "type": "address"
            }
          ],
          "stateMutability": "view",
          "type": "function"
        },
        {
          "inputs": [],
          "name": "platformFeeBps",
          "outputs": [
            {
              "internalType": "uint256",
              "name": "",
              "type": "uint256"
            }
          ],
          "stateMutability": "view",
          "type": "function"
        },
        {
          "inputs": [],
          "name": "questCounter",
          "outputs": [
            {
              "internalType": "uint256",
              "name": "",
              "type": "uint256"
            }
          ],
          "stateMutability": "view",
          "type": "function"
        },
        {
          "inputs": [],
          "name": "renounceOwnership",
          "outputs": [],
          "stateMutability": "nonpayable",
          "type": "function"
        },
        {
          "inputs": [
            {
              "internalType": "address",
              "name": "creator",
              "type": "address"
            },
            {
              "internalType": "bool",
              "name": "approved",
              "type": "bool"
            }
          ],
          "name": "setCreatorStatus",
          "outputs": [],
          "stateMutability": "nonpayable",
          "type": "function"
        },
        {
          "inputs": [
            {
              "internalType": "uint256",
              "name": "newFeeBps",
              "type": "uint256"
            },
            {
              "internalType": "address",
              "name": "newFeeRecipient",
              "type": "address"
            }
          ],
          "name": "setPlatformFee",
          "outputs": [],
          "stateMutability": "nonpayable",
          "type": "function"
        },
        {
          "inputs": [],
          "name": "stableToken",
          "outputs": [
            {
              "internalType": "contract ICUSD",
              "name": "",
              "type": "address"
            }
          ],
          "stateMutability": "view",
          "type": "function"
        },
        {
          "inputs": [
            {
              "internalType": "uint256",
              "name": "questId",
              "type": "uint256"
            },
            {
              "internalType": "string",
              "name": "proofCID",
              "type": "string"
            },
            {
              "internalType": "string",
              "name": "metadataCID",
              "type": "string"
            }
          ],
          "name": "submitProof",
          "outputs": [],
          "stateMutability": "nonpayable",
          "type": "function"
        },
        {
          "inputs": [
            {
              "internalType": "address",
              "name": "newOwner",
              "type": "address"
            }
          ],
          "name": "transferOwnership",
          "outputs": [],
          "stateMutability": "nonpayable",
          "type": "function"
        },
        {
          "inputs": [
            {
              "internalType": "uint256",
              "name": "questId",
              "type": "uint256"
            },
            {
              "internalType": "string",
              "name": "title",
              "type": "string"
            },
            {
              "internalType": "string",
              "name": "description",
              "type": "string"
            },
            {
              "internalType": "uint256",
              "name": "rewardAmount",
              "type": "uint256"
            },
            {
              "internalType": "uint64",
              "name": "deadline",
              "type": "uint64"
            }
          ],
          "name": "updateQuest",
          "outputs": [],
          "stateMutability": "nonpayable",
          "type": "function"
        },
        {
          "inputs": [
            {
              "internalType": "address",
              "name": "",
              "type": "address"
            }
          ],
          "name": "userReputation",
          "outputs": [
            {
              "internalType": "uint256",
              "name": "",
              "type": "uint256"
            }
          ],
          "stateMutability": "view",
          "type": "function"
        },
        {
          "inputs": [
            {
              "internalType": "address",
              "name": "",
              "type": "address"
            }
          ],
          "name": "userXp",
          "outputs": [
            {
              "internalType": "uint256",
              "name": "",
              "type": "uint256"
            }
          ],
          "stateMutability": "view",
          "type": "function"
        },
        {
          "inputs": [
            {
              "internalType": "uint256",
              "name": "questId",
              "type": "uint256"
            },
            {
              "internalType": "bool",
              "name": "approved",
              "type": "bool"
            }
          ],
          "name": "verifyQuest",
          "outputs": [],
          "stateMutability": "nonpayable",
          "type": "function"
        }
      ],
      "evm": {
        "bytecode": {
          "linkReferences": {},
          "object": "60a060405234801561001057600080fd5b50604051612b0e380380612b0e83398101604081905261002f91610144565b338061005557604051631e4fbdf760e01b81526000600482015260240160405180910390fd5b61005e816100dc565b50600180556001600160a01b03831661008a5760405163d6967ff960e01b815260040160405180910390fd5b6103e88111156100ad576040516302332ead60e61b815260040160405180910390fd5b6001600160a01b03928316608052600280546001600160a01b0319169290931691909117909155600355610187565b600080546001600160a01b038381166001600160a01b0319831681178455604051919092169283917f8be0079c531659141344cd1fd0a4f28419497f9722a3daafe3b4186f6b6457e09190a35050565b6001600160a01b038116811461014157600080fd5b50565b60008060006060848603121561015957600080fd5b83516101648161012c565b60208501519093506101758161012c565b80925050604084015190509250925092565b60805161293b6101d3600039600081816102da01528181610690015281816106eb01528181610bc101528181611a4901528181611c4a01528181611d4c0152611d88015261293b6000f3fe608060405234801561001057600080fd5b50600436106101585760003560e01c80638da5cb5b116100c3578063b0f929b01161007c578063b0f929b01461030f578063b4d884f61461032f578063baccbfdb14610342578063e503bb0514610362578063f2fde38b14610382578063fe90ff7d1461039557600080fd5b80638da5cb5b146102895780638f0603611461029a5780639e86b057146102ad578063a047a000146102c0578063a9d75b2b146102d5578063ae169a50146102fc57600080fd5b80634e08dab0116101155780634e08dab0146101ff5780634f3518841461021f5780635523246714610232578063560483c714610265578063715018a6146102785780637d7591f01461028057600080fd5b806307f4f2841461015d5780630f373d411461017257806312e0b1b614610185578063139f399a146101b857806322dcd13e146101cb57806346904840146101d4575b600080fd5b61017061016b36600461214d565b6103a8565b005b6101706101803660046121e6565b610539565b6101a5610193366004612293565b600a6020526000908152604090205481565b6040519081526020015b60405180910390f35b6101706101c63660046122b5565b61079f565b6101a560035481565b6002546101e7906001600160a01b031681565b6040516001600160a01b0390911681526020016101af565b61021261020d366004612293565b61092a565b6040516101af91906122ce565b61021261022d366004612293565b610996565b610255610240366004612293565b60066020526000908152604090205460ff1681565b60405190151581526020016101af565b6101a5610273366004612311565b610a00565b610170610c55565b6101a560045481565b6000546001600160a01b03166101e7565b6101706102a83660046123b6565b610c69565b6101706102bb3660046123e2565b610e35565b6102c8610e9d565b6040516101af91906125cd565b6101e77f000000000000000000000000000000000000000000000000000000000000000081565b61017061030a3660046122b5565b611366565b61032261031d3660046122b5565b611470565b6040516101af9190612632565b61017061033d366004612645565b611804565b610355610350366004612293565b611882565b6040516101af9190612668565b6101a5610370366004612293565b60096020526000908152604090205481565b610170610390366004612293565b6118e8565b6101706103a33660046122b5565b611928565b600085815260056020526040902060080154859060ff166103dc5760405163d6967ff960e01b815260040160405180910390fd5b6000868152600560208190526040909120015486906001600160a01b031633146104195760405163e4b4e61b60e01b815260040160405180910390fd5b60008781526005602052604090206001600582810154600160a01b900460ff169081111561044957610449612452565b1461046757604051634e2dffb760e01b815260040160405180910390fd5b6004810154426101009091046001600160401b03161161049a576040516344d3875d60e11b815260040160405180910390fd5b60008690036104bc5760405163d6967ff960e01b815260040160405180910390fd5b600681016104cb878983612737565b50600781016104db858783612737565b5060058101805460ff60a01b1916600160a11b179055604051339089907fdf0b8b552ac9cfd0f5a27f0179d7e90a6b2c142548c0f9ee92cceebdaf36c28690610527908b908b906127f6565b60405180910390a35050505050505050565b610541611ab1565b600087815260056020526040902060080154879060ff166105755760405163d6967ff960e01b815260040160405180910390fd5b6000888152600560205260409020600401548890600160481b90046001600160a01b031633146105b85760405163b44924cb60e01b815260040160405180910390fd5b600089815260056020526040812090600582810154600160a01b900460ff16908111156105e7576105e7612452565b1461060557604051634e2dffb760e01b815260040160405180910390fd5b42846001600160401b03161161062e576040516344d3875d60e11b815260040160405180910390fd5b8060030154851461071c576008810154610100900460ff1661066357604051631119a5df60e31b815260040160405180910390fd5b80600301548511156106be576000816003015486610681919061283b565b90506106b86001600160a01b037f000000000000000000000000000000000000000000000000000000000000000016333084611adb565b50610714565b80600301548510156107145760008582600301546106dc919061283b565b90506107126001600160a01b037f0000000000000000000000000000000000000000000000000000000000000000163383611b48565b505b600381018590555b6001810161072b898b83612737565b506002810161073b878983612737565b5060048101805468ffffffffffffffff0019166101006001600160401b038716021790556040518a907fe2535f2c1e4708ddaf426a1bf41884b74d371bd9bcbc59c257ae5f75811ffae590600090a250505061079660018055565b50505050505050565b600081815260056020526040902060080154819060ff166107d35760405163d6967ff960e01b815260040160405180910390fd5b600082815260056020526040812090600582810154600160a01b900460ff169081111561080257610802612452565b1461082057604051634e2dffb760e01b815260040160405180910390fd5b600481015433600160481b9091046001600160a01b03160361085557604051632667023560e21b815260040160405180910390fd5b6004810154426101009091046001600160401b031611610888576040516344d3875d60e11b815260040160405180910390fd5b60058101546001600160a01b0316156108b4576040516352809f4360e11b815260040160405180910390fd5b6005810180546001600160a81b0319163360ff60a01b19811691909117600160a01b17909155600081815260076020908152604080832080546001810182559084529183209091018690555185917f7d422f3e3149564cf96cfeab23ae433b6b1d7259c2873096244209f9b40befee91a3505050565b6001600160a01b03811660009081526007602090815260409182902080548351818402810184019094528084526060939283018282801561098a57602002820191906000526020600020905b815481526020019060010190808311610976575b50505050509050919050565b6001600160a01b03811660009081526008602090815260409182902080548351818402810184019094528084526060939283018282801561098a57602002820191906000526020600020908154815260200190600101908083116109765750505050509050919050565b6000610a0a611ab1565b6000879003610a2c5760405163d6967ff960e01b815260040160405180910390fd5b83600003610a4d5760405163d6967ff960e01b815260040160405180910390fd5b42826001600160401b031611610a76576040516344d3875d60e11b815260040160405180910390fd5b60028381811115610a8957610a89612452565b60ff161115610aab57604051631158a6a760e31b815260040160405180910390fd5b600460008154610aba90612854565b9182905550600081815260056020526040902081815590915060018101610ae2898b83612737565b5060028101610af2878983612737565b506003810185905560048101805485919060ff19166001836002811115610b1b57610b1b612452565b0217905550600481018054610100600160e81b0319166101006001600160401b038616027fffffff0000000000000000000000000000000000000000ffffffffffffffffff161733600160481b021790556005810180546000919060ff60a01b1916600160a01b8302179055506008808201805460ff191660019081179091553360008181526020938452604081208054938401815581529290922001839055610bf1907f00000000000000000000000000000000000000000000000000000000000000006001600160a01b0316903088611adb565b60088101805461ff001916610100179055604051339083907f8611ab57bc82cba189efe93ed2768ca2aee3cfbff8227866a8b3400d0d14ed0690610c389089815260200190565b60405180910390a350610c4a60018055565b979650505050505050565b610c5d611b7e565b610c676000611bab565b565b610c71611ab1565b600082815260056020526040902060080154829060ff16610ca55760405163d6967ff960e01b815260040160405180910390fd5b60008381526005602052604090206002600582810154600160a01b900460ff1690811115610cd557610cd5612452565b14610cf357604051634e2dffb760e01b815260040160405180910390fd5b6004810154600160481b90046001600160a01b03163314801590610d2257506000546001600160a01b03163314155b15610d4057604051632667023560e21b815260040160405180910390fd5b8215610db35760058101805460ff60a01b198116600360a01b17918290556040516001600160a01b039091169186917fb7e370342196b323c20aa611000555179b5bbaaeeb1e287aa812b032f58aac4191610da691600160a01b90910460ff169061286d565b60405180910390a3610e26565b60058101805460ff60a01b1916600160a21b179055610dd181611bfb565b60058101546040516001600160a01b0382169186917fb7e370342196b323c20aa611000555179b5bbaaeeb1e287aa812b032f58aac4191610e1d91600160a01b90910460ff169061286d565b60405180910390a35b5050610e3160018055565b5050565b610e3d611b7e565b6001600160a01b038216600081815260066020908152604091829020805460ff191685151590811790915591519182527ff88db92c03486c8c8f4a8ba1bff0126f0fba2a721832b8581e1c2bb86b44978991015b60405180910390a25050565b600454606090600060015b828111610f1f5760008181526005602052604090206008015460ff168015610efa575060008181526005602081905260408220810154600160a01b900460ff1690811115610ef857610ef8612452565b145b15610f0d5781610f0981612854565b9250505b80610f1781612854565b915050610ea8565b506000816001600160401b03811115610f3a57610f3a61269f565b604051908082528060200260200182016040528015610f7357816020015b610f60612084565b815260200190600190039081610f585790505b509050600060015b84811161135c5760008181526005602052604090206008015460ff168015610fcd575060008181526005602081905260408220810154600160a01b900460ff1690811115610fcb57610fcb612452565b145b1561134a5760056000828152602001908152602001600020604051806101c00160405290816000820154815260200160018201805461100b906126b5565b80601f0160208091040260200160405190810160405280929190818152602001828054611037906126b5565b80156110845780601f1061105957610100808354040283529160200191611084565b820191906000526020600020905b81548152906001019060200180831161106757829003601f168201915b5050505050815260200160028201805461109d906126b5565b80601f01602080910402602001604051908101604052809291908181526020018280546110c9906126b5565b80156111165780601f106110eb57610100808354040283529160200191611116565b820191906000526020600020905b8154815290600101906020018083116110f957829003601f168201915b505050918352505060038201546020820152600482015460409091019060ff16600281111561114757611147612452565b600281111561115857611158612452565b8152600482015461010081046001600160401b03166020830152600160481b90046001600160a01b0390811660408301526005808401549182166060840152608090920191600160a01b90910460ff16908111156111b8576111b8612452565b60058111156111c9576111c9612452565b81526020016006820180546111dd906126b5565b80601f0160208091040260200160405190810160405280929190818152602001828054611209906126b5565b80156112565780601f1061122b57610100808354040283529160200191611256565b820191906000526020600020905b81548152906001019060200180831161123957829003601f168201915b5050505050815260200160078201805461126f906126b5565b80601f016020809104026020016040519081016040528092919081815260200182805461129b906126b5565b80156112e85780601f106112bd576101008083540402835291602001916112e8565b820191906000526020600020905b8154815290600101906020018083116112cb57829003601f168201915b50505091835250506008919091015460ff80821615156020840152610100820481161515604084015262010000909104161515606090910152838361132c81612854565b94508151811061133e5761133e61287b565b60200260200101819052505b8061135481612854565b915050610f7b565b5090949350505050565b61136e611ab1565b600081815260056020526040902060080154819060ff166113a25760405163d6967ff960e01b815260040160405180910390fd5b6000828152600560208190526040909120015482906001600160a01b031633146113df5760405163e4b4e61b60e01b815260040160405180910390fd5b60008381526005602052604090206003600582810154600160a01b900460ff169081111561140f5761140f612452565b1461142d57604051634e2dffb760e01b815260040160405180910390fd5b600881015462010000900460ff161561145857604051629736f760e31b815260040160405180910390fd5b61146181611c7b565b50505061146d60018055565b50565b611478612084565b600082815260056020526040902060080154829060ff166114ac5760405163d6967ff960e01b815260040160405180910390fd5b60056000848152602001908152602001600020604051806101c0016040529081600082015481526020016001820180546114e5906126b5565b80601f0160208091040260200160405190810160405280929190818152602001828054611511906126b5565b801561155e5780601f106115335761010080835404028352916020019161155e565b820191906000526020600020905b81548152906001019060200180831161154157829003601f168201915b50505050508152602001600282018054611577906126b5565b80601f01602080910402602001604051908101604052809291908181526020018280546115a3906126b5565b80156115f05780601f106115c5576101008083540402835291602001916115f0565b820191906000526020600020905b8154815290600101906020018083116115d357829003601f168201915b505050918352505060038201546020820152600482015460409091019060ff16600281111561162157611621612452565b600281111561163257611632612452565b8152600482015461010081046001600160401b03166020830152600160481b90046001600160a01b0390811660408301526005808401549182166060840152608090920191600160a01b90910460ff169081111561169257611692612452565b60058111156116a3576116a3612452565b81526020016006820180546116b7906126b5565b80601f01602080910402602001604051908101604052809291908181526020018280546116e3906126b5565b80156117305780601f1061170557610100808354040283529160200191611730565b820191906000526020600020905b81548152906001019060200180831161171357829003601f168201915b50505050508152602001600782018054611749906126b5565b80601f0160208091040260200160405190810160405280929190818152602001828054611775906126b5565b80156117c25780601f10611797576101008083540402835291602001916117c2565b820191906000526020600020905b8154815290600101906020018083116117a557829003601f168201915b50505091835250506008919091015460ff8082161515602084015261010082048116151560408401526201000090910416151560609091015291505b50919050565b61180c611b7e565b6103e882111561182f576040516302332ead60e61b815260040160405180910390fd5b6003829055600280546001600160a01b0319166001600160a01b0383169081179091556040518381527ff0c09f5238364083d828870e877edaebb364d9f19f4093fdbf24e486bbdca48490602001610e91565b6118a660405180606001604052806000815260200160008152602001606081525090565b6001600160a01b0382166000818152600a60209081526040808320548086529383526009825290912054908301526118dd81611e1a565b604083015250919050565b6118f0611b7e565b6001600160a01b03811661191f57604051631e4fbdf760e01b8152600060048201526024015b60405180910390fd5b61146d81611bab565b611930611ab1565b600081815260056020526040902060080154819060ff166119645760405163d6967ff960e01b815260040160405180910390fd5b6000828152600560205260409020600401548290600160481b90046001600160a01b031633146119a75760405163b44924cb60e01b815260040160405180910390fd5b600083815260056020526040812090600582810154600160a01b900460ff16908111156119d6576119d6612452565b146119f457604051634e2dffb760e01b815260040160405180910390fd5b60058101805460ff60a01b1916600560a01b17905560088101805460ff191690819055610100900460ff1615611a7a5760088101805461ff001916905560048101546003820154611a7a916001600160a01b037f0000000000000000000000000000000000000000000000000000000000000000811692600160481b9092041690611b48565b60405184907f8be3723411cc8577ee6cd118cbdbcefd5a0d748b4ce31edbbbad3b8a013cc79990600090a250505061146d60018055565b600260015403611ad457604051633ee5aeb560e01b815260040160405180910390fd5b6002600155565b6040516001600160a01b038481166024830152838116604483015260648201839052611b429186918216906323b872dd906084015b604051602081830303815290604052915060e01b6020820180516001600160e01b038381831617835250505050611ee6565b50505050565b6040516001600160a01b03838116602483015260448201839052611b7991859182169063a9059cbb90606401611b10565b505050565b6000546001600160a01b03163314610c675760405163118cdaa760e01b8152336004820152602401611916565b600080546001600160a01b038381166001600160a01b0319831681178455604051919092169283917f8be0079c531659141344cd1fd0a4f28419497f9722a3daafe3b4186f6b6457e09190a35050565b6008810154610100900460ff16611c2557604051631119a5df60e31b815260040160405180910390fd5b60088101805461ff00191690556004810154600382015461146d916001600160a01b037f0000000000000000000000000000000000000000000000000000000000000000811692600160481b9092041690611b48565b6008810154610100900460ff16611ca557604051631119a5df60e31b815260040160405180910390fd5b600881015462010000900460ff1615611cd057604051629736f760e31b815260040160405180910390fd5b60088101805462ffff00191662010000179055600380549082015460009161271091611cfc9190612891565b611d0691906128a8565b90506000818360030154611d1a919061283b565b9050600082118015611d3657506002546001600160a01b031615155b15611d7557600254611d75906001600160a01b037f00000000000000000000000000000000000000000000000000000000000000008116911684611b48565b6005830154611db1906001600160a01b037f00000000000000000000000000000000000000000000000000000000000000008116911683611b48565b60058301546003840154611dcf916001600160a01b03169083611f57565b600583015483546040518381526001600160a01b03909216917f24b5efa61dd1cfc659205a97fb8ed868f3cb8c81922bab2b96423e5de1de2cb79060200160405180910390a3505050565b60606109c48210611e46575050604080518082019091526005815264456c69746560d81b602082015290565b6103e88210611e6f57505060408051808201909152600481526311dbdb1960e21b602082015290565b6101908210611e9a57505060408051808201909152600681526529b4b63b32b960d11b602082015290565b60968210611ec457505060408051808201909152600681526542726f6e7a6560d01b602082015290565b5050604080518082019091526006815265526f6f6b696560d01b602082015290565b600080602060008451602086016000885af180611f09576040513d6000823e3d81fd5b50506000513d91508115611f21578060011415611f2e565b6001600160a01b0384163b155b15611b4257604051635274afe760e01b81526001600160a01b0385166004820152602401611916565b6000611f6b670de0b6b3a7640000846128a8565b905080600003611f79575060015b6001600160a01b0384166000908152600a602052604081208054839290611fa19084906128ca565b9091555060009050611fbb670de0b6b3a7640000846128a8565b905080600003611fc9575060015b6001600160a01b03851660009081526009602052604081208054839290611ff19084906128ca565b90915550506001600160a01b0385166000908152600a602052604081205461201890611e1a565b6001600160a01b038716600081815260096020908152604080832054600a9092529182902054915193945091927f4146a620f234be49686701963664655b5fb451997f8462f773d272d68f17043f9261207492909186906128dd565b60405180910390a2505050505050565b604051806101c0016040528060008152602001606081526020016060815260200160008152602001600060028111156120bf576120bf612452565b81526000602082018190526040820181905260608083018290526080830182905260a0830181905260c083015260e0820181905261010082018190526101209091015290565b60008083601f84011261211757600080fd5b5081356001600160401b0381111561212e57600080fd5b60208301915083602082850101111561214657600080fd5b9250929050565b60008060008060006060868803121561216557600080fd5b8535945060208601356001600160401b0381111561218257600080fd5b61218e88828901612105565b90955093505060408601356001600160401b038111156121ad57600080fd5b6121b988828901612105565b969995985093965092949392505050565b80356001600160401b03811681146121e157600080fd5b919050565b600080600080600080600060a0888a03121561220157600080fd5b8735965060208801356001600160401b0381111561221e57600080fd5b61222a8a828b01612105565b90975095505060408801356001600160401b0381111561224957600080fd5b6122558a828b01612105565b9095509350506060880135915061226e608089016121ca565b905092959891949750929550565b80356001600160a01b03811681146121e157600080fd5b6000602082840312156122a557600080fd5b6122ae8261227c565b9392505050565b6000602082840312156122c757600080fd5b5035919050565b602080825282518282018190526000918401906040840190835b818110156123065783518352602093840193909201916001016122e8565b509095945050505050565b600080600080600080600060a0888a03121561232c57600080fd5b87356001600160401b0381111561234257600080fd5b61234e8a828b01612105565b90985096505060208801356001600160401b0381111561236d57600080fd5b6123798a828b01612105565b9096509450506040880135925060608801356003811061239857600080fd5b915061226e608089016121ca565b803580151581146121e157600080fd5b600080604083850312156123c957600080fd5b823591506123d9602084016123a6565b90509250929050565b600080604083850312156123f557600080fd5b6123fe8361227c565b91506123d9602084016123a6565b6000815180845260005b8181101561243257602081850181015186830182015201612416565b506000602082860101526020601f19601f83011685010191505092915050565b634e487b7160e01b600052602160045260246000fd5b6003811061247857612478612452565b9052565b6006811061247857612478612452565b80518252600060208201516101c060208501526124ad6101c085018261240c565b9050604083015184820360408601526124c6828261240c565b9150506060830151606085015260808301516124e56080860182612468565b5060a083015161250060a08601826001600160401b03169052565b5060c083015161251b60c08601826001600160a01b03169052565b5060e083015161253660e08601826001600160a01b03169052565b5061010083015161254b61010086018261247c565b50610120830151848203610120860152612565828261240c565b915050610140830151848203610140860152612581828261240c565b91505061016083015161259961016086018215159052565b506101808301516125af61018086018215159052565b506101a08301516125c56101a086018215159052565b509392505050565b6000602082016020835280845180835260408501915060408160051b86010192506020860160005b8281101561262657603f1987860301845261261185835161248c565b945060209384019391909101906001016125f5565b50929695505050505050565b6020815260006122ae602083018461248c565b6000806040838503121561265857600080fd5b823591506123d96020840161227c565b60208152815160208201526020820151604082015260006040830151606080840152612697608084018261240c565b949350505050565b634e487b7160e01b600052604160045260246000fd5b600181811c908216806126c957607f821691505b6020821081036117fe57634e487b7160e01b600052602260045260246000fd5b601f821115611b7957806000526020600020601f840160051c810160208510156127105750805b601f840160051c820191505b81811015612730576000815560010161271c565b5050505050565b6001600160401b0383111561274e5761274e61269f565b6127628361275c83546126b5565b836126e9565b6000601f841160018114612796576000851561277e5750838201355b600019600387901b1c1916600186901b178355612730565b600083815260209020601f19861690835b828110156127c757868501358255602094850194600190920191016127a7565b50868210156127e45760001960f88860031b161c19848701351681555b505060018560011b0183555050505050565b60208152816020820152818360408301376000818301604090810191909152601f909201601f19160101919050565b634e487b7160e01b600052601160045260246000fd5b8181038181111561284e5761284e612825565b92915050565b60006001820161286657612866612825565b5060010190565b6020810161284e828461247c565b634e487b7160e01b600052603260045260246000fd5b808202811582820484141761284e5761284e612825565b6000826128c557634e487b7160e01b600052601260045260246000fd5b500490565b8082018082111561284e5761284e612825565b8381528260208201526060604082015260006128fc606083018461240c565b9594505050505056fea2646970667358221220a27cae9bfb4afd3c9dcb8ae08bd00d811e75fee021ffee95987b4667eb57ba5464736f6c634300081c0033",
          "opcodes": "PUSH1 0xA0 PUSH1 0x40 MSTORE CALLVALUE DUP1 ISZERO PUSH2 0x10 JUMPI PUSH1 0x0 DUP1 REVERT JUMPDEST POP PUSH1 0x40 MLOAD PUSH2 0x2B0E CODESIZE SUB DUP1 PUSH2 0x2B0E DUP4 CODECOPY DUP2 ADD PUSH1 0x40 DUP2 SWAP1 MSTORE PUSH2 0x2F SWAP2 PUSH2 0x144 JUMP JUMPDEST CALLER DUP1 PUSH2 0x55 JUMPI PUSH1 0x40 MLOAD PUSH4 0x1E4FBDF7 PUSH1 0xE0 SHL DUP2 MSTORE PUSH1 0x0 PUSH1 0x4 DUP3 ADD MSTORE PUSH1 0x24 ADD PUSH1 0x40 MLOAD DUP1 SWAP2 SUB SWAP1 REVERT JUMPDEST PUSH2 0x5E DUP2 PUSH2 0xDC JUMP JUMPDEST POP PUSH1 0x1 DUP1 SSTORE PUSH1 0x1 PUSH1 0x1 PUSH1 0xA0 SHL SUB DUP4 AND PUSH2 0x8A JUMPI PUSH1 0x40 MLOAD PUSH4 0xD6967FF9 PUSH1 0xE0 SHL DUP2 MSTORE PUSH1 0x4 ADD PUSH1 0x40 MLOAD DUP1 SWAP2 SUB SWAP1 REVERT JUMPDEST PUSH2 0x3E8 DUP2 GT ISZERO PUSH2 0xAD JUMPI PUSH1 0x40 MLOAD PUSH4 0x2332EAD PUSH1 0xE6 SHL DUP2 MSTORE PUSH1 0x4 ADD PUSH1 0x40 MLOAD DUP1 SWAP2 SUB SWAP1 REVERT JUMPDEST PUSH1 0x1 PUSH1 0x1 PUSH1 0xA0 SHL SUB SWAP3 DUP4 AND PUSH1 0x80 MSTORE PUSH1 0x2 DUP1 SLOAD PUSH1 0x1 PUSH1 0x1 PUSH1 0xA0 SHL SUB NOT AND SWAP3 SWAP1 SWAP4 AND SWAP2 SWAP1 SWAP2 OR SWAP1 SWAP2 SSTORE PUSH1 0x3 SSTORE PUSH2 0x187 JUMP JUMPDEST PUSH1 0x0 DUP1 SLOAD PUSH1 0x1 PUSH1 0x1 PUSH1 0xA0 SHL SUB DUP4 DUP2 AND PUSH1 0x1 PUSH1 0x1 PUSH1 0xA0 SHL SUB NOT DUP4 AND DUP2 OR DUP5 SSTORE PUSH1 0x40 MLOAD SWAP2 SWAP1 SWAP3 AND SWAP3 DUP4 SWAP2 PUSH32 0x8BE0079C531659141344CD1FD0A4F28419497F9722A3DAAFE3B4186F6B6457E0 SWAP2 SWAP1 LOG3 POP POP JUMP JUMPDEST PUSH1 0x1 PUSH1 0x1 PUSH1 0xA0 SHL SUB DUP2 AND DUP2 EQ PUSH2 0x141 JUMPI PUSH1 0x0 DUP1 REVERT JUMPDEST POP JUMP JUMPDEST PUSH1 0x0 DUP1 PUSH1 0x0 PUSH1 0x60 DUP5 DUP7 SUB SLT ISZERO PUSH2 0x159 JUMPI PUSH1 0x0 DUP1 REVERT JUMPDEST DUP4 MLOAD PUSH2 0x164 DUP2 PUSH2 0x12C JUMP JUMPDEST PUSH1 0x20 DUP6 ADD MLOAD SWAP1 SWAP4 POP PUSH2 0x175 DUP2 PUSH2 0x12C JUMP JUMPDEST DUP1 SWAP3 POP POP PUSH1 0x40 DUP5 ADD MLOAD SWAP1 POP SWAP3 POP SWAP3 POP SWAP3 JUMP JUMPDEST PUSH1 0x80 MLOAD PUSH2 0x293B PUSH2 0x1D3 PUSH1 0x0 CODECOPY PUSH1 0x0 DUP2 DUP2 PUSH2 0x2DA ADD MSTORE DUP2 DUP2 PUSH2 0x690 ADD MSTORE DUP2 DUP2 PUSH2 0x6EB ADD MSTORE DUP2 DUP2 PUSH2 0xBC1 ADD MSTORE DUP2 DUP2 PUSH2 0x1A49 ADD MSTORE DUP2 DUP2 PUSH2 0x1C4A ADD MSTORE DUP2 DUP2 PUSH2 0x1D4C ADD MSTORE PUSH2 0x1D88 ADD MSTORE PUSH2 0x293B PUSH1 0x0 RETURN INVALID PUSH1 0x80 PUSH1 0x40 MSTORE CALLVALUE DUP1 ISZERO PUSH2 0x10 JUMPI PUSH1 0x0 DUP1 REVERT JUMPDEST POP PUSH1 0x4 CALLDATASIZE LT PUSH2 0x158 JUMPI PUSH1 0x0 CALLDATALOAD PUSH1 0xE0 SHR DUP1 PUSH4 0x8DA5CB5B GT PUSH2 0xC3 JUMPI DUP1 PUSH4 0xB0F929B0 GT PUSH2 0x7C JUMPI DUP1 PUSH4 0xB0F929B0 EQ PUSH2 0x30F JUMPI DUP1 PUSH4 0xB4D884F6 EQ PUSH2 0x32F JUMPI DUP1 PUSH4 0xBACCBFDB EQ PUSH2 0x342 JUMPI DUP1 PUSH4 0xE503BB05 EQ PUSH2 0x362 JUMPI DUP1 PUSH4 0xF2FDE38B EQ PUSH2 0x382 JUMPI DUP1 PUSH4 0xFE90FF7D EQ PUSH2 0x395 JUMPI PUSH1 0x0 DUP1 REVERT JUMPDEST DUP1 PUSH4 0x8DA5CB5B EQ PUSH2 0x289 JUMPI DUP1 PUSH4 0x8F060361 EQ PUSH2 0x29A JUMPI DUP1 PUSH4 0x9E86B057 EQ PUSH2 0x2AD JUMPI DUP1 PUSH4 0xA047A000 EQ PUSH2 0x2C0 JUMPI DUP1 PUSH4 0xA9D75B2B EQ PUSH2 0x2D5 JUMPI DUP1 PUSH4 0xAE169A50 EQ PUSH2 0x2FC JUMPI PUSH1 0x0 DUP1 REVERT JUMPDEST DUP1 PUSH4 0x4E08DAB0 GT PUSH2 0x115 JUMPI DUP1 PUSH4 0x4E08DAB0 EQ PUSH2 0x1FF JUMPI DUP1 PUSH4 0x4F351884 EQ PUSH2 0x21F JUMPI DUP1 PUSH4 0x55232467 EQ PUSH2 0x232 JUMPI DUP1 PUSH4 0x560483C7 EQ PUSH2 0x265 JUMPI DUP1 PUSH4 0x715018A6 EQ PUSH2 0x278 JUMPI DUP1 PUSH4 0x7D7591F0 EQ PUSH2 0x280 JUMPI PUSH1 0x0 DUP1 REVERT JUMPDEST DUP1 PUSH4 0x7F4F284 EQ PUSH2 0x15D JUMPI DUP1 PUSH4 0xF373D41 EQ PUSH2 0x172 JUMPI DUP1 PUSH4 0x12E0B1B6 EQ PUSH2 0x185 JUMPI DUP1 PUSH4 0x139F399A EQ PUSH2 0x1B8 JUMPI DUP1 PUSH4 0x22DCD13E EQ PUSH2 0x1CB JUMPI DUP1 PUSH4 0x46904840 EQ PUSH2 0x1D4 JUMPI JUMPDEST PUSH1 0x0 DUP1 REVERT JUMPDEST PUSH2 0x170 PUSH2 0x16B CALLDATASIZE PUSH1 0x4 PUSH2 0x214D JUMP JUMPDEST PUSH2 0x3A8 JUMP JUMPDEST STOP JUMPDEST PUSH2 0x170 PUSH2 0x180 CALLDATASIZE PUSH1 0x4 PUSH2 0x21E6 JUMP JUMPDEST PUSH2 0x539 JUMP JUMPDEST PUSH2 0x1A5 PUSH2 0x193 CALLDATASIZE PUSH1 0x4 PUSH2 0x2293 JUMP JUMPDEST PUSH1 0xA PUSH1 0x20 MSTORE PUSH1 0x0 SWAP1 DUP2 MSTORE PUSH1 0x40 SWAP1 KECCAK256 SLOAD DUP2 JUMP JUMPDEST PUSH1 0x40 MLOAD SWAP1 DUP2 MSTORE PUSH1 0x20 ADD JUMPDEST PUSH1 0x40 MLOAD DUP1 SWAP2 SUB SWAP1 RETURN JUMPDEST PUSH2 0x170 PUSH2 0x1C6 CALLDATASIZE PUSH1 0x4 PUSH2 0x22B5 JUMP JUMPDEST PUSH2 0x79F JUMP JUMPDEST PUSH2 0x1A5 PUSH1 0x3 SLOAD DUP2 JUMP JUMPDEST PUSH1 0x2 SLOAD PUSH2 0x1E7 SWAP1 PUSH1 0x1 PUSH1 0x1 PUSH1 0xA0 SHL SUB AND DUP2 JUMP JUMPDEST PUSH1 0x40 MLOAD PUSH1 0x1 PUSH1 0x1 PUSH1 0xA0 SHL SUB SWAP1 SWAP2 AND DUP2 MSTORE PUSH1 0x20 ADD PUSH2 0x1AF JUMP JUMPDEST PUSH2 0x212 PUSH2 0x20D CALLDATASIZE PUSH1 0x4 PUSH2 0x2293 JUMP JUMPDEST PUSH2 0x92A JUMP JUMPDEST PUSH1 0x40 MLOAD PUSH2 0x1AF SWAP2 SWAP1 PUSH2 0x22CE JUMP JUMPDEST PUSH2 0x212 PUSH2 0x22D CALLDATASIZE PUSH1 0x4 PUSH2 0x2293 JUMP JUMPDEST PUSH2 0x996 JUMP JUMPDEST PUSH2 0x255 PUSH2 0x240 CALLDATASIZE PUSH1 0x4 PUSH2 0x2293 JUMP JUMPDEST PUSH1 0x6 PUSH1 0x20 MSTORE PUSH1 0x0 SWAP1 DUP2 MSTORE PUSH1 0x40 SWAP1 KECCAK256 SLOAD PUSH1 0xFF AND DUP2 JUMP JUMPDEST PUSH1 0x40 MLOAD SWAP1 ISZERO ISZERO DUP2 MSTORE PUSH1 0x20 ADD PUSH2 0x1AF JUMP JUMPDEST PUSH2 0x1A5 PUSH2 0x273 CALLDATASIZE PUSH1 0x4 PUSH2 0x2311 JUMP JUMPDEST PUSH2 0xA00 JUMP JUMPDEST PUSH2 0x170 PUSH2 0xC55 JUMP JUMPDEST PUSH2 0x1A5 PUSH1 0x4 SLOAD DUP2 JUMP JUMPDEST PUSH1 0x0 SLOAD PUSH1 0x1 PUSH1 0x1 PUSH1 0xA0 SHL SUB AND PUSH2 0x1E7 JUMP JUMPDEST PUSH2 0x170 PUSH2 0x2A8 CALLDATASIZE PUSH1 0x4 PUSH2 0x23B6 JUMP JUMPDEST PUSH2 0xC69 JUMP JUMPDEST PUSH2 0x170 PUSH2 0x2BB CALLDATASIZE PUSH1 0x4 PUSH2 0x23E2 JUMP JUMPDEST PUSH2 0xE35 JUMP JUMPDEST PUSH2 0x2C8 PUSH2 0xE9D JUMP JUMPDEST PUSH1 0x40 MLOAD PUSH2 0x1AF SWAP2 SWAP1 PUSH2 0x25CD JUMP JUMPDEST PUSH2 0x1E7 PUSH32 0x0 DUP2 JUMP JUMPDEST PUSH2 0x170 PUSH2 0x30A CALLDATASIZE PUSH1 0x4 PUSH2 0x22B5 JUMP JUMPDEST PUSH2 0x1366 JUMP JUMPDEST PUSH2 0x322 PUSH2 0x31D CALLDATASIZE PUSH1 0x4 PUSH2 0x22B5 JUMP JUMPDEST PUSH2 0x1470 JUMP JUMPDEST PUSH1 0x40 MLOAD PUSH2 0x1AF SWAP2 SWAP1 PUSH2 0x2632 JUMP JUMPDEST PUSH2 0x170 PUSH2 0x33D CALLDATASIZE PUSH1 0x4 PUSH2 0x2645 JUMP JUMPDEST PUSH2 0x1804 JUMP JUMPDEST PUSH2 0x355 PUSH2 0x350 CALLDATASIZE PUSH1 0x4 PUSH2 0x2293 JUMP JUMPDEST PUSH2 0x1882 JUMP JUMPDEST PUSH1 0x40 MLOAD PUSH2 0x1AF SWAP2 SWAP1 PUSH2 0x2668 JUMP JUMPDEST PUSH2 0x1A5 PUSH2 0x370 CALLDATASIZE PUSH1 0x4 PUSH2 0x2293 JUMP JUMPDEST PUSH1 0x9 PUSH1 0x20 MSTORE PUSH1 0x0 SWAP1 DUP2 MSTORE PUSH1 0x40 SWAP1 KECCAK256 SLOAD DUP2 JUMP JUMPDEST PUSH2 0x170 PUSH2 0x390 CALLDATASIZE PUSH1 0x4 PUSH2 0x2293 JUMP JUMPDEST PUSH2 0x18E8 JUMP JUMPDEST PUSH2 0x170 PUSH2 0x3A3 CALLDATASIZE PUSH1 0x4 PUSH2 0x22B5 JUMP JUMPDEST PUSH2 0x1928 JUMP JUMPDEST PUSH1 0x0 DUP6 DUP2 MSTORE PUSH1 0x5 PUSH1 0x20 MSTORE PUSH1 0x40 SWAP1 KECCAK256 PUSH1 0x8 ADD SLOAD DUP6 SWAP1 PUSH1 0xFF AND PUSH2 0x3DC JUMPI PUSH1 0x40 MLOAD PUSH4 0xD6967FF9 PUSH1 0xE0 SHL DUP2 MSTORE PUSH1 0x4 ADD PUSH1 0x40 MLOAD DUP1 SWAP2 SUB SWAP1 REVERT JUMPDEST PUSH1 0x0 DUP7 DUP2 MSTORE PUSH1 0x5 PUSH1 0x20 DUP2 SWAP1 MSTORE PUSH1 0x40 SWAP1 SWAP2 KECCAK256 ADD SLOAD DUP7 SWAP1 PUSH1 0x1 PUSH1 0x1 PUSH1 0xA0 SHL SUB AND CALLER EQ PUSH2 0x419 JUMPI PUSH1 0x40 MLOAD PUSH4 0xE4B4E61B PUSH1 0xE0 SHL DUP2 MSTORE PUSH1 0x4 ADD PUSH1 0x40 MLOAD DUP1 SWAP2 SUB SWAP1 REVERT JUMPDEST PUSH1 0x0 DUP8 DUP2 MSTORE PUSH1 0x5 PUSH1 0x20 MSTORE PUSH1 0x40 SWAP1 KECCAK256 PUSH1 0x1 PUSH1 0x5 DUP3 DUP2 ADD SLOAD PUSH1 0x1 PUSH1 0xA0 SHL SWAP1 DIV PUSH1 0xFF AND SWAP1 DUP2 GT ISZERO PUSH2 0x449 JUMPI PUSH2 0x449 PUSH2 0x2452 JUMP JUMPDEST EQ PUSH2 0x467 JUMPI PUSH1 0x40 MLOAD PUSH4 0x4E2DFFB7 PUSH1 0xE0 SHL DUP2 MSTORE PUSH1 0x4 ADD PUSH1 0x40 MLOAD DUP1 SWAP2 SUB SWAP1 REVERT JUMPDEST PUSH1 0x4 DUP2 ADD SLOAD TIMESTAMP PUSH2 0x100 SWAP1 SWAP2 DIV PUSH1 0x1 PUSH1 0x1 PUSH1 0x40 SHL SUB AND GT PUSH2 0x49A JUMPI PUSH1 0x40 MLOAD PUSH4 0x44D3875D PUSH1 0xE1 SHL DUP2 MSTORE PUSH1 0x4 ADD PUSH1 0x40 MLOAD DUP1 SWAP2 SUB SWAP1 REVERT JUMPDEST PUSH1 0x0 DUP7 SWAP1 SUB PUSH2 0x4BC JUMPI PUSH1 0x40 MLOAD PUSH4 0xD6967FF9 PUSH1 0xE0 SHL DUP2 MSTORE PUSH1 0x4 ADD PUSH1 0x40 MLOAD DUP1 SWAP2 SUB SWAP1 REVERT JUMPDEST PUSH1 0x6 DUP2 ADD PUSH2 0x4CB DUP8 DUP10 DUP4 PUSH2 0x2737 JUMP JUMPDEST POP PUSH1 0x7 DUP2 ADD PUSH2 0x4DB DUP6 DUP8 DUP4 PUSH2 0x2737 JUMP JUMPDEST POP PUSH1 0x5 DUP2 ADD DUP1 SLOAD PUSH1 0xFF PUSH1 0xA0 SHL NOT AND PUSH1 0x1 PUSH1 0xA1 SHL OR SWAP1 SSTORE PUSH1 0x40 MLOAD CALLER SWAP1 DUP10 SWAP1 PUSH32 0xDF0B8B552AC9CFD0F5A27F0179D7E90A6B2C142548C0F9EE92CCEEBDAF36C286 SWAP1 PUSH2 0x527 SWAP1 DUP12 SWAP1 DUP12 SWAP1 PUSH2 0x27F6 JUMP JUMPDEST PUSH1 0x40 MLOAD DUP1 SWAP2 SUB SWAP1 LOG3 POP POP POP POP POP POP POP POP JUMP JUMPDEST PUSH2 0x541 PUSH2 0x1AB1 JUMP JUMPDEST PUSH1 0x0 DUP8 DUP2 MSTORE PUSH1 0x5 PUSH1 0x20 MSTORE PUSH1 0x40 SWAP1 KECCAK256 PUSH1 0x8 ADD SLOAD DUP8 SWAP1 PUSH1 0xFF AND PUSH2 0x575 JUMPI PUSH1 0x40 MLOAD PUSH4 0xD6967FF9 PUSH1 0xE0 SHL DUP2 MSTORE PUSH1 0x4 ADD PUSH1 0x40 MLOAD DUP1 SWAP2 SUB SWAP1 REVERT JUMPDEST PUSH1 0x0 DUP9 DUP2 MSTORE PUSH1 0x5 PUSH1 0x20 MSTORE PUSH1 0x40 SWAP1 KECCAK256 PUSH1 0x4 ADD SLOAD DUP9 SWAP1 PUSH1 0x1 PUSH1 0x48 SHL SWAP1 DIV PUSH1 0x1 PUSH1 0x1 PUSH1 0xA0 SHL SUB AND CALLER EQ PUSH2 0x5B8 JUMPI PUSH1 0x40 MLOAD PUSH4 0xB44924CB PUSH1 0xE0 SHL DUP2 MSTORE PUSH1 0x4 ADD PUSH1 0x40 MLOAD DUP1 SWAP2 SUB SWAP1 REVERT JUMPDEST PUSH1 0x0 DUP10 DUP2 MSTORE PUSH1 0x5 PUSH1 0x20 MSTORE PUSH1 0x40 DUP2 KECCAK256 SWAP1 PUSH1 0x5 DUP3 DUP2 ADD SLOAD PUSH1 0x1 PUSH1 0xA0 SHL SWAP1 DIV PUSH1 0xFF AND SWAP1 DUP2 GT ISZERO PUSH2 0x5E7 JUMPI PUSH2 0x5E7 PUSH2 0x2452 JUMP JUMPDEST EQ PUSH2 0x605 JUMPI PUSH1 0x40 MLOAD PUSH4 0x4E2DFFB7 PUSH1 0xE0 SHL DUP2 MSTORE PUSH1 0x4 ADD PUSH1 0x40 MLOAD DUP1 SWAP2 SUB SWAP1 REVERT JUMPDEST TIMESTAMP DUP5 PUSH1 0x1 PUSH1 0x1 PUSH1 0x40 SHL SUB AND GT PUSH2 0x62E JUMPI PUSH1 0x40 MLOAD PUSH4 0x44D3875D PUSH1 0xE1 SHL DUP2 MSTORE PUSH1 0x4 ADD PUSH1 0x40 MLOAD DUP1 SWAP2 SUB SWAP1 REVERT JUMPDEST DUP1 PUSH1 0x3 ADD SLOAD DUP6 EQ PUSH2 0x71C JUMPI PUSH1 0x8 DUP2 ADD SLOAD PUSH2 0x100 SWAP1 DIV PUSH1 0xFF AND PUSH2 0x663 JUMPI PUSH1 0x40 MLOAD PUSH4 0x1119A5DF PUSH1 0xE3 SHL DUP2 MSTORE PUSH1 0x4 ADD PUSH1 0x40 MLOAD DUP1 SWAP2 SUB SWAP1 REVERT JUMPDEST DUP1 PUSH1 0x3 ADD SLOAD DUP6 GT ISZERO PUSH2 0x6BE JUMPI PUSH1 0x0 DUP2 PUSH1 0x3 ADD SLOAD DUP7 PUSH2 0x681 SWAP2 SWAP1 PUSH2 0x283B JUMP JUMPDEST SWAP1 POP PUSH2 0x6B8 PUSH1 0x1 PUSH1 0x1 PUSH1 0xA0 SHL SUB PUSH32 0x0 AND CALLER ADDRESS DUP5 PUSH2 0x1ADB JUMP JUMPDEST POP PUSH2 0x714 JUMP JUMPDEST DUP1 PUSH1 0x3 ADD SLOAD DUP6 LT ISZERO PUSH2 0x714 JUMPI PUSH1 0x0 DUP6 DUP3 PUSH1 0x3 ADD SLOAD PUSH2 0x6DC SWAP2 SWAP1 PUSH2 0x283B JUMP JUMPDEST SWAP1 POP PUSH2 0x712 PUSH1 0x1 PUSH1 0x1 PUSH1 0xA0 SHL SUB PUSH32 0x0 AND CALLER DUP4 PUSH2 0x1B48 JUMP JUMPDEST POP JUMPDEST PUSH1 0x3 DUP2 ADD DUP6 SWAP1 SSTORE JUMPDEST PUSH1 0x1 DUP2 ADD PUSH2 0x72B DUP10 DUP12 DUP4 PUSH2 0x2737 JUMP JUMPDEST POP PUSH1 0x2 DUP2 ADD PUSH2 0x73B DUP8 DUP10 DUP4 PUSH2 0x2737 JUMP JUMPDEST POP PUSH1 0x4 DUP2 ADD DUP1 SLOAD PUSH9 0xFFFFFFFFFFFFFFFF00 NOT AND PUSH2 0x100 PUSH1 0x1 PUSH1 0x1 PUSH1 0x40 SHL SUB DUP8 AND MUL OR SWAP1 SSTORE PUSH1 0x40 MLOAD DUP11 SWAP1 PUSH32 0xE2535F2C1E4708DDAF426A1BF41884B74D371BD9BCBC59C257AE5F75811FFAE5 SWAP1 PUSH1 0x0 SWAP1 LOG2 POP POP POP PUSH2 0x796 PUSH1 0x1 DUP1 SSTORE JUMP JUMPDEST POP POP POP POP POP POP POP JUMP JUMPDEST PUSH1 0x0 DUP2 DUP2 MSTORE PUSH1 0x5 PUSH1 0x20 MSTORE PUSH1 0x40 SWAP1 KECCAK256 PUSH1 0x8 ADD SLOAD DUP2 SWAP1 PUSH1 0xFF AND PUSH2 0x7D3 JUMPI PUSH1 0x40 MLOAD PUSH4 0xD6967FF9 PUSH1 0xE0 SHL DUP2 MSTORE PUSH1 0x4 ADD PUSH1 0x40 MLOAD DUP1 SWAP2 SUB SWAP1 REVERT JUMPDEST PUSH1 0x0 DUP3 DUP2 MSTORE PUSH1 0x5 PUSH1 0x20 MSTORE PUSH1 0x40 DUP2 KECCAK256 SWAP1 PUSH1 0x5 DUP3 DUP2 ADD SLOAD PUSH1 0x1 PUSH1 0xA0 SHL SWAP1 DIV PUSH1 0xFF AND SWAP1 DUP2 GT ISZERO PUSH2 0x802 JUMPI PUSH2 0x802 PUSH2 0x2452 JUMP JUMPDEST EQ PUSH2 0x820 JUMPI PUSH1 0x40 MLOAD PUSH4 0x4E2DFFB7 PUSH1 0xE0 SHL DUP2 MSTORE PUSH1 0x4 ADD PUSH1 0x40 MLOAD DUP1 SWAP2 SUB SWAP1 REVERT JUMPDEST PUSH1 0x4 DUP2 ADD SLOAD CALLER PUSH1 0x1 PUSH1 0x48 SHL SWAP1 SWAP2 DIV PUSH1 0x1 PUSH1 0x1 PUSH1 0xA0 SHL SUB AND SUB PUSH2 0x855 JUMPI PUSH1 0x40 MLOAD PUSH4 0x26670235 PUSH1 0xE2 SHL DUP2 MSTORE PUSH1 0x4 ADD PUSH1 0x40 MLOAD DUP1 SWAP2 SUB SWAP1 REVERT JUMPDEST PUSH1 0x4 DUP2 ADD SLOAD TIMESTAMP PUSH2 0x100 SWAP1 SWAP2 DIV PUSH1 0x1 PUSH1 0x1 PUSH1 0x40 SHL SUB AND GT PUSH2 0x888 JUMPI PUSH1 0x40 MLOAD PUSH4 0x44D3875D PUSH1 0xE1 SHL DUP2 MSTORE PUSH1 0x4 ADD PUSH1 0x40 MLOAD DUP1 SWAP2 SUB SWAP1 REVERT JUMPDEST PUSH1 0x5 DUP2 ADD SLOAD PUSH1 0x1 PUSH1 0x1 PUSH1 0xA0 SHL SUB AND ISZERO PUSH2 0x8B4 JUMPI PUSH1 0x40 MLOAD PUSH4 0x52809F43 PUSH1 0xE1 SHL DUP2 MSTORE PUSH1 0x4 ADD PUSH1 0x40 MLOAD DUP1 SWAP2 SUB SWAP1 REVERT JUMPDEST PUSH1 0x5 DUP2 ADD DUP1 SLOAD PUSH1 0x1 PUSH1 0x1 PUSH1 0xA8 SHL SUB NOT AND CALLER PUSH1 0xFF PUSH1 0xA0 SHL NOT DUP2 AND SWAP2 SWAP1 SWAP2 OR PUSH1 0x1 PUSH1 0xA0 SHL OR SWAP1 SWAP2 SSTORE PUSH1 0x0 DUP2 DUP2 MSTORE PUSH1 0x7 PUSH1 0x20 SWAP1 DUP2 MSTORE PUSH1 0x40 DUP1 DUP4 KECCAK256 DUP1 SLOAD PUSH1 0x1 DUP2 ADD DUP3 SSTORE SWAP1 DUP5 MSTORE SWAP2 DUP4 KECCAK256 SWAP1 SWAP2 ADD DUP7 SWAP1 SSTORE MLOAD DUP6 SWAP2 PUSH32 0x7D422F3E3149564CF96CFEAB23AE433B6B1D7259C2873096244209F9B40BEFEE SWAP2 LOG3 POP POP POP JUMP JUMPDEST PUSH1 0x1 PUSH1 0x1 PUSH1 0xA0 SHL SUB DUP2 AND PUSH1 0x0 SWAP1 DUP2 MSTORE PUSH1 0x7 PUSH1 0x20 SWAP1 DUP2 MSTORE PUSH1 0x40 SWAP2 DUP3 SWAP1 KECCAK256 DUP1 SLOAD DUP4 MLOAD DUP2 DUP5 MUL DUP2 ADD DUP5 ADD SWAP1 SWAP5 MSTORE DUP1 DUP5 MSTORE PUSH1 0x60 SWAP4 SWAP3 DUP4 ADD DUP3 DUP3 DUP1 ISZERO PUSH2 0x98A JUMPI PUSH1 0x20 MUL DUP3 ADD SWAP2 SWAP1 PUSH1 0x0 MSTORE PUSH1 0x20 PUSH1 0x0 KECCAK256 SWAP1 JUMPDEST DUP2 SLOAD DUP2 MSTORE PUSH1 0x20 ADD SWAP1 PUSH1 0x1 ADD SWAP1 DUP1 DUP4 GT PUSH2 0x976 JUMPI JUMPDEST POP POP POP POP POP SWAP1 POP SWAP2 SWAP1 POP JUMP JUMPDEST PUSH1 0x1 PUSH1 0x1 PUSH1 0xA0 SHL SUB DUP2 AND PUSH1 0x0 SWAP1 DUP2 MSTORE PUSH1 0x8 PUSH1 0x20 SWAP1 DUP2 MSTORE PUSH1 0x40 SWAP2 DUP3 SWAP1 KECCAK256 DUP1 SLOAD DUP4 MLOAD DUP2 DUP5 MUL DUP2 ADD DUP5 ADD SWAP1 SWAP5 MSTORE DUP1 DUP5 MSTORE PUSH1 0x60 SWAP4 SWAP3 DUP4 ADD DUP3 DUP3 DUP1 ISZERO PUSH2 0x98A JUMPI PUSH1 0x20 MUL DUP3 ADD SWAP2 SWAP1 PUSH1 0x0 MSTORE PUSH1 0x20 PUSH1 0x0 KECCAK256 SWAP1 DUP2 SLOAD DUP2 MSTORE PUSH1 0x20 ADD SWAP1 PUSH1 0x1 ADD SWAP1 DUP1 DUP4 GT PUSH2 0x976 JUMPI POP POP POP POP POP SWAP1 POP SWAP2 SWAP1 POP JUMP JUMPDEST PUSH1 0x0 PUSH2 0xA0A PUSH2 0x1AB1 JUMP JUMPDEST PUSH1 0x0 DUP8 SWAP1 SUB PUSH2 0xA2C JUMPI PUSH1 0x40 MLOAD PUSH4 0xD6967FF9 PUSH1 0xE0 SHL DUP2 MSTORE PUSH1 0x4 ADD PUSH1 0x40 MLOAD DUP1 SWAP2 SUB SWAP1 REVERT JUMPDEST DUP4 PUSH1 0x0 SUB PUSH2 0xA4D JUMPI PUSH1 0x40 MLOAD PUSH4 0xD6967FF9 PUSH1 0xE0 SHL DUP2 MSTORE PUSH1 0x4 ADD PUSH1 0x40 MLOAD DUP1 SWAP2 SUB SWAP1 REVERT JUMPDEST TIMESTAMP DUP3 PUSH1 0x1 PUSH1 0x1 PUSH1 0x40 SHL SUB AND GT PUSH2 0xA76 JUMPI PUSH1 0x40 MLOAD PUSH4 0x44D3875D PUSH1 0xE1 SHL DUP2 MSTORE PUSH1 0x4 ADD PUSH1 0x40 MLOAD DUP1 SWAP2 SUB SWAP1 REVERT JUMPDEST PUSH1 0x2 DUP4 DUP2 DUP2 GT ISZERO PUSH2 0xA89 JUMPI PUSH2 0xA89 PUSH2 0x2452 JUMP JUMPDEST PUSH1 0xFF AND GT ISZERO PUSH2 0xAAB JUMPI PUSH1 0x40 MLOAD PUSH4 0x1158A6A7 PUSH1 0xE3 SHL DUP2 MSTORE PUSH1 0x4 ADD PUSH1 0x40 MLOAD DUP1 SWAP2 SUB SWAP1 REVERT JUMPDEST PUSH1 0x4 PUSH1 0x0 DUP2 SLOAD PUSH2 0xABA SWAP1 PUSH2 0x2854 JUMP JUMPDEST SWAP2 DUP3 SWAP1 SSTORE POP PUSH1 0x0 DUP2 DUP2 MSTORE PUSH1 0x5 PUSH1 0x20 MSTORE PUSH1 0x40 SWAP1 KECCAK256 DUP2 DUP2 SSTORE SWAP1 SWAP2 POP PUSH1 0x1 DUP2 ADD PUSH2 0xAE2 DUP10 DUP12 DUP4 PUSH2 0x2737 JUMP JUMPDEST POP PUSH1 0x2 DUP2 ADD PUSH2 0xAF2 DUP8 DUP10 DUP4 PUSH2 0x2737 JUMP JUMPDEST POP PUSH1 0x3 DUP2 ADD DUP6 SWAP1 SSTORE PUSH1 0x4 DUP2 ADD DUP1 SLOAD DUP6 SWAP2 SWAP1 PUSH1 0xFF NOT AND PUSH1 0x1 DUP4 PUSH1 0x2 DUP2 GT ISZERO PUSH2 0xB1B JUMPI PUSH2 0xB1B PUSH2 0x2452 JUMP JUMPDEST MUL OR SWAP1 SSTORE POP PUSH1 0x4 DUP2 ADD DUP1 SLOAD PUSH2 0x100 PUSH1 0x1 PUSH1 0xE8 SHL SUB NOT AND PUSH2 0x100 PUSH1 0x1 PUSH1 0x1 PUSH1 0x40 SHL SUB DUP7 AND MUL PUSH32 0xFFFFFF0000000000000000000000000000000000000000FFFFFFFFFFFFFFFFFF AND OR CALLER PUSH1 0x1 PUSH1 0x48 SHL MUL OR SWAP1 SSTORE PUSH1 0x5 DUP2 ADD DUP1 SLOAD PUSH1 0x0 SWAP2 SWAP1 PUSH1 0xFF PUSH1 0xA0 SHL NOT AND PUSH1 0x1 PUSH1 0xA0 SHL DUP4 MUL OR SWAP1 SSTORE POP PUSH1 0x8 DUP1 DUP3 ADD DUP1 SLOAD PUSH1 0xFF NOT AND PUSH1 0x1 SWAP1 DUP2 OR SWAP1 SWAP2 SSTORE CALLER PUSH1 0x0 DUP2 DUP2 MSTORE PUSH1 0x20 SWAP4 DUP5 MSTORE PUSH1 0x40 DUP2 KECCAK256 DUP1 SLOAD SWAP4 DUP5 ADD DUP2 SSTORE DUP2 MSTORE SWAP3 SWAP1 SWAP3 KECCAK256 ADD DUP4 SWAP1 SSTORE PUSH2 0xBF1 SWAP1 PUSH32 0x0 PUSH1 0x1 PUSH1 0x1 PUSH1 0xA0 SHL SUB AND SWAP1 ADDRESS DUP9 PUSH2 0x1ADB JUMP JUMPDEST PUSH1 0x8 DUP2 ADD DUP1 SLOAD PUSH2 0xFF00 NOT AND PUSH2 0x100 OR SWAP1 SSTORE PUSH1 0x40 MLOAD CALLER SWAP1 DUP4 SWAP1 PUSH32 0x8611AB57BC82CBA189EFE93ED2768CA2AEE3CFBFF8227866A8B3400D0D14ED06 SWAP1 PUSH2 0xC38 SWAP1 DUP10 DUP2 MSTORE PUSH1 0x20 ADD SWAP1 JUMP JUMPDEST PUSH1 0x40 MLOAD DUP1 SWAP2 SUB SWAP1 LOG3 POP PUSH2 0xC4A PUSH1 0x1 DUP1 SSTORE JUMP JUMPDEST SWAP8 SWAP7 POP POP POP POP POP POP POP JUMP JUMPDEST PUSH2 0xC5D PUSH2 0x1B7E JUMP JUMPDEST PUSH2 0xC67 PUSH1 0x0 PUSH2 0x1BAB JUMP JUMPDEST JUMP JUMPDEST PUSH2 0xC71 PUSH2 0x1AB1 JUMP JUMPDEST PUSH1 0x0 DUP3 DUP2 MSTORE PUSH1 0x5 PUSH1 0x20 MSTORE PUSH1 0x40 SWAP1 KECCAK256 PUSH1 0x8 ADD SLOAD DUP3 SWAP1 PUSH1 0xFF AND PUSH2 0xCA5 JUMPI PUSH1 0x40 MLOAD PUSH4 0xD6967FF9 PUSH1 0xE0 SHL DUP2 MSTORE PUSH1 0x4 ADD PUSH1 0x40 MLOAD DUP1 SWAP2 SUB SWAP1 REVERT JUMPDEST PUSH1 0x0 DUP4 DUP2 MSTORE PUSH1 0x5 PUSH1 0x20 MSTORE PUSH1 0x40 SWAP1 KECCAK256 PUSH1 0x2 PUSH1 0x5 DUP3 DUP2 ADD SLOAD PUSH1 0x1 PUSH1 0xA0 SHL SWAP1 DIV PUSH1 0xFF AND SWAP1 DUP2 GT ISZERO PUSH2 0xCD5 JUMPI PUSH2 0xCD5 PUSH2 0x2452 JUMP JUMPDEST EQ PUSH2 0xCF3 JUMPI PUSH1 0x40 MLOAD PUSH4 0x4E2DFFB7 PUSH1 0xE0 SHL DUP2 MSTORE PUSH1 0x4 ADD PUSH1 0x40 MLOAD DUP1 SWAP2 SUB SWAP1 REVERT JUMPDEST PUSH1 0x4 DUP2 ADD SLOAD PUSH1 0x1 PUSH1 0x48 SHL SWAP1 DIV PUSH1 0x1 PUSH1 0x1 PUSH1 0xA0 SHL SUB AND CALLER EQ DUP1 ISZERO SWAP1 PUSH2 0xD22 JUMPI POP PUSH1 0x0 SLOAD PUSH1 0x1 PUSH1 0x1 PUSH1 0xA0 SHL SUB AND CALLER EQ ISZERO JUMPDEST ISZERO PUSH2 0xD40 JUMPI PUSH1 0x40 MLOAD PUSH4 0x26670235 PUSH1 0xE2 SHL DUP2 MSTORE PUSH1 0x4 ADD PUSH1 0x40 MLOAD DUP1 SWAP2 SUB SWAP1 REVERT JUMPDEST DUP3 ISZERO PUSH2 0xDB3 JUMPI PUSH1 0x5 DUP2 ADD DUP1 SLOAD PUSH1 0xFF PUSH1 0xA0 SHL NOT DUP2 AND PUSH1 0x3 PUSH1 0xA0 SHL OR SWAP2 DUP3 SWAP1 SSTORE PUSH1 0x40 MLOAD PUSH1 0x1 PUSH1 0x1 PUSH1 0xA0 SHL SUB SWAP1 SWAP2 AND SWAP2 DUP7 SWAP2 PUSH32 0xB7E370342196B323C20AA611000555179B5BBAAEEB1E287AA812B032F58AAC41 SWAP2 PUSH2 0xDA6 SWAP2 PUSH1 0x1 PUSH1 0xA0 SHL SWAP1 SWAP2 DIV PUSH1 0xFF AND SWAP1 PUSH2 0x286D JUMP JUMPDEST PUSH1 0x40 MLOAD DUP1 SWAP2 SUB SWAP1 LOG3 PUSH2 0xE26 JUMP JUMPDEST PUSH1 0x5 DUP2 ADD DUP1 SLOAD PUSH1 0xFF PUSH1 0xA0 SHL NOT AND PUSH1 0x1 PUSH1 0xA2 SHL OR SWAP1 SSTORE PUSH2 0xDD1 DUP2 PUSH2 0x1BFB JUMP JUMPDEST PUSH1 0x5 DUP2 ADD SLOAD PUSH1 0x40 MLOAD PUSH1 0x1 PUSH1 0x1 PUSH1 0xA0 SHL SUB DUP3 AND SWAP2 DUP7 SWAP2 PUSH32 0xB7E370342196B323C20AA611000555179B5BBAAEEB1E287AA812B032F58AAC41 SWAP2 PUSH2 0xE1D SWAP2 PUSH1 0x1 PUSH1 0xA0 SHL SWAP1 SWAP2 DIV PUSH1 0xFF AND SWAP1 PUSH2 0x286D JUMP JUMPDEST PUSH1 0x40 MLOAD DUP1 SWAP2 SUB SWAP1 LOG3 JUMPDEST POP POP PUSH2 0xE31 PUSH1 0x1 DUP1 SSTORE JUMP JUMPDEST POP POP JUMP JUMPDEST PUSH2 0xE3D PUSH2 0x1B7E JUMP JUMPDEST PUSH1 0x1 PUSH1 0x1 PUSH1 0xA0 SHL SUB DUP3 AND PUSH1 0x0 DUP2 DUP2 MSTORE PUSH1 0x6 PUSH1 0x20 SWAP1 DUP2 MSTORE PUSH1 0x40 SWAP2 DUP3 SWAP1 KECCAK256 DUP1 SLOAD PUSH1 0xFF NOT AND DUP6 ISZERO ISZERO SWAP1 DUP2 OR SWAP1 SWAP2 SSTORE SWAP2 MLOAD SWAP2 DUP3 MSTORE PUSH32 0xF88DB92C03486C8C8F4A8BA1BFF0126F0FBA2A721832B8581E1C2BB86B449789 SWAP2 ADD JUMPDEST PUSH1 0x40 MLOAD DUP1 SWAP2 SUB SWAP1 LOG2 POP POP JUMP JUMPDEST PUSH1 0x4 SLOAD PUSH1 0x60 SWAP1 PUSH1 0x0 PUSH1 0x1 JUMPDEST DUP3 DUP2 GT PUSH2 0xF1F JUMPI PUSH1 0x0 DUP2 DUP2 MSTORE PUSH1 0x5 PUSH1 0x20 MSTORE PUSH1 0x40 SWAP1 KECCAK256 PUSH1 0x8 ADD SLOAD PUSH1 0xFF AND DUP1 ISZERO PUSH2 0xEFA JUMPI POP PUSH1 0x0 DUP2 DUP2 MSTORE PUSH1 0x5 PUSH1 0x20 DUP2 SWAP1 MSTORE PUSH1 0x40 DUP3 KECCAK256 DUP2 ADD SLOAD PUSH1 0x1 PUSH1 0xA0 SHL SWAP1 DIV PUSH1 0xFF AND SWAP1 DUP2 GT ISZERO PUSH2 0xEF8 JUMPI PUSH2 0xEF8 PUSH2 0x2452 JUMP JUMPDEST EQ JUMPDEST ISZERO PUSH2 0xF0D JUMPI DUP2 PUSH2 0xF09 DUP2 PUSH2 0x2854 JUMP JUMPDEST SWAP3 POP POP JUMPDEST DUP1 PUSH2 0xF17 DUP2 PUSH2 0x2854 JUMP JUMPDEST SWAP2 POP POP PUSH2 0xEA8 JUMP JUMPDEST POP PUSH1 0x0 DUP2 PUSH1 0x1 PUSH1 0x1 PUSH1 0x40 SHL SUB DUP2 GT ISZERO PUSH2 0xF3A JUMPI PUSH2 0xF3A PUSH2 0x269F JUMP JUMPDEST PUSH1 0x40 MLOAD SWAP1 DUP1 DUP3 MSTORE DUP1 PUSH1 0x20 MUL PUSH1 0x20 ADD DUP3 ADD PUSH1 0x40 MSTORE DUP1 ISZERO PUSH2 0xF73 JUMPI DUP2 PUSH1 0x20 ADD JUMPDEST PUSH2 0xF60 PUSH2 0x2084 JUMP JUMPDEST DUP2 MSTORE PUSH1 0x20 ADD SWAP1 PUSH1 0x1 SWAP1 SUB SWAP1 DUP2 PUSH2 0xF58 JUMPI SWAP1 POP JUMPDEST POP SWAP1 POP PUSH1 0x0 PUSH1 0x1 JUMPDEST DUP5 DUP2 GT PUSH2 0x135C JUMPI PUSH1 0x0 DUP2 DUP2 MSTORE PUSH1 0x5 PUSH1 0x20 MSTORE PUSH1 0x40 SWAP1 KECCAK256 PUSH1 0x8 ADD SLOAD PUSH1 0xFF AND DUP1 ISZERO PUSH2 0xFCD JUMPI POP PUSH1 0x0 DUP2 DUP2 MSTORE PUSH1 0x5 PUSH1 0x20 DUP2 SWAP1 MSTORE PUSH1 0x40 DUP3 KECCAK256 DUP2 ADD SLOAD PUSH1 0x1 PUSH1 0xA0 SHL SWAP1 DIV PUSH1 0xFF AND SWAP1 DUP2 GT ISZERO PUSH2 0xFCB JUMPI PUSH2 0xFCB PUSH2 0x2452 JUMP JUMPDEST EQ JUMPDEST ISZERO PUSH2 0x134A JUMPI PUSH1 0x5 PUSH1 0x0 DUP3 DUP2 MSTORE PUSH1 0x20 ADD SWAP1 DUP2 MSTORE PUSH1 0x20 ADD PUSH1 0x0 KECCAK256 PUSH1 0x40 MLOAD DUP1 PUSH2 0x1C0 ADD PUSH1 0x40 MSTORE SWAP1 DUP2 PUSH1 0x0 DUP3 ADD SLOAD DUP2 MSTORE PUSH1 0x20 ADD PUSH1 0x1 DUP3 ADD DUP1 SLOAD PUSH2 0x100B SWAP1 PUSH2 0x26B5 JUMP JUMPDEST DUP1 PUSH1 0x1F ADD PUSH1 0x20 DUP1 SWAP2 DIV MUL PUSH1 0x20 ADD PUSH1 0x40 MLOAD SWAP1 DUP2 ADD PUSH1 0x40 MSTORE DUP1 SWAP3 SWAP2 SWAP1 DUP2 DUP2 MSTORE PUSH1 0x20 ADD DUP3 DUP1 SLOAD PUSH2 0x1037 SWAP1 PUSH2 0x26B5 JUMP JUMPDEST DUP1 ISZERO PUSH2 0x1084 JUMPI DUP1 PUSH1 0x1F LT PUSH2 0x1059 JUMPI PUSH2 0x100 DUP1 DUP4 SLOAD DIV MUL DUP4 MSTORE SWAP2 PUSH1 0x20 ADD SWAP2 PUSH2 0x1084 JUMP JUMPDEST DUP3 ADD SWAP2 SWAP1 PUSH1 0x0 MSTORE PUSH1 0x20 PUSH1 0x0 KECCAK256 SWAP1 JUMPDEST DUP2 SLOAD DUP2 MSTORE SWAP1 PUSH1 0x1 ADD SWAP1 PUSH1 0x20 ADD DUP1 DUP4 GT PUSH2 0x1067 JUMPI DUP3 SWAP1 SUB PUSH1 0x1F AND DUP3 ADD SWAP2 JUMPDEST POP POP POP POP POP DUP2 MSTORE PUSH1 0x20 ADD PUSH1 0x2 DUP3 ADD DUP1 SLOAD PUSH2 0x109D SWAP1 PUSH2 0x26B5 JUMP JUMPDEST DUP1 PUSH1 0x1F ADD PUSH1 0x20 DUP1 SWAP2 DIV MUL PUSH1 0x20 ADD PUSH1 0x40 MLOAD SWAP1 DUP2 ADD PUSH1 0x40 MSTORE DUP1 SWAP3 SWAP2 SWAP1 DUP2 DUP2 MSTORE PUSH1 0x20 ADD DUP3 DUP1 SLOAD PUSH2 0x10C9 SWAP1 PUSH2 0x26B5 JUMP JUMPDEST DUP1 ISZERO PUSH2 0x1116 JUMPI DUP1 PUSH1 0x1F LT PUSH2 0x10EB JUMPI PUSH2 0x100 DUP1 DUP4 SLOAD DIV MUL DUP4 MSTORE SWAP2 PUSH1 0x20 ADD SWAP2 PUSH2 0x1116 JUMP JUMPDEST DUP3 ADD SWAP2 SWAP1 PUSH1 0x0 MSTORE PUSH1 0x20 PUSH1 0x0 KECCAK256 SWAP1 JUMPDEST DUP2 SLOAD DUP2 MSTORE SWAP1 PUSH1 0x1 ADD SWAP1 PUSH1 0x20 ADD DUP1 DUP4 GT PUSH2 0x10F9 JUMPI DUP3 SWAP1 SUB PUSH1 0x1F AND DUP3 ADD SWAP2 JUMPDEST POP POP POP SWAP2 DUP4 MSTORE POP POP PUSH1 0x3 DUP3 ADD SLOAD PUSH1 0x20 DUP3 ADD MSTORE PUSH1 0x4 DUP3 ADD SLOAD PUSH1 0x40 SWAP1 SWAP2 ADD SWAP1 PUSH1 0xFF AND PUSH1 0x2 DUP2 GT ISZERO PUSH2 0x1147 JUMPI PUSH2 0x1147 PUSH2 0x2452 JUMP JUMPDEST PUSH1 0x2 DUP2 GT ISZERO PUSH2 0x1158 JUMPI PUSH2 0x1158 PUSH2 0x2452 JUMP JUMPDEST DUP2 MSTORE PUSH1 0x4 DUP3 ADD SLOAD PUSH2 0x100 DUP2 DIV PUSH1 0x1 PUSH1 0x1 PUSH1 0x40 SHL SUB AND PUSH1 0x20 DUP4 ADD MSTORE PUSH1 0x1 PUSH1 0x48 SHL SWAP1 DIV PUSH1 0x1 PUSH1 0x1 PUSH1 0xA0 SHL SUB SWAP1 DUP2 AND PUSH1 0x40 DUP4 ADD MSTORE PUSH1 0x5 DUP1 DUP5 ADD SLOAD SWAP2 DUP3 AND PUSH1 0x60 DUP5 ADD MSTORE PUSH1 0x80 SWAP1 SWAP3 ADD SWAP2 PUSH1 0x1 PUSH1 0xA0 SHL SWAP1 SWAP2 DIV PUSH1 0xFF AND SWAP1 DUP2 GT ISZERO PUSH2 0x11B8 JUMPI PUSH2 0x11B8 PUSH2 0x2452 JUMP JUMPDEST PUSH1 0x5 DUP2 GT ISZERO PUSH2 0x11C9 JUMPI PUSH2 0x11C9 PUSH2 0x2452 JUMP JUMPDEST DUP2 MSTORE PUSH1 0x20 ADD PUSH1 0x6 DUP3 ADD DUP1 SLOAD PUSH2 0x11DD SWAP1 PUSH2 0x26B5 JUMP JUMPDEST DUP1 PUSH1 0x1F ADD PUSH1 0x20 DUP1 SWAP2 DIV MUL PUSH1 0x20 ADD PUSH1 0x40 MLOAD SWAP1 DUP2 ADD PUSH1 0x40 MSTORE DUP1 SWAP3 SWAP2 SWAP1 DUP2 DUP2 MSTORE PUSH1 0x20 ADD DUP3 DUP1 SLOAD PUSH2 0x1209 SWAP1 PUSH2 0x26B5 JUMP JUMPDEST DUP1 ISZERO PUSH2 0x1256 JUMPI DUP1 PUSH1 0x1F LT PUSH2 0x122B JUMPI PUSH2 0x100 DUP1 DUP4 SLOAD DIV MUL DUP4 MSTORE SWAP2 PUSH1 0x20 ADD SWAP2 PUSH2 0x1256 JUMP JUMPDEST DUP3 ADD SWAP2 SWAP1 PUSH1 0x0 MSTORE PUSH1 0x20 PUSH1 0x0 KECCAK256 SWAP1 JUMPDEST DUP2 SLOAD DUP2 MSTORE SWAP1 PUSH1 0x1 ADD SWAP1 PUSH1 0x20 ADD DUP1 DUP4 GT PUSH2 0x1239 JUMPI DUP3 SWAP1 SUB PUSH1 0x1F AND DUP3 ADD SWAP2 JUMPDEST POP POP POP POP POP DUP2 MSTORE PUSH1 0x20 ADD PUSH1 0x7 DUP3 ADD DUP1 SLOAD PUSH2 0x126F SWAP1 PUSH2 0x26B5 JUMP JUMPDEST DUP1 PUSH1 0x1F ADD PUSH1 0x20 DUP1 SWAP2 DIV MUL PUSH1 0x20 ADD PUSH1 0x40 MLOAD SWAP1 DUP2 ADD PUSH1 0x40 MSTORE DUP1 SWAP3 SWAP2 SWAP1 DUP2 DUP2 MSTORE PUSH1 0x20 ADD DUP3 DUP1 SLOAD PUSH2 0x129B SWAP1 PUSH2 0x26B5 JUMP JUMPDEST DUP1 ISZERO PUSH2 0x12E8 JUMPI DUP1 PUSH1 0x1F LT PUSH2 0x12BD JUMPI PUSH2 0x100 DUP1 DUP4 SLOAD DIV MUL DUP4 MSTORE SWAP2 PUSH1 0x20 ADD SWAP2 PUSH2 0x12E8 JUMP JUMPDEST DUP3 ADD SWAP2 SWAP1 PUSH1 0x0 MSTORE PUSH1 0x20 PUSH1 0x0 KECCAK256 SWAP1 JUMPDEST DUP2 SLOAD DUP2 MSTORE SWAP1 PUSH1 0x1 ADD SWAP1 PUSH1 0x20 ADD DUP1 DUP4 GT PUSH2 0x12CB JUMPI DUP3 SWAP1 SUB PUSH1 0x1F AND DUP3 ADD SWAP2 JUMPDEST POP POP POP SWAP2 DUP4 MSTORE POP POP PUSH1 0x8 SWAP2 SWAP1 SWAP2 ADD SLOAD PUSH1 0xFF DUP1 DUP3 AND ISZERO ISZERO PUSH1 0x20 DUP5 ADD MSTORE PUSH2 0x100 DUP3 DIV DUP2 AND ISZERO ISZERO PUSH1 0x40 DUP5 ADD MSTORE PUSH3 0x10000 SWAP1 SWAP2 DIV AND ISZERO ISZERO PUSH1 0x60 SWAP1 SWAP2 ADD MSTORE DUP4 DUP4 PUSH2 0x132C DUP2 PUSH2 0x2854 JUMP JUMPDEST SWAP5 POP DUP2 MLOAD DUP2 LT PUSH2 0x133E JUMPI PUSH2 0x133E PUSH2 0x287B JUMP JUMPDEST PUSH1 0x20 MUL PUSH1 0x20 ADD ADD DUP2 SWAP1 MSTORE POP JUMPDEST DUP1 PUSH2 0x1354 DUP2 PUSH2 0x2854 JUMP JUMPDEST SWAP2 POP POP PUSH2 0xF7B JUMP JUMPDEST POP SWAP1 SWAP5 SWAP4 POP POP POP POP JUMP JUMPDEST PUSH2 0x136E PUSH2 0x1AB1 JUMP JUMPDEST PUSH1 0x0 DUP2 DUP2 MSTORE PUSH1 0x5 PUSH1 0x20 MSTORE PUSH1 0x40 SWAP1 KECCAK256 PUSH1 0x8 ADD SLOAD DUP2 SWAP1 PUSH1 0xFF AND PUSH2 0x13A2 JUMPI PUSH1 0x40 MLOAD PUSH4 0xD6967FF9 PUSH1 0xE0 SHL DUP2 MSTORE PUSH1 0x4 ADD PUSH1 0x40 MLOAD DUP1 SWAP2 SUB SWAP1 REVERT JUMPDEST PUSH1 0x0 DUP3 DUP2 MSTORE PUSH1 0x5 PUSH1 0x20 DUP2 SWAP1 MSTORE PUSH1 0x40 SWAP1 SWAP2 KECCAK256 ADD SLOAD DUP3 SWAP1 PUSH1 0x1 PUSH1 0x1 PUSH1 0xA0 SHL SUB AND CALLER EQ PUSH2 0x13DF JUMPI PUSH1 0x40 MLOAD PUSH4 0xE4B4E61B PUSH1 0xE0 SHL DUP2 MSTORE PUSH1 0x4 ADD PUSH1 0x40 MLOAD DUP1 SWAP2 SUB SWAP1 REVERT JUMPDEST PUSH1 0x0 DUP4 DUP2 MSTORE PUSH1 0x5 PUSH1 0x20 MSTORE PUSH1 0x40 SWAP1 KECCAK256 PUSH1 0x3 PUSH1 0x5 DUP3 DUP2 ADD SLOAD PUSH1 0x1 PUSH1 0xA0 SHL SWAP1 DIV PUSH1 0xFF AND SWAP1 DUP2 GT ISZERO PUSH2 0x140F JUMPI PUSH2 0x140F PUSH2 0x2452 JUMP JUMPDEST EQ PUSH2 0x142D JUMPI PUSH1 0x40 MLOAD PUSH4 0x4E2DFFB7 PUSH1 0xE0 SHL DUP2 MSTORE PUSH1 0x4 ADD PUSH1 0x40 MLOAD DUP1 SWAP2 SUB SWAP1 REVERT JUMPDEST PUSH1 0x8 DUP2 ADD SLOAD PUSH3 0x10000 SWAP1 DIV PUSH1 0xFF AND ISZERO PUSH2 0x1458 JUMPI PUSH1 0x40 MLOAD PUSH3 0x9736F7 PUSH1 0xE3 SHL DUP2 MSTORE PUSH1 0x4 ADD PUSH1 0x40 MLOAD DUP1 SWAP2 SUB SWAP1 REVERT JUMPDEST PUSH2 0x1461 DUP2 PUSH2 0x1C7B JUMP JUMPDEST POP POP POP PUSH2 0x146D PUSH1 0x1 DUP1 SSTORE JUMP JUMPDEST POP JUMP JUMPDEST PUSH2 0x1478 PUSH2 0x2084 JUMP JUMPDEST PUSH1 0x0 DUP3 DUP2 MSTORE PUSH1 0x5 PUSH1 0x20 MSTORE PUSH1 0x40 SWAP1 KECCAK256 PUSH1 0x8 ADD SLOAD DUP3 SWAP1 PUSH1 0xFF AND PUSH2 0x14AC JUMPI PUSH1 0x40 MLOAD PUSH4 0xD6967FF9 PUSH1 0xE0 SHL DUP2 MSTORE PUSH1 0x4 ADD PUSH1 0x40 MLOAD DUP1 SWAP2 SUB SWAP1 REVERT JUMPDEST PUSH1 0x5 PUSH1 0x0 DUP5 DUP2 MSTORE PUSH1 0x20 ADD SWAP1 DUP2 MSTORE PUSH1 0x20 ADD PUSH1 0x0 KECCAK256 PUSH1 0x40 MLOAD DUP1 PUSH2 0x1C0 ADD PUSH1 0x40 MSTORE SWAP1 DUP2 PUSH1 0x0 DUP3 ADD SLOAD DUP2 MSTORE PUSH1 0x20 ADD PUSH1 0x1 DUP3 ADD DUP1 SLOAD PUSH2 0x14E5 SWAP1 PUSH2 0x26B5 JUMP JUMPDEST DUP1 PUSH1 0x1F ADD PUSH1 0x20 DUP1 SWAP2 DIV MUL PUSH1 0x20 ADD PUSH1 0x40 MLOAD SWAP1 DUP2 ADD PUSH1 0x40 MSTORE DUP1 SWAP3 SWAP2 SWAP1 DUP2 DUP2 MSTORE PUSH1 0x20 ADD DUP3 DUP1 SLOAD PUSH2 0x1511 SWAP1 PUSH2 0x26B5 JUMP JUMPDEST DUP1 ISZERO PUSH2 0x155E JUMPI DUP1 PUSH1 0x1F LT PUSH2 0x1533 JUMPI PUSH2 0x100 DUP1 DUP4 SLOAD DIV MUL DUP4 MSTORE SWAP2 PUSH1 0x20 ADD SWAP2 PUSH2 0x155E JUMP JUMPDEST DUP3 ADD SWAP2 SWAP1 PUSH1 0x0 MSTORE PUSH1 0x20 PUSH1 0x0 KECCAK256 SWAP1 JUMPDEST DUP2 SLOAD DUP2 MSTORE SWAP1 PUSH1 0x1 ADD SWAP1 PUSH1 0x20 ADD DUP1 DUP4 GT PUSH2 0x1541 JUMPI DUP3 SWAP1 SUB PUSH1 0x1F AND DUP3 ADD SWAP2 JUMPDEST POP POP POP POP POP DUP2 MSTORE PUSH1 0x20 ADD PUSH1 0x2 DUP3 ADD DUP1 SLOAD PUSH2 0x1577 SWAP1 PUSH2 0x26B5 JUMP JUMPDEST DUP1 PUSH1 0x1F ADD PUSH1 0x20 DUP1 SWAP2 DIV MUL PUSH1 0x20 ADD PUSH1 0x40 MLOAD SWAP1 DUP2 ADD PUSH1 0x40 MSTORE DUP1 SWAP3 SWAP2 SWAP1 DUP2 DUP2 MSTORE PUSH1 0x20 ADD DUP3 DUP1 SLOAD PUSH2 0x15A3 SWAP1 PUSH2 0x26B5 JUMP JUMPDEST DUP1 ISZERO PUSH2 0x15F0 JUMPI DUP1 PUSH1 0x1F LT PUSH2 0x15C5 JUMPI PUSH2 0x100 DUP1 DUP4 SLOAD DIV MUL DUP4 MSTORE SWAP2 PUSH1 0x20 ADD SWAP2 PUSH2 0x15F0 JUMP JUMPDEST DUP3 ADD SWAP2 SWAP1 PUSH1 0x0 MSTORE PUSH1 0x20 PUSH1 0x0 KECCAK256 SWAP1 JUMPDEST DUP2 SLOAD DUP2 MSTORE SWAP1 PUSH1 0x1 ADD SWAP1 PUSH1 0x20 ADD DUP1 DUP4 GT PUSH2 0x15D3 JUMPI DUP3 SWAP1 SUB PUSH1 0x1F AND DUP3 ADD SWAP2 JUMPDEST POP POP POP SWAP2 DUP4 MSTORE POP POP PUSH1 0x3 DUP3 ADD SLOAD PUSH1 0x20 DUP3 ADD MSTORE PUSH1 0x4 DUP3 ADD SLOAD PUSH1 0x40 SWAP1 SWAP2 ADD SWAP1 PUSH1 0xFF AND PUSH1 0x2 DUP2 GT ISZERO PUSH2 0x1621 JUMPI PUSH2 0x1621 PUSH2 0x2452 JUMP JUMPDEST PUSH1 0x2 DUP2 GT ISZERO PUSH2 0x1632 JUMPI PUSH2 0x1632 PUSH2 0x2452 JUMP JUMPDEST DUP2 MSTORE PUSH1 0x4 DUP3 ADD SLOAD PUSH2 0x100 DUP2 DIV PUSH1 0x1 PUSH1 0x1 PUSH1 0x40 SHL SUB AND PUSH1 0x20 DUP4 ADD MSTORE PUSH1 0x1 PUSH1 0x48 SHL SWAP1 DIV PUSH1 0x1 PUSH1 0x1 PUSH1 0xA0 SHL SUB SWAP1 DUP2 AND PUSH1 0x40 DUP4 ADD MSTORE PUSH1 0x5 DUP1 DUP5 ADD SLOAD SWAP2 DUP3 AND PUSH1 0x60 DUP5 ADD MSTORE PUSH1 0x80 SWAP1 SWAP3 ADD SWAP2 PUSH1 0x1 PUSH1 0xA0 SHL SWAP1 SWAP2 DIV PUSH1 0xFF AND SWAP1 DUP2 GT ISZERO PUSH2 0x1692 JUMPI PUSH2 0x1692 PUSH2 0x2452 JUMP JUMPDEST PUSH1 0x5 DUP2 GT ISZERO PUSH2 0x16A3 JUMPI PUSH2 0x16A3 PUSH2 0x2452 JUMP JUMPDEST DUP2 MSTORE PUSH1 0x20 ADD PUSH1 0x6 DUP3 ADD DUP1 SLOAD PUSH2 0x16B7 SWAP1 PUSH2 0x26B5 JUMP JUMPDEST DUP1 PUSH1 0x1F ADD PUSH1 0x20 DUP1 SWAP2 DIV MUL PUSH1 0x20 ADD PUSH1 0x40 MLOAD SWAP1 DUP2 ADD PUSH1 0x40 MSTORE DUP1 SWAP3 SWAP2 SWAP1 DUP2 DUP2 MSTORE PUSH1 0x20 ADD DUP3 DUP1 SLOAD PUSH2 0x16E3 SWAP1 PUSH2 0x26B5 JUMP JUMPDEST DUP1 ISZERO PUSH2 0x1730 JUMPI DUP1 PUSH1 0x1F LT PUSH2 0x1705 JUMPI PUSH2 0x100 DUP1 DUP4 SLOAD DIV MUL DUP4 MSTORE SWAP2 PUSH1 0x20 ADD SWAP2 PUSH2 0x1730 JUMP JUMPDEST DUP3 ADD SWAP2 SWAP1 PUSH1 0x0 MSTORE PUSH1 0x20 PUSH1 0x0 KECCAK256 SWAP1 JUMPDEST DUP2 SLOAD DUP2 MSTORE SWAP1 PUSH1 0x1 ADD SWAP1 PUSH1 0x20 ADD DUP1 DUP4 GT PUSH2 0x1713 JUMPI DUP3 SWAP1 SUB PUSH1 0x1F AND DUP3 ADD SWAP2 JUMPDEST POP POP POP POP POP DUP2 MSTORE PUSH1 0x20 ADD PUSH1 0x7 DUP3 ADD DUP1 SLOAD PUSH2 0x1749 SWAP1 PUSH2 0x26B5 JUMP JUMPDEST DUP1 PUSH1 0x1F ADD PUSH1 0x20 DUP1 SWAP2 DIV MUL PUSH1 0x20 ADD PUSH1 0x40 MLOAD SWAP1 DUP2 ADD PUSH1 0x40 MSTORE DUP1 SWAP3 SWAP2 SWAP1 DUP2 DUP2 MSTORE PUSH1 0x20 ADD DUP3 DUP1 SLOAD PUSH2 0x1775 SWAP1 PUSH2 0x26B5 JUMP JUMPDEST DUP1 ISZERO PUSH2 0x17C2 JUMPI DUP1 PUSH1 0x1F LT PUSH2 0x1797 JUMPI PUSH2 0x100 DUP1 DUP4 SLOAD DIV MUL DUP4 MSTORE SWAP2 PUSH1 0x20 ADD SWAP2 PUSH2 0x17C2 JUMP JUMPDEST DUP3 ADD SWAP2 SWAP1 PUSH1 0x0 MSTORE PUSH1 0x20 PUSH1 0x0 KECCAK256 SWAP1 JUMPDEST DUP2 SLOAD DUP2 MSTORE SWAP1 PUSH1 0x1 ADD SWAP1 PUSH1 0x20 ADD DUP1 DUP4 GT PUSH2 0x17A5 JUMPI DUP3 SWAP1 SUB PUSH1 0x1F AND DUP3 ADD SWAP2 JUMPDEST POP POP POP SWAP2 DUP4 MSTORE POP POP PUSH1 0x8 SWAP2 SWAP1 SWAP2 ADD SLOAD PUSH1 0xFF DUP1 DUP3 AND ISZERO ISZERO PUSH1 0x20 DUP5 ADD MSTORE PUSH2 0x100 DUP3 DIV DUP2 AND ISZERO ISZERO PUSH1 0x40 DUP5 ADD MSTORE PUSH3 0x10000 SWAP1 SWAP2 DIV AND ISZERO ISZERO PUSH1 0x60 SWAP1 SWAP2 ADD MSTORE SWAP2 POP JUMPDEST POP SWAP2 SWAP1 POP JUMP JUMPDEST PUSH2 0x180C PUSH2 0x1B7E JUMP JUMPDEST PUSH2 0x3E8 DUP3 GT ISZERO PUSH2 0x182F JUMPI PUSH1 0x40 MLOAD PUSH4 0x2332EAD PUSH1 0xE6 SHL DUP2 MSTORE PUSH1 0x4 ADD PUSH1 0x40 MLOAD DUP1 SWAP2 SUB SWAP1 REVERT JUMPDEST PUSH1 0x3 DUP3 SWAP1 SSTORE PUSH1 0x2 DUP1 SLOAD PUSH1 0x1 PUSH1 0x1 PUSH1 0xA0 SHL SUB NOT AND PUSH1 0x1 PUSH1 0x1 PUSH1 0xA0 SHL SUB DUP4 AND SWAP1 DUP2 OR SWAP1 SWAP2 SSTORE PUSH1 0x40 MLOAD DUP4 DUP2 MSTORE PUSH32 0xF0C09F5238364083D828870E877EDAEBB364D9F19F4093FDBF24E486BBDCA484 SWAP1 PUSH1 0x20 ADD PUSH2 0xE91 JUMP JUMPDEST PUSH2 0x18A6 PUSH1 0x40 MLOAD DUP1 PUSH1 0x60 ADD PUSH1 0x40 MSTORE DUP1 PUSH1 0x0 DUP2 MSTORE PUSH1 0x20 ADD PUSH1 0x0 DUP2 MSTORE PUSH1 0x20 ADD PUSH1 0x60 DUP2 MSTORE POP SWAP1 JUMP JUMPDEST PUSH1 0x1 PUSH1 0x1 PUSH1 0xA0 SHL SUB DUP3 AND PUSH1 0x0 DUP2 DUP2 MSTORE PUSH1 0xA PUSH1 0x20 SWAP1 DUP2 MSTORE PUSH1 0x40 DUP1 DUP4 KECCAK256 SLOAD DUP1 DUP7 MSTORE SWAP4 DUP4 MSTORE PUSH1 0x9 DUP3 MSTORE SWAP1 SWAP2 KECCAK256 SLOAD SWAP1 DUP4 ADD MSTORE PUSH2 0x18DD DUP2 PUSH2 0x1E1A JUMP JUMPDEST PUSH1 0x40 DUP4 ADD MSTORE POP SWAP2 SWAP1 POP JUMP JUMPDEST PUSH2 0x18F0 PUSH2 0x1B7E JUMP JUMPDEST PUSH1 0x1 PUSH1 0x1 PUSH1 0xA0 SHL SUB DUP2 AND PUSH2 0x191F JUMPI PUSH1 0x40 MLOAD PUSH4 0x1E4FBDF7 PUSH1 0xE0 SHL DUP2 MSTORE PUSH1 0x0 PUSH1 0x4 DUP3 ADD MSTORE PUSH1 0x24 ADD JUMPDEST PUSH1 0x40 MLOAD DUP1 SWAP2 SUB SWAP1 REVERT JUMPDEST PUSH2 0x146D DUP2 PUSH2 0x1BAB JUMP JUMPDEST PUSH2 0x1930 PUSH2 0x1AB1 JUMP JUMPDEST PUSH1 0x0 DUP2 DUP2 MSTORE PUSH1 0x5 PUSH1 0x20 MSTORE PUSH1 0x40 SWAP1 KECCAK256 PUSH1 0x8 ADD SLOAD DUP2 SWAP1 PUSH1 0xFF AND PUSH2 0x1964 JUMPI PUSH1 0x40 MLOAD PUSH4 0xD6967FF9 PUSH1 0xE0 SHL DUP2 MSTORE PUSH1 0x4 ADD PUSH1 0x40 MLOAD DUP1 SWAP2 SUB SWAP1 REVERT JUMPDEST PUSH1 0x0 DUP3 DUP2 MSTORE PUSH1 0x5 PUSH1 0x20 MSTORE PUSH1 0x40 SWAP1 KECCAK256 PUSH1 0x4 ADD SLOAD DUP3 SWAP1 PUSH1 0x1 PUSH1 0x48 SHL SWAP1 DIV PUSH1 0x1 PUSH1 0x1 PUSH1 0xA0 SHL SUB AND CALLER EQ PUSH2 0x19A7 JUMPI PUSH1 0x40 MLOAD PUSH4 0xB44924CB PUSH1 0xE0 SHL DUP2 MSTORE PUSH1 0x4 ADD PUSH1 0x40 MLOAD DUP1 SWAP2 SUB SWAP1 REVERT JUMPDEST PUSH1 0x0 DUP4 DUP2 MSTORE PUSH1 0x5 PUSH1 0x20 MSTORE PUSH1 0x40 DUP2 KECCAK256 SWAP1 PUSH1 0x5 DUP3 DUP2 ADD SLOAD PUSH1 0x1 PUSH1 0xA0 SHL SWAP1 DIV PUSH1 0xFF AND SWAP1 DUP2 GT ISZERO PUSH2 0x19D6 JUMPI PUSH2 0x19D6 PUSH2 0x2452 JUMP JUMPDEST EQ PUSH2 0x19F4 JUMPI PUSH1 0x40 MLOAD PUSH4 0x4E2DFFB7 PUSH1 0xE0 SHL DUP2 MSTORE PUSH1 0x4 ADD PUSH1 0x40 MLOAD DUP1 SWAP2 SUB SWAP1 REVERT JUMPDEST PUSH1 0x5 DUP2 ADD DUP1 SLOAD PUSH1 0xFF PUSH1 0xA0 SHL NOT AND PUSH1 0x5 PUSH1 0xA0 SHL OR SWAP1 SSTORE PUSH1 0x8 DUP2 ADD DUP1 SLOAD PUSH1 0xFF NOT AND SWAP1 DUP2 SWAP1 SSTORE PUSH2 0x100 SWAP1 DIV PUSH1 0xFF AND ISZERO PUSH2 0x1A7A JUMPI PUSH1 0x8 DUP2 ADD DUP1 SLOAD PUSH2 0xFF00 NOT AND SWAP1 SSTORE PUSH1 0x4 DUP2 ADD SLOAD PUSH1 0x3 DUP3 ADD SLOAD PUSH2 0x1A7A SWAP2 PUSH1 0x1 PUSH1 0x1 PUSH1 0xA0 SHL SUB PUSH32 0x0 DUP2 AND SWAP3 PUSH1 0x1 PUSH1 0x48 SHL SWAP1 SWAP3 DIV AND SWAP1 PUSH2 0x1B48 JUMP JUMPDEST PUSH1 0x40 MLOAD DUP5 SWAP1 PUSH32 0x8BE3723411CC8577EE6CD118CBDBCEFD5A0D748B4CE31EDBBBAD3B8A013CC799 SWAP1 PUSH1 0x0 SWAP1 LOG2 POP POP POP PUSH2 0x146D PUSH1 0x1 DUP1 SSTORE JUMP JUMPDEST PUSH1 0x2 PUSH1 0x1 SLOAD SUB PUSH2 0x1AD4 JUMPI PUSH1 0x40 MLOAD PUSH4 0x3EE5AEB5 PUSH1 0xE0 SHL DUP2 MSTORE PUSH1 0x4 ADD PUSH1 0x40 MLOAD DUP1 SWAP2 SUB SWAP1 REVERT JUMPDEST PUSH1 0x2 PUSH1 0x1 SSTORE JUMP JUMPDEST PUSH1 0x40 MLOAD PUSH1 0x1 PUSH1 0x1 PUSH1 0xA0 SHL SUB DUP5 DUP2 AND PUSH1 0x24 DUP4 ADD MSTORE DUP4 DUP2 AND PUSH1 0x44 DUP4 ADD MSTORE PUSH1 0x64 DUP3 ADD DUP4 SWAP1 MSTORE PUSH2 0x1B42 SWAP2 DUP7 SWAP2 DUP3 AND SWAP1 PUSH4 0x23B872DD SWAP1 PUSH1 0x84 ADD JUMPDEST PUSH1 0x40 MLOAD PUSH1 0x20 DUP2 DUP4 SUB SUB DUP2 MSTORE SWAP1 PUSH1 0x40 MSTORE SWAP2 POP PUSH1 0xE0 SHL PUSH1 0x20 DUP3 ADD DUP1 MLOAD PUSH1 0x1 PUSH1 0x1 PUSH1 0xE0 SHL SUB DUP4 DUP2 DUP4 AND OR DUP4 MSTORE POP POP POP POP PUSH2 0x1EE6 JUMP JUMPDEST POP POP POP POP JUMP JUMPDEST PUSH1 0x40 MLOAD PUSH1 0x1 PUSH1 0x1 PUSH1 0xA0 SHL SUB DUP4 DUP2 AND PUSH1 0x24 DUP4 ADD MSTORE PUSH1 0x44 DUP3 ADD DUP4 SWAP1 MSTORE PUSH2 0x1B79 SWAP2 DUP6 SWAP2 DUP3 AND SWAP1 PUSH4 0xA9059CBB SWAP1 PUSH1 0x64 ADD PUSH2 0x1B10 JUMP JUMPDEST POP POP POP JUMP JUMPDEST PUSH1 0x0 SLOAD PUSH1 0x1 PUSH1 0x1 PUSH1 0xA0 SHL SUB AND CALLER EQ PUSH2 0xC67 JUMPI PUSH1 0x40 MLOAD PUSH4 0x118CDAA7 PUSH1 0xE0 SHL DUP2 MSTORE CALLER PUSH1 0x4 DUP3 ADD MSTORE PUSH1 0x24 ADD PUSH2 0x1916 JUMP JUMPDEST PUSH1 0x0 DUP1 SLOAD PUSH1 0x1 PUSH1 0x1 PUSH1 0xA0 SHL SUB DUP4 DUP2 AND PUSH1 0x1 PUSH1 0x1 PUSH1 0xA0 SHL SUB NOT DUP4 AND DUP2 OR DUP5 SSTORE PUSH1 0x40 MLOAD SWAP2 SWAP1 SWAP3 AND SWAP3 DUP4 SWAP2 PUSH32 0x8BE0079C531659141344CD1FD0A4F28419497F9722A3DAAFE3B4186F6B6457E0 SWAP2 SWAP1 LOG3 POP POP JUMP JUMPDEST PUSH1 0x8 DUP2 ADD SLOAD PUSH2 0x100 SWAP1 DIV PUSH1 0xFF AND PUSH2 0x1C25 JUMPI PUSH1 0x40 MLOAD PUSH4 0x1119A5DF PUSH1 0xE3 SHL DUP2 MSTORE PUSH1 0x4 ADD PUSH1 0x40 MLOAD DUP1 SWAP2 SUB SWAP1 REVERT JUMPDEST PUSH1 0x8 DUP2 ADD DUP1 SLOAD PUSH2 0xFF00 NOT AND SWAP1 SSTORE PUSH1 0x4 DUP2 ADD SLOAD PUSH1 0x3 DUP3 ADD SLOAD PUSH2 0x146D SWAP2 PUSH1 0x1 PUSH1 0x1 PUSH1 0xA0 SHL SUB PUSH32 0x0 DUP2 AND SWAP3 PUSH1 0x1 PUSH1 0x48 SHL SWAP1 SWAP3 DIV AND SWAP1 PUSH2 0x1B48 JUMP JUMPDEST PUSH1 0x8 DUP2 ADD SLOAD PUSH2 0x100 SWAP1 DIV PUSH1 0xFF AND PUSH2 0x1CA5 JUMPI PUSH1 0x40 MLOAD PUSH4 0x1119A5DF PUSH1 0xE3 SHL DUP2 MSTORE PUSH1 0x4 ADD PUSH1 0x40 MLOAD DUP1 SWAP2 SUB SWAP1 REVERT JUMPDEST PUSH1 0x8 DUP2 ADD SLOAD PUSH3 0x10000 SWAP1 DIV PUSH1 0xFF AND ISZERO PUSH2 0x1CD0 JUMPI PUSH1 0x40 MLOAD PUSH3 0x9736F7 PUSH1 0xE3 SHL DUP2 MSTORE PUSH1 0x4 ADD PUSH1 0x40 MLOAD DUP1 SWAP2 SUB SWAP1 REVERT JUMPDEST PUSH1 0x8 DUP2 ADD DUP1 SLOAD PUSH3 0xFFFF00 NOT AND PUSH3 0x10000 OR SWAP1 SSTORE PUSH1 0x3 DUP1 SLOAD SWAP1 DUP3 ADD SLOAD PUSH1 0x0 SWAP2 PUSH2 0x2710 SWAP2 PUSH2 0x1CFC SWAP2 SWAP1 PUSH2 0x2891 JUMP JUMPDEST PUSH2 0x1D06 SWAP2 SWAP1 PUSH2 0x28A8 JUMP JUMPDEST SWAP1 POP PUSH1 0x0 DUP2 DUP4 PUSH1 0x3 ADD SLOAD PUSH2 0x1D1A SWAP2 SWAP1 PUSH2 0x283B JUMP JUMPDEST SWAP1 POP PUSH1 0x0 DUP3 GT DUP1 ISZERO PUSH2 0x1D36 JUMPI POP PUSH1 0x2 SLOAD PUSH1 0x1 PUSH1 0x1 PUSH1 0xA0 SHL SUB AND ISZERO ISZERO JUMPDEST ISZERO PUSH2 0x1D75 JUMPI PUSH1 0x2 SLOAD PUSH2 0x1D75 SWAP1 PUSH1 0x1 PUSH1 0x1 PUSH1 0xA0 SHL SUB PUSH32 0x0 DUP2 AND SWAP2 AND DUP5 PUSH2 0x1B48 JUMP JUMPDEST PUSH1 0x5 DUP4 ADD SLOAD PUSH2 0x1DB1 SWAP1 PUSH1 0x1 PUSH1 0x1 PUSH1 0xA0 SHL SUB PUSH32 0x0 DUP2 AND SWAP2 AND DUP4 PUSH2 0x1B48 JUMP JUMPDEST PUSH1 0x5 DUP4 ADD SLOAD PUSH1 0x3 DUP5 ADD SLOAD PUSH2 0x1DCF SWAP2 PUSH1 0x1 PUSH1 0x1 PUSH1 0xA0 SHL SUB AND SWAP1 DUP4 PUSH2 0x1F57 JUMP JUMPDEST PUSH1 0x5 DUP4 ADD SLOAD DUP4 SLOAD PUSH1 0x40 MLOAD DUP4 DUP2 MSTORE PUSH1 0x1 PUSH1 0x1 PUSH1 0xA0 SHL SUB SWAP1 SWAP3 AND SWAP2 PUSH32 0x24B5EFA61DD1CFC659205A97FB8ED868F3CB8C81922BAB2B96423E5DE1DE2CB7 SWAP1 PUSH1 0x20 ADD PUSH1 0x40 MLOAD DUP1 SWAP2 SUB SWAP1 LOG3 POP POP POP JUMP JUMPDEST PUSH1 0x60 PUSH2 0x9C4 DUP3 LT PUSH2 0x1E46 JUMPI POP POP PUSH1 0x40 DUP1 MLOAD DUP1 DUP3 ADD SWAP1 SWAP2 MSTORE PUSH1 0x5 DUP2 MSTORE PUSH5 0x456C697465 PUSH1 0xD8 SHL PUSH1 0x20 DUP3 ADD MSTORE SWAP1 JUMP JUMPDEST PUSH2 0x3E8 DUP3 LT PUSH2 0x1E6F JUMPI POP POP PUSH1 0x40 DUP1 MLOAD DUP1 DUP3 ADD SWAP1 SWAP2 MSTORE PUSH1 0x4 DUP2 MSTORE PUSH4 0x11DBDB19 PUSH1 0xE2 SHL PUSH1 0x20 DUP3 ADD MSTORE SWAP1 JUMP JUMPDEST PUSH2 0x190 DUP3 LT PUSH2 0x1E9A JUMPI POP POP PUSH1 0x40 DUP1 MLOAD DUP1 DUP3 ADD SWAP1 SWAP2 MSTORE PUSH1 0x6 DUP2 MSTORE PUSH6 0x29B4B63B32B9 PUSH1 0xD1 SHL PUSH1 0x20 DUP3 ADD MSTORE SWAP1 JUMP JUMPDEST PUSH1 0x96 DUP3 LT PUSH2 0x1EC4 JUMPI POP POP PUSH1 0x40 DUP1 MLOAD DUP1 DUP3 ADD SWAP1 SWAP2 MSTORE PUSH1 0x6 DUP2 MSTORE PUSH6 0x42726F6E7A65 PUSH1 0xD0 SHL PUSH1 0x20 DUP3 ADD MSTORE SWAP1 JUMP JUMPDEST POP POP PUSH1 0x40 DUP1 MLOAD DUP1 DUP3 ADD SWAP1 SWAP2 MSTORE PUSH1 0x6 DUP2 MSTORE PUSH6 0x526F6F6B6965 PUSH1 0xD0 SHL PUSH1 0x20 DUP3 ADD MSTORE SWAP1 JUMP JUMPDEST PUSH1 0x0 DUP1 PUSH1 0x20 PUSH1 0x0 DUP5 MLOAD PUSH1 0x20 DUP7 ADD PUSH1 0x0 DUP9 GAS CALL DUP1 PUSH2 0x1F09 JUMPI PUSH1 0x40 MLOAD RETURNDATASIZE PUSH1 0x0 DUP3 RETURNDATACOPY RETURNDATASIZE DUP2 REVERT JUMPDEST POP POP PUSH1 0x0 MLOAD RETURNDATASIZE SWAP2 POP DUP2 ISZERO PUSH2 0x1F21 JUMPI DUP1 PUSH1 0x1 EQ ISZERO PUSH2 0x1F2E JUMP JUMPDEST PUSH1 0x1 PUSH1 0x1 PUSH1 0xA0 SHL SUB DUP5 AND EXTCODESIZE ISZERO JUMPDEST ISZERO PUSH2 0x1B42 JUMPI PUSH1 0x40 MLOAD PUSH4 0x5274AFE7 PUSH1 0xE0 SHL DUP2 MSTORE PUSH1 0x1 PUSH1 0x1 PUSH1 0xA0 SHL SUB DUP6 AND PUSH1 0x4 DUP3 ADD MSTORE PUSH1 0x24 ADD PUSH2 0x1916 JUMP JUMPDEST PUSH1 0x0 PUSH2 0x1F6B PUSH8 0xDE0B6B3A7640000 DUP5 PUSH2 0x28A8 JUMP JUMPDEST SWAP1 POP DUP1 PUSH1 0x0 SUB PUSH2 0x1F79 JUMPI POP PUSH1 0x1 JUMPDEST PUSH1 0x1 PUSH1 0x1 PUSH1 0xA0 SHL SUB DUP5 AND PUSH1 0x0 SWAP1 DUP2 MSTORE PUSH1 0xA PUSH1 0x20 MSTORE PUSH1 0x40 DUP2 KECCAK256 DUP1 SLOAD DUP4 SWAP3 SWAP1 PUSH2 0x1FA1 SWAP1 DUP5 SWAP1 PUSH2 0x28CA JUMP JUMPDEST SWAP1 SWAP2 SSTORE POP PUSH1 0x0 SWAP1 POP PUSH2 0x1FBB PUSH8 0xDE0B6B3A7640000 DUP5 PUSH2 0x28A8 JUMP JUMPDEST SWAP1 POP DUP1 PUSH1 0x0 SUB PUSH2 0x1FC9 JUMPI POP PUSH1 0x1 JUMPDEST PUSH1 0x1 PUSH1 0x1 PUSH1 0xA0 SHL SUB DUP6 AND PUSH1 0x0 SWAP1 DUP2 MSTORE PUSH1 0x9 PUSH1 0x20 MSTORE PUSH1 0x40 DUP2 KECCAK256 DUP1 SLOAD DUP4 SWAP3 SWAP1 PUSH2 0x1FF1 SWAP1 DUP5 SWAP1 PUSH2 0x28CA JUMP JUMPDEST SWAP1 SWAP2 SSTORE POP POP PUSH1 0x1 PUSH1 0x1 PUSH1 0xA0 SHL SUB DUP6 AND PUSH1 0x0 SWAP1 DUP2 MSTORE PUSH1 0xA PUSH1 0x20 MSTORE PUSH1 0x40 DUP2 KECCAK256 SLOAD PUSH2 0x2018 SWAP1 PUSH2 0x1E1A JUMP JUMPDEST PUSH1 0x1 PUSH1 0x1 PUSH1 0xA0 SHL SUB DUP8 AND PUSH1 0x0 DUP2 DUP2 MSTORE PUSH1 0x9 PUSH1 0x20 SWAP1 DUP2 MSTORE PUSH1 0x40 DUP1 DUP4 KECCAK256 SLOAD PUSH1 0xA SWAP1 SWAP3 MSTORE SWAP2 DUP3 SWAP1 KECCAK256 SLOAD SWAP2 MLOAD SWAP4 SWAP5 POP SWAP2 SWAP3 PUSH32 0x4146A620F234BE49686701963664655B5FB451997F8462F773D272D68F17043F SWAP3 PUSH2 0x2074 SWAP3 SWAP1 SWAP2 DUP7 SWAP1 PUSH2 0x28DD JUMP JUMPDEST PUSH1 0x40 MLOAD DUP1 SWAP2 SUB SWAP1 LOG2 POP POP POP POP POP POP JUMP JUMPDEST PUSH1 0x40 MLOAD DUP1 PUSH2 0x1C0 ADD PUSH1 0x40 MSTORE DUP1 PUSH1 0x0 DUP2 MSTORE PUSH1 0x20 ADD PUSH1 0x60 DUP2 MSTORE PUSH1 0x20 ADD PUSH1 0x60 DUP2 MSTORE PUSH1 0x20 ADD PUSH1 0x0 DUP2 MSTORE PUSH1 0x20 ADD PUSH1 0x0 PUSH1 0x2 DUP2 GT ISZERO PUSH2 0x20BF JUMPI PUSH2 0x20BF PUSH2 0x2452 JUMP JUMPDEST DUP2 MSTORE PUSH1 0x0 PUSH1 0x20 DUP3 ADD DUP2 SWAP1 MSTORE PUSH1 0x40 DUP3 ADD DUP2 SWAP1 MSTORE PUSH1 0x60 DUP1 DUP4 ADD DUP3 SWAP1 MSTORE PUSH1 0x80 DUP4 ADD DUP3 SWAP1 MSTORE PUSH1 0xA0 DUP4 ADD DUP2 SWAP1 MSTORE PUSH1 0xC0 DUP4 ADD MSTORE PUSH1 0xE0 DUP3 ADD DUP2 SWAP1 MSTORE PUSH2 0x100 DUP3 ADD DUP2 SWAP1 MSTORE PUSH2 0x120 SWAP1 SWAP2 ADD MSTORE SWAP1 JUMP JUMPDEST PUSH1 0x0 DUP1 DUP4 PUSH1 0x1F DUP5 ADD SLT PUSH2 0x2117 JUMPI PUSH1 0x0 DUP1 REVERT JUMPDEST POP DUP2 CALLDATALOAD PUSH1 0x1 PUSH1 0x1 PUSH1 0x40 SHL SUB DUP2 GT ISZERO PUSH2 0x212E JUMPI PUSH1 0x0 DUP1 REVERT JUMPDEST PUSH1 0x20 DUP4 ADD SWAP2 POP DUP4 PUSH1 0x20 DUP3 DUP6 ADD ADD GT ISZERO PUSH2 0x2146 JUMPI PUSH1 0x0 DUP1 REVERT JUMPDEST SWAP3 POP SWAP3 SWAP1 POP JUMP JUMPDEST PUSH1 0x0 DUP1 PUSH1 0x0 DUP1 PUSH1 0x0 PUSH1 0x60 DUP7 DUP9 SUB SLT ISZERO PUSH2 0x2165 JUMPI PUSH1 0x0 DUP1 REVERT JUMPDEST DUP6 CALLDATALOAD SWAP5 POP PUSH1 0x20 DUP7 ADD CALLDATALOAD PUSH1 0x1 PUSH1 0x1 PUSH1 0x40 SHL SUB DUP2 GT ISZERO PUSH2 0x2182 JUMPI PUSH1 0x0 DUP1 REVERT JUMPDEST PUSH2 0x218E DUP9 DUP3 DUP10 ADD PUSH2 0x2105 JUMP JUMPDEST SWAP1 SWAP6 POP SWAP4 POP POP PUSH1 0x40 DUP7 ADD CALLDATALOAD PUSH1 0x1 PUSH1 0x1 PUSH1 0x40 SHL SUB DUP2 GT ISZERO PUSH2 0x21AD JUMPI PUSH1 0x0 DUP1 REVERT JUMPDEST PUSH2 0x21B9 DUP9 DUP3 DUP10 ADD PUSH2 0x2105 JUMP JUMPDEST SWAP7 SWAP10 SWAP6 SWAP9 POP SWAP4 SWAP7 POP SWAP3 SWAP5 SWAP4 SWAP3 POP POP POP JUMP JUMPDEST DUP1 CALLDATALOAD PUSH1 0x1 PUSH1 0x1 PUSH1 0x40 SHL SUB DUP2 AND DUP2 EQ PUSH2 0x21E1 JUMPI PUSH1 0x0 DUP1 REVERT JUMPDEST SWAP2 SWAP1 POP JUMP JUMPDEST PUSH1 0x0 DUP1 PUSH1 0x0 DUP1 PUSH1 0x0 DUP1 PUSH1 0x0 PUSH1 0xA0 DUP9 DUP11 SUB SLT ISZERO PUSH2 0x2201 JUMPI PUSH1 0x0 DUP1 REVERT JUMPDEST DUP8 CALLDATALOAD SWAP7 POP PUSH1 0x20 DUP9 ADD CALLDATALOAD PUSH1 0x1 PUSH1 0x1 PUSH1 0x40 SHL SUB DUP2 GT ISZERO PUSH2 0x221E JUMPI PUSH1 0x0 DUP1 REVERT JUMPDEST PUSH2 0x222A DUP11 DUP3 DUP12 ADD PUSH2 0x2105 JUMP JUMPDEST SWAP1 SWAP8 POP SWAP6 POP POP PUSH1 0x40 DUP9 ADD CALLDATALOAD PUSH1 0x1 PUSH1 0x1 PUSH1 0x40 SHL SUB DUP2 GT ISZERO PUSH2 0x2249 JUMPI PUSH1 0x0 DUP1 REVERT JUMPDEST PUSH2 0x2255 DUP11 DUP3 DUP12 ADD PUSH2 0x2105 JUMP JUMPDEST SWAP1 SWAP6 POP SWAP4 POP POP PUSH1 0x60 DUP9 ADD CALLDATALOAD SWAP2 POP PUSH2 0x226E PUSH1 0x80 DUP10 ADD PUSH2 0x21CA JUMP JUMPDEST SWAP1 POP SWAP3 SWAP6 SWAP9 SWAP2 SWAP5 SWAP8 POP SWAP3 SWAP6 POP JUMP JUMPDEST DUP1 CALLDATALOAD PUSH1 0x1 PUSH1 0x1 PUSH1 0xA0 SHL SUB DUP2 AND DUP2 EQ PUSH2 0x21E1 JUMPI PUSH1 0x0 DUP1 REVERT JUMPDEST PUSH1 0x0 PUSH1 0x20 DUP3 DUP5 SUB SLT ISZERO PUSH2 0x22A5 JUMPI PUSH1 0x0 DUP1 REVERT JUMPDEST PUSH2 0x22AE DUP3 PUSH2 0x227C JUMP JUMPDEST SWAP4 SWAP3 POP POP POP JUMP JUMPDEST PUSH1 0x0 PUSH1 0x20 DUP3 DUP5 SUB SLT ISZERO PUSH2 0x22C7 JUMPI PUSH1 0x0 DUP1 REVERT JUMPDEST POP CALLDATALOAD SWAP2 SWAP1 POP JUMP JUMPDEST PUSH1 0x20 DUP1 DUP3 MSTORE DUP3 MLOAD DUP3 DUP3 ADD DUP2 SWAP1 MSTORE PUSH1 0x0 SWAP2 DUP5 ADD SWAP1 PUSH1 0x40 DUP5 ADD SWAP1 DUP4 JUMPDEST DUP2 DUP2 LT ISZERO PUSH2 0x2306 JUMPI DUP4 MLOAD DUP4 MSTORE PUSH1 0x20 SWAP4 DUP5 ADD SWAP4 SWAP1 SWAP3 ADD SWAP2 PUSH1 0x1 ADD PUSH2 0x22E8 JUMP JUMPDEST POP SWAP1 SWAP6 SWAP5 POP POP POP POP POP JUMP JUMPDEST PUSH1 0x0 DUP1 PUSH1 0x0 DUP1 PUSH1 0x0 DUP1 PUSH1 0x0 PUSH1 0xA0 DUP9 DUP11 SUB SLT ISZERO PUSH2 0x232C JUMPI PUSH1 0x0 DUP1 REVERT JUMPDEST DUP8 CALLDATALOAD PUSH1 0x1 PUSH1 0x1 PUSH1 0x40 SHL SUB DUP2 GT ISZERO PUSH2 0x2342 JUMPI PUSH1 0x0 DUP1 REVERT JUMPDEST PUSH2 0x234E DUP11 DUP3 DUP12 ADD PUSH2 0x2105 JUMP JUMPDEST SWAP1 SWAP9 POP SWAP7 POP POP PUSH1 0x20 DUP9 ADD CALLDATALOAD PUSH1 0x1 PUSH1 0x1 PUSH1 0x40 SHL SUB DUP2 GT ISZERO PUSH2 0x236D JUMPI PUSH1 0x0 DUP1 REVERT JUMPDEST PUSH2 0x2379 DUP11 DUP3 DUP12 ADD PUSH2 0x2105 JUMP JUMPDEST SWAP1 SWAP7 POP SWAP5 POP POP PUSH1 0x40 DUP9 ADD CALLDATALOAD SWAP3 POP PUSH1 0x60 DUP9 ADD CALLDATALOAD PUSH1 0x3 DUP2 LT PUSH2 0x2398 JUMPI PUSH1 0x0 DUP1 REVERT JUMPDEST SWAP2 POP PUSH2 0x226E PUSH1 0x80 DUP10 ADD PUSH2 0x21CA JUMP JUMPDEST DUP1 CALLDATALOAD DUP1 ISZERO ISZERO DUP2 EQ PUSH2 0x21E1 JUMPI PUSH1 0x0 DUP1 REVERT JUMPDEST PUSH1 0x0 DUP1 PUSH1 0x40 DUP4 DUP6 SUB SLT ISZERO PUSH2 0x23C9 JUMPI PUSH1 0x0 DUP1 REVERT JUMPDEST DUP3 CALLDATALOAD SWAP2 POP PUSH2 0x23D9 PUSH1 0x20 DUP5 ADD PUSH2 0x23A6 JUMP JUMPDEST SWAP1 POP SWAP3 POP SWAP3 SWAP1 POP JUMP JUMPDEST PUSH1 0x0 DUP1 PUSH1 0x40 DUP4 DUP6 SUB SLT ISZERO PUSH2 0x23F5 JUMPI PUSH1 0x0 DUP1 REVERT JUMPDEST PUSH2 0x23FE DUP4 PUSH2 0x227C JUMP JUMPDEST SWAP2 POP PUSH2 0x23D9 PUSH1 0x20 DUP5 ADD PUSH2 0x23A6 JUMP JUMPDEST PUSH1 0x0 DUP2 MLOAD DUP1 DUP5 MSTORE PUSH1 0x0 JUMPDEST DUP2 DUP2 LT ISZERO PUSH2 0x2432 JUMPI PUSH1 0x20 DUP2 DUP6 ADD DUP2 ADD MLOAD DUP7 DUP4 ADD DUP3 ADD MSTORE ADD PUSH2 0x2416 JUMP JUMPDEST POP PUSH1 0x0 PUSH1 0x20 DUP3 DUP7 ADD ADD MSTORE PUSH1 0x20 PUSH1 0x1F NOT PUSH1 0x1F DUP4 ADD AND DUP6 ADD ADD SWAP2 POP POP SWAP3 SWAP2 POP POP JUMP JUMPDEST PUSH4 0x4E487B71 PUSH1 0xE0 SHL PUSH1 0x0 MSTORE PUSH1 0x21 PUSH1 0x4 MSTORE PUSH1 0x24 PUSH1 0x0 REVERT JUMPDEST PUSH1 0x3 DUP2 LT PUSH2 0x2478 JUMPI PUSH2 0x2478 PUSH2 0x2452 JUMP JUMPDEST SWAP1 MSTORE JUMP JUMPDEST PUSH1 0x6 DUP2 LT PUSH2 0x2478 JUMPI PUSH2 0x2478 PUSH2 0x2452 JUMP JUMPDEST DUP1 MLOAD DUP3 MSTORE PUSH1 0x0 PUSH1 0x20 DUP3 ADD MLOAD PUSH2 0x1C0 PUSH1 0x20 DUP6 ADD MSTORE PUSH2 0x24AD PUSH2 0x1C0 DUP6 ADD DUP3 PUSH2 0x240C JUMP JUMPDEST SWAP1 POP PUSH1 0x40 DUP4 ADD MLOAD DUP5 DUP3 SUB PUSH1 0x40 DUP7 ADD MSTORE PUSH2 0x24C6 DUP3 DUP3 PUSH2 0x240C JUMP JUMPDEST SWAP2 POP POP PUSH1 0x60 DUP4 ADD MLOAD PUSH1 0x60 DUP6 ADD MSTORE PUSH1 0x80 DUP4 ADD MLOAD PUSH2 0x24E5 PUSH1 0x80 DUP7 ADD DUP3 PUSH2 0x2468 JUMP JUMPDEST POP PUSH1 0xA0 DUP4 ADD MLOAD PUSH2 0x2500 PUSH1 0xA0 DUP7 ADD DUP3 PUSH1 0x1 PUSH1 0x1 PUSH1 0x40 SHL SUB AND SWAP1 MSTORE JUMP JUMPDEST POP PUSH1 0xC0 DUP4 ADD MLOAD PUSH2 0x251B PUSH1 0xC0 DUP7 ADD DUP3 PUSH1 0x1 PUSH1 0x1 PUSH1 0xA0 SHL SUB AND SWAP1 MSTORE JUMP JUMPDEST POP PUSH1 0xE0 DUP4 ADD MLOAD PUSH2 0x2536 PUSH1 0xE0 DUP7 ADD DUP3 PUSH1 0x1 PUSH1 0x1 PUSH1 0xA0 SHL SUB AND SWAP1 MSTORE JUMP JUMPDEST POP PUSH2 0x100 DUP4 ADD MLOAD PUSH2 0x254B PUSH2 0x100 DUP7 ADD DUP3 PUSH2 0x247C JUMP JUMPDEST POP PUSH2 0x120 DUP4 ADD MLOAD DUP5 DUP3 SUB PUSH2 0x120 DUP7 ADD MSTORE PUSH2 0x2565 DUP3 DUP3 PUSH2 0x240C JUMP JUMPDEST SWAP2 POP POP PUSH2 0x140 DUP4 ADD MLOAD DUP5 DUP3 SUB PUSH2 0x140 DUP7 ADD MSTORE PUSH2 0x2581 DUP3 DUP3 PUSH2 0x240C JUMP JUMPDEST SWAP2 POP POP PUSH2 0x160 DUP4 ADD MLOAD PUSH2 0x2599 PUSH2 0x160 DUP7 ADD DUP3 ISZERO ISZERO SWAP1 MSTORE JUMP JUMPDEST POP PUSH2 0x180 DUP4 ADD MLOAD PUSH2 0x25AF PUSH2 0x180 DUP7 ADD DUP3 ISZERO ISZERO SWAP1 MSTORE JUMP JUMPDEST POP PUSH2 0x1A0 DUP4 ADD MLOAD PUSH2 0x25C5 PUSH2 0x1A0 DUP7 ADD DUP3 ISZERO ISZERO SWAP1 MSTORE JUMP JUMPDEST POP SWAP4 SWAP3 POP POP POP JUMP JUMPDEST PUSH1 0x0 PUSH1 0x20 DUP3 ADD PUSH1 0x20 DUP4 MSTORE DUP1 DUP5 MLOAD DUP1 DUP4 MSTORE PUSH1 0x40 DUP6 ADD SWAP2 POP PUSH1 0x40 DUP2 PUSH1 0x5 SHL DUP7 ADD ADD SWAP3 POP PUSH1 0x20 DUP7 ADD PUSH1 0x0 JUMPDEST DUP3 DUP2 LT ISZERO PUSH2 0x2626 JUMPI PUSH1 0x3F NOT DUP8 DUP7 SUB ADD DUP5 MSTORE PUSH2 0x2611 DUP6 DUP4 MLOAD PUSH2 0x248C JUMP JUMPDEST SWAP5 POP PUSH1 0x20 SWAP4 DUP5 ADD SWAP4 SWAP2 SWAP1 SWAP2 ADD SWAP1 PUSH1 0x1 ADD PUSH2 0x25F5 JUMP JUMPDEST POP SWAP3 SWAP7 SWAP6 POP POP POP POP POP POP JUMP JUMPDEST PUSH1 0x20 DUP2 MSTORE PUSH1 0x0 PUSH2 0x22AE PUSH1 0x20 DUP4 ADD DUP5 PUSH2 0x248C JUMP JUMPDEST PUSH1 0x0 DUP1 PUSH1 0x40 DUP4 DUP6 SUB SLT ISZERO PUSH2 0x2658 JUMPI PUSH1 0x0 DUP1 REVERT JUMPDEST DUP3 CALLDATALOAD SWAP2 POP PUSH2 0x23D9 PUSH1 0x20 DUP5 ADD PUSH2 0x227C JUMP JUMPDEST PUSH1 0x20 DUP2 MSTORE DUP2 MLOAD PUSH1 0x20 DUP3 ADD MSTORE PUSH1 0x20 DUP3 ADD MLOAD PUSH1 0x40 DUP3 ADD MSTORE PUSH1 0x0 PUSH1 0x40 DUP4 ADD MLOAD PUSH1 0x60 DUP1 DUP5 ADD MSTORE PUSH2 0x2697 PUSH1 0x80 DUP5 ADD DUP3 PUSH2 0x240C JUMP JUMPDEST SWAP5 SWAP4 POP POP POP POP JUMP JUMPDEST PUSH4 0x4E487B71 PUSH1 0xE0 SHL PUSH1 0x0 MSTORE PUSH1 0x41 PUSH1 0x4 MSTORE PUSH1 0x24 PUSH1 0x0 REVERT JUMPDEST PUSH1 0x1 DUP2 DUP2 SHR SWAP1 DUP3 AND DUP1 PUSH2 0x26C9 JUMPI PUSH1 0x7F DUP3 AND SWAP2 POP JUMPDEST PUSH1 0x20 DUP3 LT DUP2 SUB PUSH2 0x17FE JUMPI PUSH4 0x4E487B71 PUSH1 0xE0 SHL PUSH1 0x0 MSTORE PUSH1 0x22 PUSH1 0x4 MSTORE PUSH1 0x24 PUSH1 0x0 REVERT JUMPDEST PUSH1 0x1F DUP3 GT ISZERO PUSH2 0x1B79 JUMPI DUP1 PUSH1 0x0 MSTORE PUSH1 0x20 PUSH1 0x0 KECCAK256 PUSH1 0x1F DUP5 ADD PUSH1 0x5 SHR DUP2 ADD PUSH1 0x20 DUP6 LT ISZERO PUSH2 0x2710 JUMPI POP DUP1 JUMPDEST PUSH1 0x1F DUP5 ADD PUSH1 0x5 SHR DUP3 ADD SWAP2 POP JUMPDEST DUP2 DUP2 LT ISZERO PUSH2 0x2730 JUMPI PUSH1 0x0 DUP2 SSTORE PUSH1 0x1 ADD PUSH2 0x271C JUMP JUMPDEST POP POP POP POP POP JUMP JUMPDEST PUSH1 0x1 PUSH1 0x1 PUSH1 0x40 SHL SUB DUP4 GT ISZERO PUSH2 0x274E JUMPI PUSH2 0x274E PUSH2 0x269F JUMP JUMPDEST PUSH2 0x2762 DUP4 PUSH2 0x275C DUP4 SLOAD PUSH2 0x26B5 JUMP JUMPDEST DUP4 PUSH2 0x26E9 JUMP JUMPDEST PUSH1 0x0 PUSH1 0x1F DUP5 GT PUSH1 0x1 DUP2 EQ PUSH2 0x2796 JUMPI PUSH1 0x0 DUP6 ISZERO PUSH2 0x277E JUMPI POP DUP4 DUP3 ADD CALLDATALOAD JUMPDEST PUSH1 0x0 NOT PUSH1 0x3 DUP8 SWAP1 SHL SHR NOT AND PUSH1 0x1 DUP7 SWAP1 SHL OR DUP4 SSTORE PUSH2 0x2730 JUMP JUMPDEST PUSH1 0x0 DUP4 DUP2 MSTORE PUSH1 0x20 SWAP1 KECCAK256 PUSH1 0x1F NOT DUP7 AND SWAP1 DUP4 JUMPDEST DUP3 DUP2 LT ISZERO PUSH2 0x27C7 JUMPI DUP7 DUP6 ADD CALLDATALOAD DUP3 SSTORE PUSH1 0x20 SWAP5 DUP6 ADD SWAP5 PUSH1 0x1 SWAP1 SWAP3 ADD SWAP2 ADD PUSH2 0x27A7 JUMP JUMPDEST POP DUP7 DUP3 LT ISZERO PUSH2 0x27E4 JUMPI PUSH1 0x0 NOT PUSH1 0xF8 DUP9 PUSH1 0x3 SHL AND SHR NOT DUP5 DUP8 ADD CALLDATALOAD AND DUP2 SSTORE JUMPDEST POP POP PUSH1 0x1 DUP6 PUSH1 0x1 SHL ADD DUP4 SSTORE POP POP POP POP POP JUMP JUMPDEST PUSH1 0x20 DUP2 MSTORE DUP2 PUSH1 0x20 DUP3 ADD MSTORE DUP2 DUP4 PUSH1 0x40 DUP4 ADD CALLDATACOPY PUSH1 0x0 DUP2 DUP4 ADD PUSH1 0x40 SWAP1 DUP2 ADD SWAP2 SWAP1 SWAP2 MSTORE PUSH1 0x1F SWAP1 SWAP3 ADD PUSH1 0x1F NOT AND ADD ADD SWAP2 SWAP1 POP JUMP JUMPDEST PUSH4 0x4E487B71 PUSH1 0xE0 SHL PUSH1 0x0 MSTORE PUSH1 0x11 PUSH1 0x4 MSTORE PUSH1 0x24 PUSH1 0x0 REVERT JUMPDEST DUP2 DUP2 SUB DUP2 DUP2 GT ISZERO PUSH2 0x284E JUMPI PUSH2 0x284E PUSH2 0x2825 JUMP JUMPDEST SWAP3 SWAP2 POP POP JUMP JUMPDEST PUSH1 0x0 PUSH1 0x1 DUP3 ADD PUSH2 0x2866 JUMPI PUSH2 0x2866 PUSH2 0x2825 JUMP JUMPDEST POP PUSH1 0x1 ADD SWAP1 JUMP JUMPDEST PUSH1 0x20 DUP2 ADD PUSH2 0x284E DUP3 DUP5 PUSH2 0x247C JUMP JUMPDEST PUSH4 0x4E487B71 PUSH1 0xE0 SHL PUSH1 0x0 MSTORE PUSH1 0x32 PUSH1 0x4 MSTORE PUSH1 0x24 PUSH1 0x0 REVERT JUMPDEST DUP1 DUP3 MUL DUP2 ISZERO DUP3 DUP3 DIV DUP5 EQ OR PUSH2 0x284E JUMPI PUSH2 0x284E PUSH2 0x2825 JUMP JUMPDEST PUSH1 0x0 DUP3 PUSH2 0x28C5 JUMPI PUSH4 0x4E487B71 PUSH1 0xE0 SHL PUSH1 0x0 MSTORE PUSH1 0x12 PUSH1 0x4 MSTORE PUSH1 0x24 PUSH1 0x0 REVERT JUMPDEST POP DIV SWAP1 JUMP JUMPDEST DUP1 DUP3 ADD DUP1 DUP3 GT ISZERO PUSH2 0x284E JUMPI PUSH2 0x284E PUSH2 0x2825 JUMP JUMPDEST DUP4 DUP2 MSTORE DUP3 PUSH1 0x20 DUP3 ADD MSTORE PUSH1 0x60 PUSH1 0x40 DUP3 ADD MSTORE PUSH1 0x0 PUSH2 0x28FC PUSH1 0x60 DUP4 ADD DUP5 PUSH2 0x240C JUMP JUMPDEST SWAP6 SWAP5 POP POP POP POP POP JUMP INVALID LOG2 PUSH5 0x6970667358 0x22 SLT KECCAK256 LOG2 PUSH29 0xAE9BFB4AFD3C9DCB8AE08BD00D811E75FEE021FFEE95987B4667EB57BA SLOAD PUSH5 0x736F6C6343 STOP ADDMOD SHR STOP CALLER "
        },
        "methodIdentifiers": {
          "acceptQuest(uint256)": "139f399a",
          "approvedCreators(address)": "55232467",
          "cancelQuest(uint256)": "fe90ff7d",
          "claimReward(uint256)": "ae169a50",
          "createQuest(string,string,uint256,uint8,uint64)": "560483c7",
          "feeRecipient()": "46904840",
          "getAvailableQuests()": "a047a000",
          "getCreatorQuests(address)": "4f351884",
          "getQuestDetails(uint256)": "b0f929b0",
          "getUserQuests(address)": "4e08dab0",
          "getUserReputation(address)": "baccbfdb",
          "owner()": "8da5cb5b",
          "platformFeeBps()": "22dcd13e",
          "questCounter()": "7d7591f0",
          "renounceOwnership()": "715018a6",
          "setCreatorStatus(address,bool)": "9e86b057",
          "setPlatformFee(uint256,address)": "b4d884f6",
          "stableToken()": "a9d75b2b",
          "submitProof(uint256,string,string)": "07f4f284",
          "transferOwnership(address)": "f2fde38b",
          "updateQuest(uint256,string,string,uint256,uint64)": "0f373d41",
          "userReputation(address)": "e503bb05",
          "userXp(address)": "12e0b1b6",
          "verifyQuest(uint256,bool)": "8f060361"
        }
      }
    }
  }
}