{
  "contracts/QuestRegistry.sol": {
    "QuestRegistry": {
      "abi": [
        {
          "inputs": [],
          "stateMutability": "nonpayable",
          "type": "constructor"
        },
        {
          "inputs": [
            {
              "internalType": "address",
              "name": "owner",
              "type": "address"
            }
          ],
          "name": "OwnableInvalidOwner",
          "type": "error"
        },
        {
          "inputs": [
            {
              "internalType": "address",
              "name": "account",
              "type": "address"
            }
          ],
          "name": "OwnableUnauthorizedAccount",
          "type": "error"
        },
        {
          "inputs": [],
          "name": "QuestRegistry__InvalidQuest",
          "type": "error"
        },
        {
          "inputs": [],
          "name": "QuestRegistry__QuestAlreadyExists",
          "type": "error"
        },
        {
          "inputs": [],
          "name": "QuestRegistry__QuestNotFound",
          "type": "error"
        },
        {
          "inputs": [],
          "name": "QuestRegistry__Unauthorized",
          "type": "error"
        },
        {
          "anonymous": false,
          "inputs": [
            {
              "indexed": true,
              "internalType": "address",
              "name": "previousOwner",
              "type": "address"
            },
            {
              "indexed": true,
              "internalType": "address",
              "name": "newOwner",
              "type": "address"
            }
          ],
          "name": "OwnershipTransferred",
          "type": "event"
        },
        {
          "anonymous": false,
          "inputs": [
            {
              "indexed": true,
              "internalType": "address",
              "name": "questArcade",
              "type": "address"
            }
          ],
          "name": "QuestArcadeUpdated",
          "type": "event"
        },
        {
          "anonymous": false,
          "inputs": [
            {
              "indexed": true,
              "internalType": "uint256",
              "name": "questId",
              "type": "uint256"
            },
            {
              "indexed": false,
              "internalType": "string",
              "name": "metadataURI",
              "type": "string"
            },
            {
              "indexed": false,
              "internalType": "uint64",
              "name": "deadline",
              "type": "uint64"
            },
            {
              "indexed": false,
              "internalType": "uint256",
              "name": "rewardAmount",
              "type": "uint256"
            }
          ],
          "name": "QuestMetadataUpdated",
          "type": "event"
        },
        {
          "anonymous": false,
          "inputs": [
            {
              "indexed": true,
              "internalType": "uint256",
              "name": "questId",
              "type": "uint256"
            },
            {
              "indexed": true,
              "internalType": "address",
              "name": "creator",
              "type": "address"
            },
            {
              "components": [
                {
                  "internalType": "uint256",
                  "name": "questId",
                  "type": "uint256"
                },
                {
                  "internalType": "address",
                  "name": "creator",
                  "type": "address"
                },
                {
                  "internalType": "string",
                  "name": "title",
                  "type": "string"
                },
                {
                  "internalType": "string",
                  "name": "description",
                  "type": "string"
                },
                {
                  "internalType": "string",
                  "name": "metadataURI",
                  "type": "string"
                },
                {
                  "internalType": "uint64",
                  "name": "deadline",
                  "type": "uint64"
                },
                {
                  "internalType": "uint256",
                  "name": "rewardAmount",
                  "type": "uint256"
                },
                {
                  "internalType": "enum QuestRegistry.QuestState",
                  "name": "state",
                  "type": "uint8"
                },
                {
                  "internalType": "bool",
                  "name": "exists",
                  "type": "bool"
                }
              ],
              "indexed": false,
              "internalType": "struct QuestRegistry.QuestMetadata",
              "name": "metadata",
              "type": "tuple"
            }
          ],
          "name": "QuestRegistered",
          "type": "event"
        },
        {
          "anonymous": false,
          "inputs": [
            {
              "indexed": true,
              "internalType": "uint256",
              "name": "questId",
              "type": "uint256"
            },
            {
              "indexed": false,
              "internalType": "enum QuestRegistry.QuestState",
              "name": "previousState",
              "type": "uint8"
            },
            {
              "indexed": false,
              "internalType": "enum QuestRegistry.QuestState",
              "name": "newState",
              "type": "uint8"
            }
          ],
          "name": "QuestStateUpdated",
          "type": "event"
        },
        {
          "inputs": [
            {
              "internalType": "uint256",
              "name": "questId",
              "type": "uint256"
            }
          ],
          "name": "getQuest",
          "outputs": [
            {
              "components": [
                {
                  "internalType": "uint256",
                  "name": "questId",
                  "type": "uint256"
                },
                {
                  "internalType": "address",
                  "name": "creator",
                  "type": "address"
                },
                {
                  "internalType": "string",
                  "name": "title",
                  "type": "string"
                },
                {
                  "internalType": "string",
                  "name": "description",
                  "type": "string"
                },
                {
                  "internalType": "string",
                  "name": "metadataURI",
                  "type": "string"
                },
                {
                  "internalType": "uint64",
                  "name": "deadline",
                  "type": "uint64"
                },
                {
                  "internalType": "uint256",
                  "name": "rewardAmount",
                  "type": "uint256"
                },
                {
                  "internalType": "enum QuestRegistry.QuestState",
                  "name": "state",
                  "type": "uint8"
                },
                {
                  "internalType": "bool",
                  "name": "exists",
                  "type": "bool"
                }
              ],
              "internalType": "struct QuestRegistry.QuestMetadata",
              "name": "",
              "type": "tuple"
            }
          ],
          "stateMutability": "view",
          "type": "function"
        },
        {
          "inputs": [],
          "name": "owner",
          "outputs": [
            {
              "internalType": "address",
              "name": "",
              "type": "address"
            }
          ],
          "stateMutability": "view",
          "type": "function"
        },
        {
          "inputs": [],
          "name": "questArcade",
          "outputs": [
            {
              "internalType": "address",
              "name": "",
              "type": "address"
            }
          ],
          "stateMutability": "view",
          "type": "function"
        },
        {
          "inputs": [
            {
              "internalType": "uint256",
              "name": "questId",
              "type": "uint256"
            }
          ],
          "name": "questExists",
          "outputs": [
            {
              "internalType": "bool",
              "name": "",
              "type": "bool"
            }
          ],
          "stateMutability": "view",
          "type": "function"
        },
        {
          "inputs": [
            {
              "internalType": "uint256",
              "name": "questId",
              "type": "uint256"
            },
            {
              "internalType": "address",
              "name": "creator",
              "type": "address"
            },
            {
              "internalType": "string",
              "name": "title",
              "type": "string"
            },
            {
              "internalType": "string",
              "name": "description",
              "type": "string"
            },
            {
              "internalType": "string",
              "name": "metadataURI",
              "type": "string"
            },
            {
              "internalType": "uint64",
              "name": "deadline",
              "type": "uint64"
            },
            {
              "internalType": "uint256",
              "name": "rewardAmount",
              "type": "uint256"
            }
          ],
          "name": "registerQuest",
          "outputs": [],
          "stateMutability": "nonpayable",
          "type": "function"
        },
        {
          "inputs": [],
          "name": "renounceOwnership",
          "outputs": [],
          "stateMutability": "nonpayable",
          "type": "function"
        },
        {
          "inputs": [
            {
              "internalType": "address",
              "name": "newQuestArcade",
              "type": "address"
            }
          ],
          "name": "setQuestArcade",
          "outputs": [],
          "stateMutability": "nonpayable",
          "type": "function"
        },
        {
          "inputs": [
            {
              "internalType": "address",
              "name": "newOwner",
              "type": "address"
            }
          ],
          "name": "transferOwnership",
          "outputs": [],
          "stateMutability": "nonpayable",
          "type": "function"
        },
        {
          "inputs": [
            {
              "internalType": "uint256",
              "name": "questId",
              "type": "uint256"
            },
            {
              "internalType": "string",
              "name": "metadataURI",
              "type": "string"
            },
            {
              "internalType": "uint64",
              "name": "deadline",
              "type": "uint64"
            },
            {
              "internalType": "uint256",
              "name": "rewardAmount",
              "type": "uint256"
            }
          ],
          "name": "updateQuestMetadata",
          "outputs": [],
          "stateMutability": "nonpayable",
          "type": "function"
        },
        {
          "inputs": [
            {
              "internalType": "uint256",
              "name": "questId",
              "type": "uint256"
            },
            {
              "internalType": "enum QuestRegistry.QuestState",
              "name": "newState",
              "type": "uint8"
            }
          ],
          "name": "updateQuestState",
          "outputs": [],
          "stateMutability": "nonpayable",
          "type": "function"
        }
      ],
      "evm": {
        "bytecode": {
          "linkReferences": {},
          "object": "6080604052348015600f57600080fd5b503380603557604051631e4fbdf760e01b81526000600482015260240160405180910390fd5b603c816041565b506091565b600080546001600160a01b038381166001600160a01b0319831681178455604051919092169283917f8be0079c531659141344cd1fd0a4f28419497f9722a3daafe3b4186f6b6457e09190a35050565b6110f5806100a06000396000f3fe608060405234801561001057600080fd5b506004361061009e5760003560e01c80639edf5a69116100665780639edf5a6914610149578063a1a6a7761461015c578063ae82222f1461016f578063b41ae24714610182578063f2fde38b1461019557600080fd5b806349f86f34146100a35780635d4330bf146100cc578063715018a6146100e157806375be329b146100e95780638da5cb5b14610124575b600080fd5b6100b66100b1366004610ac4565b6101a8565b6040516100c39190610b5b565b60405180910390f35b6100df6100da366004610c48565b610431565b005b6100df6104aa565b6101146100f7366004610ac4565b600090815260016020526040902060070154610100900460ff1690565b60405190151581526020016100c3565b6000546001600160a01b03165b6040516001600160a01b0390911681526020016100c3565b6100df610157366004610cc9565b6104be565b600254610131906001600160a01b031681565b6100df61017d366004610da6565b6107b6565b6100df610190366004610e0b565b6108af565b6100df6101a3366004610c48565b610995565b6101b0610a55565b600082815260016020818152604080842081516101208101835281548152938101546001600160a01b031692840192909252600282018054918401916101f590610e3f565b80601f016020809104026020016040519081016040528092919081815260200182805461022190610e3f565b801561026e5780601f106102435761010080835404028352916020019161026e565b820191906000526020600020905b81548152906001019060200180831161025157829003601f168201915b5050505050815260200160038201805461028790610e3f565b80601f01602080910402602001604051908101604052809291908181526020018280546102b390610e3f565b80156103005780601f106102d557610100808354040283529160200191610300565b820191906000526020600020905b8154815290600101906020018083116102e357829003601f168201915b5050505050815260200160048201805461031990610e3f565b80601f016020809104026020016040519081016040528092919081815260200182805461034590610e3f565b80156103925780601f1061036757610100808354040283529160200191610392565b820191906000526020600020905b81548152906001019060200180831161037557829003601f168201915b50505091835250506005828101546001600160401b0316602083015260068301546040830152600783015460609092019160ff16908111156103d6576103d6610b23565b60058111156103e7576103e7610b23565b81526020016007820160019054906101000a900460ff161515151581525050905080610100015161042b5760405163c971547f60e01b815260040160405180910390fd5b92915050565b6104396109d8565b6001600160a01b03811661046057604051635c5ba3df60e01b815260040160405180910390fd5b600280546001600160a01b0319166001600160a01b0383169081179091556040517f628b03a2737dcbc78dccf126de4e62e205a763879aba55d8a3097d4e90d0a77590600090a250565b6104b26109d8565b6104bc6000610a05565b565b6000546001600160a01b031633148015906104e457506002546001600160a01b03163314155b156105025760405163acf1b54560e01b815260040160405180910390fd5b89158061051657506001600160a01b038916155b8061051f575086155b1561053d57604051635c5ba3df60e01b815260040160405180910390fd5b60008a815260016020526040902060070154610100900460ff161561057557604051630a197c4960e01b815260040160405180910390fd5b60006040518061012001604052808c81526020018b6001600160a01b031681526020018a8a8080601f016020809104026020016040519081016040528093929190818152602001838380828437600092019190915250505090825250604080516020601f8b0181900481028201810190925289815291810191908a908a9081908401838280828437600092019190915250505090825250604080516020601f8901819004810282018101909252878152918101919088908890819084018382808284376000920191909152505050908252506001600160401b038516602082015260408101849052606001600181526001602091820181905260008e8152818352604090819020845181559284015191830180546001600160a01b0319166001600160a01b0390931692909217909155820151919250829160028201906106bc9082610ede565b50606082015160038201906106d19082610ede565b50608082015160048201906106e69082610ede565b5060a08201516005828101805467ffffffffffffffff19166001600160401b039093169290921790915560c0830151600683015560e08301516007830180549192909160ff191690600190849081111561074257610742610b23565b021790555061010091820151600791909101805461ff0019169115159092021790556040516001600160a01b038b16908c907f91b4466a9b276e9c47777960fe75f1665d6c533cf9f9677a6f480f179793e271906107a1908590610b5b565b60405180910390a35050505050505050505050565b6000546001600160a01b031633148015906107dc57506002546001600160a01b03163314155b156107fa5760405163acf1b54560e01b815260040160405180910390fd5b60008581526001602052604090206007810154610100900460ff166108325760405163c971547f60e01b815260040160405180910390fd5b60048101610841858783610f9c565b5060058101805467ffffffffffffffff19166001600160401b0385161790556006810182905560405186907f5736f4b1a67110fe03d070f6fee264183fa045714be19ac93f36530280fde4059061089f90889088908890889061105b565b60405180910390a2505050505050565b6000546001600160a01b031633148015906108d557506002546001600160a01b03163314155b156108f35760405163acf1b54560e01b815260040160405180910390fd5b60008281526001602052604090206007810154610100900460ff1661092b5760405163c971547f60e01b815260040160405180910390fd5b60078101805460ff811691849160ff1916600183600581111561095057610950610b23565b0217905550837f823c59756dab68a87a9996ab8f3a480c2cb4be2608d3d7cafe3ac480b3bd45f382856040516109879291906110a4565b60405180910390a250505050565b61099d6109d8565b6001600160a01b0381166109cc57604051631e4fbdf760e01b8152600060048201526024015b60405180910390fd5b6109d581610a05565b50565b6000546001600160a01b031633146104bc5760405163118cdaa760e01b81523360048201526024016109c3565b600080546001600160a01b038381166001600160a01b0319831681178455604051919092169283917f8be0079c531659141344cd1fd0a4f28419497f9722a3daafe3b4186f6b6457e09190a35050565b6040518061012001604052806000815260200160006001600160a01b0316815260200160608152602001606081526020016060815260200160006001600160401b031681526020016000815260200160006005811115610ab757610ab7610b23565b8152600060209091015290565b600060208284031215610ad657600080fd5b5035919050565b6000815180845260005b81811015610b0357602081850181015186830182015201610ae7565b506000602082860101526020601f19601f83011685010191505092915050565b634e487b7160e01b600052602160045260246000fd5b60068110610b5757634e487b7160e01b600052602160045260246000fd5b9052565b602081528151602082015260006020830151610b8260408401826001600160a01b03169052565b5060408301516101206060840152610b9e610140840182610add565b90506060840151601f19848303016080850152610bbb8282610add565b9150506080840151601f198483030160a0850152610bd98282610add565b91505060a0840151610bf660c08501826001600160401b03169052565b5060c084015160e084015260e0840151610c14610100850182610b39565b50610100840151801515610120850152509392505050565b80356001600160a01b0381168114610c4357600080fd5b919050565b600060208284031215610c5a57600080fd5b610c6382610c2c565b9392505050565b60008083601f840112610c7c57600080fd5b5081356001600160401b03811115610c9357600080fd5b602083019150836020828501011115610cab57600080fd5b9250929050565b80356001600160401b0381168114610c4357600080fd5b60008060008060008060008060008060e08b8d031215610ce857600080fd5b8a359950610cf860208c01610c2c565b985060408b01356001600160401b03811115610d1357600080fd5b610d1f8d828e01610c6a565b90995097505060608b01356001600160401b03811115610d3e57600080fd5b610d4a8d828e01610c6a565b90975095505060808b01356001600160401b03811115610d6957600080fd5b610d758d828e01610c6a565b9095509350610d88905060a08c01610cb2565b9150600060c08c01359050809150509295989b9194979a5092959850565b600080600080600060808688031215610dbe57600080fd5b8535945060208601356001600160401b03811115610ddb57600080fd5b610de788828901610c6a565b9095509350610dfa905060408701610cb2565b949793965091946060013592915050565b60008060408385031215610e1e57600080fd5b82359150602083013560068110610e3457600080fd5b809150509250929050565b600181811c90821680610e5357607f821691505b602082108103610e7357634e487b7160e01b600052602260045260246000fd5b50919050565b634e487b7160e01b600052604160045260246000fd5b601f821115610ed957806000526020600020601f840160051c81016020851015610eb65750805b601f840160051c820191505b81811015610ed65760008155600101610ec2565b50505b505050565b81516001600160401b03811115610ef757610ef7610e79565b610f0b81610f058454610e3f565b84610e8f565b6020601f821160018114610f3f5760008315610f275750848201515b600019600385901b1c1916600184901b178455610ed6565b600084815260208120601f198516915b82811015610f6f5787850151825560209485019460019092019101610f4f565b5084821015610f8d5786840151600019600387901b60f8161c191681555b50505050600190811b01905550565b6001600160401b03831115610fb357610fb3610e79565b610fc783610fc18354610e3f565b83610e8f565b6000601f841160018114610ffb5760008515610fe35750838201355b600019600387901b1c1916600186901b178355610ed6565b600083815260209020601f19861690835b8281101561102c578685013582556020948501946001909201910161100c565b50868210156110495760001960f88860031b161c19848701351681555b505060018560011b0183555050505050565b606081528360608201528385608083013760006080858301015260006080601f19601f87011683010190506001600160401b038416602083015282604083015295945050505050565b604081016110b28285610b39565b610c636020830184610b3956fea2646970667358221220c9d78a9e4b781353ddd0cbf9472f1bc8dda1afc0a57c32459755bb3a9f00274764736f6c634300081c0033",
          "opcodes": "PUSH1 0x80 PUSH1 0x40 MSTORE CALLVALUE DUP1 ISZERO PUSH1 0xF JUMPI PUSH1 0x0 DUP1 REVERT JUMPDEST POP CALLER DUP1 PUSH1 0x35 JUMPI PUSH1 0x40 MLOAD PUSH4 0x1E4FBDF7 PUSH1 0xE0 SHL DUP2 MSTORE PUSH1 0x0 PUSH1 0x4 DUP3 ADD MSTORE PUSH1 0x24 ADD PUSH1 0x40 MLOAD DUP1 SWAP2 SUB SWAP1 REVERT JUMPDEST PUSH1 0x3C DUP2 PUSH1 0x41 JUMP JUMPDEST POP PUSH1 0x91 JUMP JUMPDEST PUSH1 0x0 DUP1 SLOAD PUSH1 0x1 PUSH1 0x1 PUSH1 0xA0 SHL SUB DUP4 DUP2 AND PUSH1 0x1 PUSH1 0x1 PUSH1 0xA0 SHL SUB NOT DUP4 AND DUP2 OR DUP5 SSTORE PUSH1 0x40 MLOAD SWAP2 SWAP1 SWAP3 AND SWAP3 DUP4 SWAP2 PUSH32 0x8BE0079C531659141344CD1FD0A4F28419497F9722A3DAAFE3B4186F6B6457E0 SWAP2 SWAP1 LOG3 POP POP JUMP JUMPDEST PUSH2 0x10F5 DUP1 PUSH2 0xA0 PUSH1 0x0 CODECOPY PUSH1 0x0 RETURN INVALID PUSH1 0x80 PUSH1 0x40 MSTORE CALLVALUE DUP1 ISZERO PUSH2 0x10 JUMPI PUSH1 0x0 DUP1 REVERT JUMPDEST POP PUSH1 0x4 CALLDATASIZE LT PUSH2 0x9E JUMPI PUSH1 0x0 CALLDATALOAD PUSH1 0xE0 SHR DUP1 PUSH4 0x9EDF5A69 GT PUSH2 0x66 JUMPI DUP1 PUSH4 0x9EDF5A69 EQ PUSH2 0x149 JUMPI DUP1 PUSH4 0xA1A6A776 EQ PUSH2 0x15C JUMPI DUP1 PUSH4 0xAE82222F EQ PUSH2 0x16F JUMPI DUP1 PUSH4 0xB41AE247 EQ PUSH2 0x182 JUMPI DUP1 PUSH4 0xF2FDE38B EQ PUSH2 0x195 JUMPI PUSH1 0x0 DUP1 REVERT JUMPDEST DUP1 PUSH4 0x49F86F34 EQ PUSH2 0xA3 JUMPI DUP1 PUSH4 0x5D4330BF EQ PUSH2 0xCC JUMPI DUP1 PUSH4 0x715018A6 EQ PUSH2 0xE1 JUMPI DUP1 PUSH4 0x75BE329B EQ PUSH2 0xE9 JUMPI DUP1 PUSH4 0x8DA5CB5B EQ PUSH2 0x124 JUMPI JUMPDEST PUSH1 0x0 DUP1 REVERT JUMPDEST PUSH2 0xB6 PUSH2 0xB1 CALLDATASIZE PUSH1 0x4 PUSH2 0xAC4 JUMP JUMPDEST PUSH2 0x1A8 JUMP JUMPDEST PUSH1 0x40 MLOAD PUSH2 0xC3 SWAP2 SWAP1 PUSH2 0xB5B JUMP JUMPDEST PUSH1 0x40 MLOAD DUP1 SWAP2 SUB SWAP1 RETURN JUMPDEST PUSH2 0xDF PUSH2 0xDA CALLDATASIZE PUSH1 0x4 PUSH2 0xC48 JUMP JUMPDEST PUSH2 0x431 JUMP JUMPDEST STOP JUMPDEST PUSH2 0xDF PUSH2 0x4AA JUMP JUMPDEST PUSH2 0x114 PUSH2 0xF7 CALLDATASIZE PUSH1 0x4 PUSH2 0xAC4 JUMP JUMPDEST PUSH1 0x0 SWAP1 DUP2 MSTORE PUSH1 0x1 PUSH1 0x20 MSTORE PUSH1 0x40 SWAP1 KECCAK256 PUSH1 0x7 ADD SLOAD PUSH2 0x100 SWAP1 DIV PUSH1 0xFF AND SWAP1 JUMP JUMPDEST PUSH1 0x40 MLOAD SWAP1 ISZERO ISZERO DUP2 MSTORE PUSH1 0x20 ADD PUSH2 0xC3 JUMP JUMPDEST PUSH1 0x0 SLOAD PUSH1 0x1 PUSH1 0x1 PUSH1 0xA0 SHL SUB AND JUMPDEST PUSH1 0x40 MLOAD PUSH1 0x1 PUSH1 0x1 PUSH1 0xA0 SHL SUB SWAP1 SWAP2 AND DUP2 MSTORE PUSH1 0x20 ADD PUSH2 0xC3 JUMP JUMPDEST PUSH2 0xDF PUSH2 0x157 CALLDATASIZE PUSH1 0x4 PUSH2 0xCC9 JUMP JUMPDEST PUSH2 0x4BE JUMP JUMPDEST PUSH1 0x2 SLOAD PUSH2 0x131 SWAP1 PUSH1 0x1 PUSH1 0x1 PUSH1 0xA0 SHL SUB AND DUP2 JUMP JUMPDEST PUSH2 0xDF PUSH2 0x17D CALLDATASIZE PUSH1 0x4 PUSH2 0xDA6 JUMP JUMPDEST PUSH2 0x7B6 JUMP JUMPDEST PUSH2 0xDF PUSH2 0x190 CALLDATASIZE PUSH1 0x4 PUSH2 0xE0B JUMP JUMPDEST PUSH2 0x8AF JUMP JUMPDEST PUSH2 0xDF PUSH2 0x1A3 CALLDATASIZE PUSH1 0x4 PUSH2 0xC48 JUMP JUMPDEST PUSH2 0x995 JUMP JUMPDEST PUSH2 0x1B0 PUSH2 0xA55 JUMP JUMPDEST PUSH1 0x0 DUP3 DUP2 MSTORE PUSH1 0x1 PUSH1 0x20 DUP2 DUP2 MSTORE PUSH1 0x40 DUP1 DUP5 KECCAK256 DUP2 MLOAD PUSH2 0x120 DUP2 ADD DUP4 MSTORE DUP2 SLOAD DUP2 MSTORE SWAP4 DUP2 ADD SLOAD PUSH1 0x1 PUSH1 0x1 PUSH1 0xA0 SHL SUB AND SWAP3 DUP5 ADD SWAP3 SWAP1 SWAP3 MSTORE PUSH1 0x2 DUP3 ADD DUP1 SLOAD SWAP2 DUP5 ADD SWAP2 PUSH2 0x1F5 SWAP1 PUSH2 0xE3F JUMP JUMPDEST DUP1 PUSH1 0x1F ADD PUSH1 0x20 DUP1 SWAP2 DIV MUL PUSH1 0x20 ADD PUSH1 0x40 MLOAD SWAP1 DUP2 ADD PUSH1 0x40 MSTORE DUP1 SWAP3 SWAP2 SWAP1 DUP2 DUP2 MSTORE PUSH1 0x20 ADD DUP3 DUP1 SLOAD PUSH2 0x221 SWAP1 PUSH2 0xE3F JUMP JUMPDEST DUP1 ISZERO PUSH2 0x26E JUMPI DUP1 PUSH1 0x1F LT PUSH2 0x243 JUMPI PUSH2 0x100 DUP1 DUP4 SLOAD DIV MUL DUP4 MSTORE SWAP2 PUSH1 0x20 ADD SWAP2 PUSH2 0x26E JUMP JUMPDEST DUP3 ADD SWAP2 SWAP1 PUSH1 0x0 MSTORE PUSH1 0x20 PUSH1 0x0 KECCAK256 SWAP1 JUMPDEST DUP2 SLOAD DUP2 MSTORE SWAP1 PUSH1 0x1 ADD SWAP1 PUSH1 0x20 ADD DUP1 DUP4 GT PUSH2 0x251 JUMPI DUP3 SWAP1 SUB PUSH1 0x1F AND DUP3 ADD SWAP2 JUMPDEST POP POP POP POP POP DUP2 MSTORE PUSH1 0x20 ADD PUSH1 0x3 DUP3 ADD DUP1 SLOAD PUSH2 0x287 SWAP1 PUSH2 0xE3F JUMP JUMPDEST DUP1 PUSH1 0x1F ADD PUSH1 0x20 DUP1 SWAP2 DIV MUL PUSH1 0x20 ADD PUSH1 0x40 MLOAD SWAP1 DUP2 ADD PUSH1 0x40 MSTORE DUP1 SWAP3 SWAP2 SWAP1 DUP2 DUP2 MSTORE PUSH1 0x20 ADD DUP3 DUP1 SLOAD PUSH2 0x2B3 SWAP1 PUSH2 0xE3F JUMP JUMPDEST DUP1 ISZERO PUSH2 0x300 JUMPI DUP1 PUSH1 0x1F LT PUSH2 0x2D5 JUMPI PUSH2 0x100 DUP1 DUP4 SLOAD DIV MUL DUP4 MSTORE SWAP2 PUSH1 0x20 ADD SWAP2 PUSH2 0x300 JUMP JUMPDEST DUP3 ADD SWAP2 SWAP1 PUSH1 0x0 MSTORE PUSH1 0x20 PUSH1 0x0 KECCAK256 SWAP1 JUMPDEST DUP2 SLOAD DUP2 MSTORE SWAP1 PUSH1 0x1 ADD SWAP1 PUSH1 0x20 ADD DUP1 DUP4 GT PUSH2 0x2E3 JUMPI DUP3 SWAP1 SUB PUSH1 0x1F AND DUP3 ADD SWAP2 JUMPDEST POP POP POP POP POP DUP2 MSTORE PUSH1 0x20 ADD PUSH1 0x4 DUP3 ADD DUP1 SLOAD PUSH2 0x319 SWAP1 PUSH2 0xE3F JUMP JUMPDEST DUP1 PUSH1 0x1F ADD PUSH1 0x20 DUP1 SWAP2 DIV MUL PUSH1 0x20 ADD PUSH1 0x40 MLOAD SWAP1 DUP2 ADD PUSH1 0x40 MSTORE DUP1 SWAP3 SWAP2 SWAP1 DUP2 DUP2 MSTORE PUSH1 0x20 ADD DUP3 DUP1 SLOAD PUSH2 0x345 SWAP1 PUSH2 0xE3F JUMP JUMPDEST DUP1 ISZERO PUSH2 0x392 JUMPI DUP1 PUSH1 0x1F LT PUSH2 0x367 JUMPI PUSH2 0x100 DUP1 DUP4 SLOAD DIV MUL DUP4 MSTORE SWAP2 PUSH1 0x20 ADD SWAP2 PUSH2 0x392 JUMP JUMPDEST DUP3 ADD SWAP2 SWAP1 PUSH1 0x0 MSTORE PUSH1 0x20 PUSH1 0x0 KECCAK256 SWAP1 JUMPDEST DUP2 SLOAD DUP2 MSTORE SWAP1 PUSH1 0x1 ADD SWAP1 PUSH1 0x20 ADD DUP1 DUP4 GT PUSH2 0x375 JUMPI DUP3 SWAP1 SUB PUSH1 0x1F AND DUP3 ADD SWAP2 JUMPDEST POP POP POP SWAP2 DUP4 MSTORE POP POP PUSH1 0x5 DUP3 DUP2 ADD SLOAD PUSH1 0x1 PUSH1 0x1 PUSH1 0x40 SHL SUB AND PUSH1 0x20 DUP4 ADD MSTORE PUSH1 0x6 DUP4 ADD SLOAD PUSH1 0x40 DUP4 ADD MSTORE PUSH1 0x7 DUP4 ADD SLOAD PUSH1 0x60 SWAP1 SWAP3 ADD SWAP2 PUSH1 0xFF AND SWAP1 DUP2 GT ISZERO PUSH2 0x3D6 JUMPI PUSH2 0x3D6 PUSH2 0xB23 JUMP JUMPDEST PUSH1 0x5 DUP2 GT ISZERO PUSH2 0x3E7 JUMPI PUSH2 0x3E7 PUSH2 0xB23 JUMP JUMPDEST DUP2 MSTORE PUSH1 0x20 ADD PUSH1 0x7 DUP3 ADD PUSH1 0x1 SWAP1 SLOAD SWAP1 PUSH2 0x100 EXP SWAP1 DIV PUSH1 0xFF AND ISZERO ISZERO ISZERO ISZERO DUP2 MSTORE POP POP SWAP1 POP DUP1 PUSH2 0x100 ADD MLOAD PUSH2 0x42B JUMPI PUSH1 0x40 MLOAD PUSH4 0xC971547F PUSH1 0xE0 SHL DUP2 MSTORE PUSH1 0x4 ADD PUSH1 0x40 MLOAD DUP1 SWAP2 SUB SWAP1 REVERT JUMPDEST SWAP3 SWAP2 POP POP JUMP JUMPDEST PUSH2 0x439 PUSH2 0x9D8 JUMP JUMPDEST PUSH1 0x1 PUSH1 0x1 PUSH1 0xA0 SHL SUB DUP2 AND PUSH2 0x460 JUMPI PUSH1 0x40 MLOAD PUSH4 0x5C5BA3DF PUSH1 0xE0 SHL DUP2 MSTORE PUSH1 0x4 ADD PUSH1 0x40 MLOAD DUP1 SWAP2 SUB SWAP1 REVERT JUMPDEST PUSH1 0x2 DUP1 SLOAD PUSH1 0x1 PUSH1 0x1 PUSH1 0xA0 SHL SUB NOT AND PUSH1 0x1 PUSH1 0x1 PUSH1 0xA0 SHL SUB DUP4 AND SWAP1 DUP2 OR SWAP1 SWAP2 SSTORE PUSH1 0x40 MLOAD PUSH32 0x628B03A2737DCBC78DCCF126DE4E62E205A763879ABA55D8A3097D4E90D0A775 SWAP1 PUSH1 0x0 SWAP1 LOG2 POP JUMP JUMPDEST PUSH2 0x4B2 PUSH2 0x9D8 JUMP JUMPDEST PUSH2 0x4BC PUSH1 0x0 PUSH2 0xA05 JUMP JUMPDEST JUMP JUMPDEST PUSH1 0x0 SLOAD PUSH1 0x1 PUSH1 0x1 PUSH1 0xA0 SHL SUB AND CALLER EQ DUP1 ISZERO SWAP1 PUSH2 0x4E4 JUMPI POP PUSH1 0x2 SLOAD PUSH1 0x1 PUSH1 0x1 PUSH1 0xA0 SHL SUB AND CALLER EQ ISZERO JUMPDEST ISZERO PUSH2 0x502 JUMPI PUSH1 0x40 MLOAD PUSH4 0xACF1B545 PUSH1 0xE0 SHL DUP2 MSTORE PUSH1 0x4 ADD PUSH1 0x40 MLOAD DUP1 SWAP2 SUB SWAP1 REVERT JUMPDEST DUP10 ISZERO DUP1 PUSH2 0x516 JUMPI POP PUSH1 0x1 PUSH1 0x1 PUSH1 0xA0 SHL SUB DUP10 AND ISZERO JUMPDEST DUP1 PUSH2 0x51F JUMPI POP DUP7 ISZERO JUMPDEST ISZERO PUSH2 0x53D JUMPI PUSH1 0x40 MLOAD PUSH4 0x5C5BA3DF PUSH1 0xE0 SHL DUP2 MSTORE PUSH1 0x4 ADD PUSH1 0x40 MLOAD DUP1 SWAP2 SUB SWAP1 REVERT JUMPDEST PUSH1 0x0 DUP11 DUP2 MSTORE PUSH1 0x1 PUSH1 0x20 MSTORE PUSH1 0x40 SWAP1 KECCAK256 PUSH1 0x7 ADD SLOAD PUSH2 0x100 SWAP1 DIV PUSH1 0xFF AND ISZERO PUSH2 0x575 JUMPI PUSH1 0x40 MLOAD PUSH4 0xA197C49 PUSH1 0xE0 SHL DUP2 MSTORE PUSH1 0x4 ADD PUSH1 0x40 MLOAD DUP1 SWAP2 SUB SWAP1 REVERT JUMPDEST PUSH1 0x0 PUSH1 0x40 MLOAD DUP1 PUSH2 0x120 ADD PUSH1 0x40 MSTORE DUP1 DUP13 DUP2 MSTORE PUSH1 0x20 ADD DUP12 PUSH1 0x1 PUSH1 0x1 PUSH1 0xA0 SHL SUB AND DUP2 MSTORE PUSH1 0x20 ADD DUP11 DUP11 DUP1 DUP1 PUSH1 0x1F ADD PUSH1 0x20 DUP1 SWAP2 DIV MUL PUSH1 0x20 ADD PUSH1 0x40 MLOAD SWAP1 DUP2 ADD PUSH1 0x40 MSTORE DUP1 SWAP4 SWAP3 SWAP2 SWAP1 DUP2 DUP2 MSTORE PUSH1 0x20 ADD DUP4 DUP4 DUP1 DUP3 DUP5 CALLDATACOPY PUSH1 0x0 SWAP3 ADD SWAP2 SWAP1 SWAP2 MSTORE POP POP POP SWAP1 DUP3 MSTORE POP PUSH1 0x40 DUP1 MLOAD PUSH1 0x20 PUSH1 0x1F DUP12 ADD DUP2 SWAP1 DIV DUP2 MUL DUP3 ADD DUP2 ADD SWAP1 SWAP3 MSTORE DUP10 DUP2 MSTORE SWAP2 DUP2 ADD SWAP2 SWAP1 DUP11 SWAP1 DUP11 SWAP1 DUP2 SWAP1 DUP5 ADD DUP4 DUP3 DUP1 DUP3 DUP5 CALLDATACOPY PUSH1 0x0 SWAP3 ADD SWAP2 SWAP1 SWAP2 MSTORE POP POP POP SWAP1 DUP3 MSTORE POP PUSH1 0x40 DUP1 MLOAD PUSH1 0x20 PUSH1 0x1F DUP10 ADD DUP2 SWAP1 DIV DUP2 MUL DUP3 ADD DUP2 ADD SWAP1 SWAP3 MSTORE DUP8 DUP2 MSTORE SWAP2 DUP2 ADD SWAP2 SWAP1 DUP9 SWAP1 DUP9 SWAP1 DUP2 SWAP1 DUP5 ADD DUP4 DUP3 DUP1 DUP3 DUP5 CALLDATACOPY PUSH1 0x0 SWAP3 ADD SWAP2 SWAP1 SWAP2 MSTORE POP POP POP SWAP1 DUP3 MSTORE POP PUSH1 0x1 PUSH1 0x1 PUSH1 0x40 SHL SUB DUP6 AND PUSH1 0x20 DUP3 ADD MSTORE PUSH1 0x40 DUP2 ADD DUP5 SWAP1 MSTORE PUSH1 0x60 ADD PUSH1 0x1 DUP2 MSTORE PUSH1 0x1 PUSH1 0x20 SWAP2 DUP3 ADD DUP2 SWAP1 MSTORE PUSH1 0x0 DUP15 DUP2 MSTORE DUP2 DUP4 MSTORE PUSH1 0x40 SWAP1 DUP2 SWAP1 KECCAK256 DUP5 MLOAD DUP2 SSTORE SWAP3 DUP5 ADD MLOAD SWAP2 DUP4 ADD DUP1 SLOAD PUSH1 0x1 PUSH1 0x1 PUSH1 0xA0 SHL SUB NOT AND PUSH1 0x1 PUSH1 0x1 PUSH1 0xA0 SHL SUB SWAP1 SWAP4 AND SWAP3 SWAP1 SWAP3 OR SWAP1 SWAP2 SSTORE DUP3 ADD MLOAD SWAP2 SWAP3 POP DUP3 SWAP2 PUSH1 0x2 DUP3 ADD SWAP1 PUSH2 0x6BC SWAP1 DUP3 PUSH2 0xEDE JUMP JUMPDEST POP PUSH1 0x60 DUP3 ADD MLOAD PUSH1 0x3 DUP3 ADD SWAP1 PUSH2 0x6D1 SWAP1 DUP3 PUSH2 0xEDE JUMP JUMPDEST POP PUSH1 0x80 DUP3 ADD MLOAD PUSH1 0x4 DUP3 ADD SWAP1 PUSH2 0x6E6 SWAP1 DUP3 PUSH2 0xEDE JUMP JUMPDEST POP PUSH1 0xA0 DUP3 ADD MLOAD PUSH1 0x5 DUP3 DUP2 ADD DUP1 SLOAD PUSH8 0xFFFFFFFFFFFFFFFF NOT AND PUSH1 0x1 PUSH1 0x1 PUSH1 0x40 SHL SUB SWAP1 SWAP4 AND SWAP3 SWAP1 SWAP3 OR SWAP1 SWAP2 SSTORE PUSH1 0xC0 DUP4 ADD MLOAD PUSH1 0x6 DUP4 ADD SSTORE PUSH1 0xE0 DUP4 ADD MLOAD PUSH1 0x7 DUP4 ADD DUP1 SLOAD SWAP2 SWAP3 SWAP1 SWAP2 PUSH1 0xFF NOT AND SWAP1 PUSH1 0x1 SWAP1 DUP5 SWAP1 DUP2 GT ISZERO PUSH2 0x742 JUMPI PUSH2 0x742 PUSH2 0xB23 JUMP JUMPDEST MUL OR SWAP1 SSTORE POP PUSH2 0x100 SWAP2 DUP3 ADD MLOAD PUSH1 0x7 SWAP2 SWAP1 SWAP2 ADD DUP1 SLOAD PUSH2 0xFF00 NOT AND SWAP2 ISZERO ISZERO SWAP1 SWAP3 MUL OR SWAP1 SSTORE PUSH1 0x40 MLOAD PUSH1 0x1 PUSH1 0x1 PUSH1 0xA0 SHL SUB DUP12 AND SWAP1 DUP13 SWAP1 PUSH32 0x91B4466A9B276E9C47777960FE75F1665D6C533CF9F9677A6F480F179793E271 SWAP1 PUSH2 0x7A1 SWAP1 DUP6 SWAP1 PUSH2 0xB5B JUMP JUMPDEST PUSH1 0x40 MLOAD DUP1 SWAP2 SUB SWAP1 LOG3 POP POP POP POP POP POP POP POP POP POP POP JUMP JUMPDEST PUSH1 0x0 SLOAD PUSH1 0x1 PUSH1 0x1 PUSH1 0xA0 SHL SUB AND CALLER EQ DUP1 ISZERO SWAP1 PUSH2 0x7DC JUMPI POP PUSH1 0x2 SLOAD PUSH1 0x1 PUSH1 0x1 PUSH1 0xA0 SHL SUB AND CALLER EQ ISZERO JUMPDEST ISZERO PUSH2 0x7FA JUMPI PUSH1 0x40 MLOAD PUSH4 0xACF1B545 PUSH1 0xE0 SHL DUP2 MSTORE PUSH1 0x4 ADD PUSH1 0x40 MLOAD DUP1 SWAP2 SUB SWAP1 REVERT JUMPDEST PUSH1 0x0 DUP6 DUP2 MSTORE PUSH1 0x1 PUSH1 0x20 MSTORE PUSH1 0x40 SWAP1 KECCAK256 PUSH1 0x7 DUP2 ADD SLOAD PUSH2 0x100 SWAP1 DIV PUSH1 0xFF AND PUSH2 0x832 JUMPI PUSH1 0x40 MLOAD PUSH4 0xC971547F PUSH1 0xE0 SHL DUP2 MSTORE PUSH1 0x4 ADD PUSH1 0x40 MLOAD DUP1 SWAP2 SUB SWAP1 REVERT JUMPDEST PUSH1 0x4 DUP2 ADD PUSH2 0x841 DUP6 DUP8 DUP4 PUSH2 0xF9C JUMP JUMPDEST POP PUSH1 0x5 DUP2 ADD DUP1 SLOAD PUSH8 0xFFFFFFFFFFFFFFFF NOT AND PUSH1 0x1 PUSH1 0x1 PUSH1 0x40 SHL SUB DUP6 AND OR SWAP1 SSTORE PUSH1 0x6 DUP2 ADD DUP3 SWAP1 SSTORE PUSH1 0x40 MLOAD DUP7 SWAP1 PUSH32 0x5736F4B1A67110FE03D070F6FEE264183FA045714BE19AC93F36530280FDE405 SWAP1 PUSH2 0x89F SWAP1 DUP9 SWAP1 DUP9 SWAP1 DUP9 SWAP1 DUP9 SWAP1 PUSH2 0x105B JUMP JUMPDEST PUSH1 0x40 MLOAD DUP1 SWAP2 SUB SWAP1 LOG2 POP POP POP POP POP POP JUMP JUMPDEST PUSH1 0x0 SLOAD PUSH1 0x1 PUSH1 0x1 PUSH1 0xA0 SHL SUB AND CALLER EQ DUP1 ISZERO SWAP1 PUSH2 0x8D5 JUMPI POP PUSH1 0x2 SLOAD PUSH1 0x1 PUSH1 0x1 PUSH1 0xA0 SHL SUB AND CALLER EQ ISZERO JUMPDEST ISZERO PUSH2 0x8F3 JUMPI PUSH1 0x40 MLOAD PUSH4 0xACF1B545 PUSH1 0xE0 SHL DUP2 MSTORE PUSH1 0x4 ADD PUSH1 0x40 MLOAD DUP1 SWAP2 SUB SWAP1 REVERT JUMPDEST PUSH1 0x0 DUP3 DUP2 MSTORE PUSH1 0x1 PUSH1 0x20 MSTORE PUSH1 0x40 SWAP1 KECCAK256 PUSH1 0x7 DUP2 ADD SLOAD PUSH2 0x100 SWAP1 DIV PUSH1 0xFF AND PUSH2 0x92B JUMPI PUSH1 0x40 MLOAD PUSH4 0xC971547F PUSH1 0xE0 SHL DUP2 MSTORE PUSH1 0x4 ADD PUSH1 0x40 MLOAD DUP1 SWAP2 SUB SWAP1 REVERT JUMPDEST PUSH1 0x7 DUP2 ADD DUP1 SLOAD PUSH1 0xFF DUP2 AND SWAP2 DUP5 SWAP2 PUSH1 0xFF NOT AND PUSH1 0x1 DUP4 PUSH1 0x5 DUP2 GT ISZERO PUSH2 0x950 JUMPI PUSH2 0x950 PUSH2 0xB23 JUMP JUMPDEST MUL OR SWAP1 SSTORE POP DUP4 PUSH32 0x823C59756DAB68A87A9996AB8F3A480C2CB4BE2608D3D7CAFE3AC480B3BD45F3 DUP3 DUP6 PUSH1 0x40 MLOAD PUSH2 0x987 SWAP3 SWAP2 SWAP1 PUSH2 0x10A4 JUMP JUMPDEST PUSH1 0x40 MLOAD DUP1 SWAP2 SUB SWAP1 LOG2 POP POP POP POP JUMP JUMPDEST PUSH2 0x99D PUSH2 0x9D8 JUMP JUMPDEST PUSH1 0x1 PUSH1 0x1 PUSH1 0xA0 SHL SUB DUP2 AND PUSH2 0x9CC JUMPI PUSH1 0x40 MLOAD PUSH4 0x1E4FBDF7 PUSH1 0xE0 SHL DUP2 MSTORE PUSH1 0x0 PUSH1 0x4 DUP3 ADD MSTORE PUSH1 0x24 ADD JUMPDEST PUSH1 0x40 MLOAD DUP1 SWAP2 SUB SWAP1 REVERT JUMPDEST PUSH2 0x9D5 DUP2 PUSH2 0xA05 JUMP JUMPDEST POP JUMP JUMPDEST PUSH1 0x0 SLOAD PUSH1 0x1 PUSH1 0x1 PUSH1 0xA0 SHL SUB AND CALLER EQ PUSH2 0x4BC JUMPI PUSH1 0x40 MLOAD PUSH4 0x118CDAA7 PUSH1 0xE0 SHL DUP2 MSTORE CALLER PUSH1 0x4 DUP3 ADD MSTORE PUSH1 0x24 ADD PUSH2 0x9C3 JUMP JUMPDEST PUSH1 0x0 DUP1 SLOAD PUSH1 0x1 PUSH1 0x1 PUSH1 0xA0 SHL SUB DUP4 DUP2 AND PUSH1 0x1 PUSH1 0x1 PUSH1 0xA0 SHL SUB NOT DUP4 AND DUP2 OR DUP5 SSTORE PUSH1 0x40 MLOAD SWAP2 SWAP1 SWAP3 AND SWAP3 DUP4 SWAP2 PUSH32 0x8BE0079C531659141344CD1FD0A4F28419497F9722A3DAAFE3B4186F6B6457E0 SWAP2 SWAP1 LOG3 POP POP JUMP JUMPDEST PUSH1 0x40 MLOAD DUP1 PUSH2 0x120 ADD PUSH1 0x40 MSTORE DUP1 PUSH1 0x0 DUP2 MSTORE PUSH1 0x20 ADD PUSH1 0x0 PUSH1 0x1 PUSH1 0x1 PUSH1 0xA0 SHL SUB AND DUP2 MSTORE PUSH1 0x20 ADD PUSH1 0x60 DUP2 MSTORE PUSH1 0x20 ADD PUSH1 0x60 DUP2 MSTORE PUSH1 0x20 ADD PUSH1 0x60 DUP2 MSTORE PUSH1 0x20 ADD PUSH1 0x0 PUSH1 0x1 PUSH1 0x1 PUSH1 0x40 SHL SUB AND DUP2 MSTORE PUSH1 0x20 ADD PUSH1 0x0 DUP2 MSTORE PUSH1 0x20 ADD PUSH1 0x0 PUSH1 0x5 DUP2 GT ISZERO PUSH2 0xAB7 JUMPI PUSH2 0xAB7 PUSH2 0xB23 JUMP JUMPDEST DUP2 MSTORE PUSH1 0x0 PUSH1 0x20 SWAP1 SWAP2 ADD MSTORE SWAP1 JUMP JUMPDEST PUSH1 0x0 PUSH1 0x20 DUP3 DUP5 SUB SLT ISZERO PUSH2 0xAD6 JUMPI PUSH1 0x0 DUP1 REVERT JUMPDEST POP CALLDATALOAD SWAP2 SWAP1 POP JUMP JUMPDEST PUSH1 0x0 DUP2 MLOAD DUP1 DUP5 MSTORE PUSH1 0x0 JUMPDEST DUP2 DUP2 LT ISZERO PUSH2 0xB03 JUMPI PUSH1 0x20 DUP2 DUP6 ADD DUP2 ADD MLOAD DUP7 DUP4 ADD DUP3 ADD MSTORE ADD PUSH2 0xAE7 JUMP JUMPDEST POP PUSH1 0x0 PUSH1 0x20 DUP3 DUP7 ADD ADD MSTORE PUSH1 0x20 PUSH1 0x1F NOT PUSH1 0x1F DUP4 ADD AND DUP6 ADD ADD SWAP2 POP POP SWAP3 SWAP2 POP POP JUMP JUMPDEST PUSH4 0x4E487B71 PUSH1 0xE0 SHL PUSH1 0x0 MSTORE PUSH1 0x21 PUSH1 0x4 MSTORE PUSH1 0x24 PUSH1 0x0 REVERT JUMPDEST PUSH1 0x6 DUP2 LT PUSH2 0xB57 JUMPI PUSH4 0x4E487B71 PUSH1 0xE0 SHL PUSH1 0x0 MSTORE PUSH1 0x21 PUSH1 0x4 MSTORE PUSH1 0x24 PUSH1 0x0 REVERT JUMPDEST SWAP1 MSTORE JUMP JUMPDEST PUSH1 0x20 DUP2 MSTORE DUP2 MLOAD PUSH1 0x20 DUP3 ADD MSTORE PUSH1 0x0 PUSH1 0x20 DUP4 ADD MLOAD PUSH2 0xB82 PUSH1 0x40 DUP5 ADD DUP3 PUSH1 0x1 PUSH1 0x1 PUSH1 0xA0 SHL SUB AND SWAP1 MSTORE JUMP JUMPDEST POP PUSH1 0x40 DUP4 ADD MLOAD PUSH2 0x120 PUSH1 0x60 DUP5 ADD MSTORE PUSH2 0xB9E PUSH2 0x140 DUP5 ADD DUP3 PUSH2 0xADD JUMP JUMPDEST SWAP1 POP PUSH1 0x60 DUP5 ADD MLOAD PUSH1 0x1F NOT DUP5 DUP4 SUB ADD PUSH1 0x80 DUP6 ADD MSTORE PUSH2 0xBBB DUP3 DUP3 PUSH2 0xADD JUMP JUMPDEST SWAP2 POP POP PUSH1 0x80 DUP5 ADD MLOAD PUSH1 0x1F NOT DUP5 DUP4 SUB ADD PUSH1 0xA0 DUP6 ADD MSTORE PUSH2 0xBD9 DUP3 DUP3 PUSH2 0xADD JUMP JUMPDEST SWAP2 POP POP PUSH1 0xA0 DUP5 ADD MLOAD PUSH2 0xBF6 PUSH1 0xC0 DUP6 ADD DUP3 PUSH1 0x1 PUSH1 0x1 PUSH1 0x40 SHL SUB AND SWAP1 MSTORE JUMP JUMPDEST POP PUSH1 0xC0 DUP5 ADD MLOAD PUSH1 0xE0 DUP5 ADD MSTORE PUSH1 0xE0 DUP5 ADD MLOAD PUSH2 0xC14 PUSH2 0x100 DUP6 ADD DUP3 PUSH2 0xB39 JUMP JUMPDEST POP PUSH2 0x100 DUP5 ADD MLOAD DUP1 ISZERO ISZERO PUSH2 0x120 DUP6 ADD MSTORE POP SWAP4 SWAP3 POP POP POP JUMP JUMPDEST DUP1 CALLDATALOAD PUSH1 0x1 PUSH1 0x1 PUSH1 0xA0 SHL SUB DUP2 AND DUP2 EQ PUSH2 0xC43 JUMPI PUSH1 0x0 DUP1 REVERT JUMPDEST SWAP2 SWAP1 POP JUMP JUMPDEST PUSH1 0x0 PUSH1 0x20 DUP3 DUP5 SUB SLT ISZERO PUSH2 0xC5A JUMPI PUSH1 0x0 DUP1 REVERT JUMPDEST PUSH2 0xC63 DUP3 PUSH2 0xC2C JUMP JUMPDEST SWAP4 SWAP3 POP POP POP JUMP JUMPDEST PUSH1 0x0 DUP1 DUP4 PUSH1 0x1F DUP5 ADD SLT PUSH2 0xC7C JUMPI PUSH1 0x0 DUP1 REVERT JUMPDEST POP DUP2 CALLDATALOAD PUSH1 0x1 PUSH1 0x1 PUSH1 0x40 SHL SUB DUP2 GT ISZERO PUSH2 0xC93 JUMPI PUSH1 0x0 DUP1 REVERT JUMPDEST PUSH1 0x20 DUP4 ADD SWAP2 POP DUP4 PUSH1 0x20 DUP3 DUP6 ADD ADD GT ISZERO PUSH2 0xCAB JUMPI PUSH1 0x0 DUP1 REVERT JUMPDEST SWAP3 POP SWAP3 SWAP1 POP JUMP JUMPDEST DUP1 CALLDATALOAD PUSH1 0x1 PUSH1 0x1 PUSH1 0x40 SHL SUB DUP2 AND DUP2 EQ PUSH2 0xC43 JUMPI PUSH1 0x0 DUP1 REVERT JUMPDEST PUSH1 0x0 DUP1 PUSH1 0x0 DUP1 PUSH1 0x0 DUP1 PUSH1 0x0 DUP1 PUSH1 0x0 DUP1 PUSH1 0xE0 DUP12 DUP14 SUB SLT ISZERO PUSH2 0xCE8 JUMPI PUSH1 0x0 DUP1 REVERT JUMPDEST DUP11 CALLDATALOAD SWAP10 POP PUSH2 0xCF8 PUSH1 0x20 DUP13 ADD PUSH2 0xC2C JUMP JUMPDEST SWAP9 POP PUSH1 0x40 DUP12 ADD CALLDATALOAD PUSH1 0x1 PUSH1 0x1 PUSH1 0x40 SHL SUB DUP2 GT ISZERO PUSH2 0xD13 JUMPI PUSH1 0x0 DUP1 REVERT JUMPDEST PUSH2 0xD1F DUP14 DUP3 DUP15 ADD PUSH2 0xC6A JUMP JUMPDEST SWAP1 SWAP10 POP SWAP8 POP POP PUSH1 0x60 DUP12 ADD CALLDATALOAD PUSH1 0x1 PUSH1 0x1 PUSH1 0x40 SHL SUB DUP2 GT ISZERO PUSH2 0xD3E JUMPI PUSH1 0x0 DUP1 REVERT JUMPDEST PUSH2 0xD4A DUP14 DUP3 DUP15 ADD PUSH2 0xC6A JUMP JUMPDEST SWAP1 SWAP8 POP SWAP6 POP POP PUSH1 0x80 DUP12 ADD CALLDATALOAD PUSH1 0x1 PUSH1 0x1 PUSH1 0x40 SHL SUB DUP2 GT ISZERO PUSH2 0xD69 JUMPI PUSH1 0x0 DUP1 REVERT JUMPDEST PUSH2 0xD75 DUP14 DUP3 DUP15 ADD PUSH2 0xC6A JUMP JUMPDEST SWAP1 SWAP6 POP SWAP4 POP PUSH2 0xD88 SWAP1 POP PUSH1 0xA0 DUP13 ADD PUSH2 0xCB2 JUMP JUMPDEST SWAP2 POP PUSH1 0x0 PUSH1 0xC0 DUP13 ADD CALLDATALOAD SWAP1 POP DUP1 SWAP2 POP POP SWAP3 SWAP6 SWAP9 SWAP12 SWAP2 SWAP5 SWAP8 SWAP11 POP SWAP3 SWAP6 SWAP9 POP JUMP JUMPDEST PUSH1 0x0 DUP1 PUSH1 0x0 DUP1 PUSH1 0x0 PUSH1 0x80 DUP7 DUP9 SUB SLT ISZERO PUSH2 0xDBE JUMPI PUSH1 0x0 DUP1 REVERT JUMPDEST DUP6 CALLDATALOAD SWAP5 POP PUSH1 0x20 DUP7 ADD CALLDATALOAD PUSH1 0x1 PUSH1 0x1 PUSH1 0x40 SHL SUB DUP2 GT ISZERO PUSH2 0xDDB JUMPI PUSH1 0x0 DUP1 REVERT JUMPDEST PUSH2 0xDE7 DUP9 DUP3 DUP10 ADD PUSH2 0xC6A JUMP JUMPDEST SWAP1 SWAP6 POP SWAP4 POP PUSH2 0xDFA SWAP1 POP PUSH1 0x40 DUP8 ADD PUSH2 0xCB2 JUMP JUMPDEST SWAP5 SWAP8 SWAP4 SWAP7 POP SWAP2 SWAP5 PUSH1 0x60 ADD CALLDATALOAD SWAP3 SWAP2 POP POP JUMP JUMPDEST PUSH1 0x0 DUP1 PUSH1 0x40 DUP4 DUP6 SUB SLT ISZERO PUSH2 0xE1E JUMPI PUSH1 0x0 DUP1 REVERT JUMPDEST DUP3 CALLDATALOAD SWAP2 POP PUSH1 0x20 DUP4 ADD CALLDATALOAD PUSH1 0x6 DUP2 LT PUSH2 0xE34 JUMPI PUSH1 0x0 DUP1 REVERT JUMPDEST DUP1 SWAP2 POP POP SWAP3 POP SWAP3 SWAP1 POP JUMP JUMPDEST PUSH1 0x1 DUP2 DUP2 SHR SWAP1 DUP3 AND DUP1 PUSH2 0xE53 JUMPI PUSH1 0x7F DUP3 AND SWAP2 POP JUMPDEST PUSH1 0x20 DUP3 LT DUP2 SUB PUSH2 0xE73 JUMPI PUSH4 0x4E487B71 PUSH1 0xE0 SHL PUSH1 0x0 MSTORE PUSH1 0x22 PUSH1 0x4 MSTORE PUSH1 0x24 PUSH1 0x0 REVERT JUMPDEST POP SWAP2 SWAP1 POP JUMP JUMPDEST PUSH4 0x4E487B71 PUSH1 0xE0 SHL PUSH1 0x0 MSTORE PUSH1 0x41 PUSH1 0x4 MSTORE PUSH1 0x24 PUSH1 0x0 REVERT JUMPDEST PUSH1 0x1F DUP3 GT ISZERO PUSH2 0xED9 JUMPI DUP1 PUSH1 0x0 MSTORE PUSH1 0x20 PUSH1 0x0 KECCAK256 PUSH1 0x1F DUP5 ADD PUSH1 0x5 SHR DUP2 ADD PUSH1 0x20 DUP6 LT ISZERO PUSH2 0xEB6 JUMPI POP DUP1 JUMPDEST PUSH1 0x1F DUP5 ADD PUSH1 0x5 SHR DUP3 ADD SWAP2 POP JUMPDEST DUP2 DUP2 LT ISZERO PUSH2 0xED6 JUMPI PUSH1 0x0 DUP2 SSTORE PUSH1 0x1 ADD PUSH2 0xEC2 JUMP JUMPDEST POP POP JUMPDEST POP POP POP JUMP JUMPDEST DUP2 MLOAD PUSH1 0x1 PUSH1 0x1 PUSH1 0x40 SHL SUB DUP2 GT ISZERO PUSH2 0xEF7 JUMPI PUSH2 0xEF7 PUSH2 0xE79 JUMP JUMPDEST PUSH2 0xF0B DUP2 PUSH2 0xF05 DUP5 SLOAD PUSH2 0xE3F JUMP JUMPDEST DUP5 PUSH2 0xE8F JUMP JUMPDEST PUSH1 0x20 PUSH1 0x1F DUP3 GT PUSH1 0x1 DUP2 EQ PUSH2 0xF3F JUMPI PUSH1 0x0 DUP4 ISZERO PUSH2 0xF27 JUMPI POP DUP5 DUP3 ADD MLOAD JUMPDEST PUSH1 0x0 NOT PUSH1 0x3 DUP6 SWAP1 SHL SHR NOT AND PUSH1 0x1 DUP5 SWAP1 SHL OR DUP5 SSTORE PUSH2 0xED6 JUMP JUMPDEST PUSH1 0x0 DUP5 DUP2 MSTORE PUSH1 0x20 DUP2 KECCAK256 PUSH1 0x1F NOT DUP6 AND SWAP2 JUMPDEST DUP3 DUP2 LT ISZERO PUSH2 0xF6F JUMPI DUP8 DUP6 ADD MLOAD DUP3 SSTORE PUSH1 0x20 SWAP5 DUP6 ADD SWAP5 PUSH1 0x1 SWAP1 SWAP3 ADD SWAP2 ADD PUSH2 0xF4F JUMP JUMPDEST POP DUP5 DUP3 LT ISZERO PUSH2 0xF8D JUMPI DUP7 DUP5 ADD MLOAD PUSH1 0x0 NOT PUSH1 0x3 DUP8 SWAP1 SHL PUSH1 0xF8 AND SHR NOT AND DUP2 SSTORE JUMPDEST POP POP POP POP PUSH1 0x1 SWAP1 DUP2 SHL ADD SWAP1 SSTORE POP JUMP JUMPDEST PUSH1 0x1 PUSH1 0x1 PUSH1 0x40 SHL SUB DUP4 GT ISZERO PUSH2 0xFB3 JUMPI PUSH2 0xFB3 PUSH2 0xE79 JUMP JUMPDEST PUSH2 0xFC7 DUP4 PUSH2 0xFC1 DUP4 SLOAD PUSH2 0xE3F JUMP JUMPDEST DUP4 PUSH2 0xE8F JUMP JUMPDEST PUSH1 0x0 PUSH1 0x1F DUP5 GT PUSH1 0x1 DUP2 EQ PUSH2 0xFFB JUMPI PUSH1 0x0 DUP6 ISZERO PUSH2 0xFE3 JUMPI POP DUP4 DUP3 ADD CALLDATALOAD JUMPDEST PUSH1 0x0 NOT PUSH1 0x3 DUP8 SWAP1 SHL SHR NOT AND PUSH1 0x1 DUP7 SWAP1 SHL OR DUP4 SSTORE PUSH2 0xED6 JUMP JUMPDEST PUSH1 0x0 DUP4 DUP2 MSTORE PUSH1 0x20 SWAP1 KECCAK256 PUSH1 0x1F NOT DUP7 AND SWAP1 DUP4 JUMPDEST DUP3 DUP2 LT ISZERO PUSH2 0x102C JUMPI DUP7 DUP6 ADD CALLDATALOAD DUP3 SSTORE PUSH1 0x20 SWAP5 DUP6 ADD SWAP5 PUSH1 0x1 SWAP1 SWAP3 ADD SWAP2 ADD PUSH2 0x100C JUMP JUMPDEST POP DUP7 DUP3 LT ISZERO PUSH2 0x1049 JUMPI PUSH1 0x0 NOT PUSH1 0xF8 DUP9 PUSH1 0x3 SHL AND SHR NOT DUP5 DUP8 ADD CALLDATALOAD AND DUP2 SSTORE JUMPDEST POP POP PUSH1 0x1 DUP6 PUSH1 0x1 SHL ADD DUP4 SSTORE POP POP POP POP POP JUMP JUMPDEST PUSH1 0x60 DUP2 MSTORE DUP4 PUSH1 0x60 DUP3 ADD MSTORE DUP4 DUP6 PUSH1 0x80 DUP4 ADD CALLDATACOPY PUSH1 0x0 PUSH1 0x80 DUP6 DUP4 ADD ADD MSTORE PUSH1 0x0 PUSH1 0x80 PUSH1 0x1F NOT PUSH1 0x1F DUP8 ADD AND DUP4 ADD ADD SWAP1 POP PUSH1 0x1 PUSH1 0x1 PUSH1 0x40 SHL SUB DUP5 AND PUSH1 0x20 DUP4 ADD MSTORE DUP3 PUSH1 0x40 DUP4 ADD MSTORE SWAP6 SWAP5 POP POP POP POP POP JUMP JUMPDEST PUSH1 0x40 DUP2 ADD PUSH2 0x10B2 DUP3 DUP6 PUSH2 0xB39 JUMP JUMPDEST PUSH2 0xC63 PUSH1 0x20 DUP4 ADD DUP5 PUSH2 0xB39 JUMP INVALID LOG2 PUSH5 0x6970667358 0x22 SLT KECCAK256 0xC9 0xD7 DUP11 SWAP15 0x4B PUSH25 0x1353DDD0CBF9472F1BC8DDA1AFC0A57C32459755BB3A9F0027 SELFBALANCE PUSH5 0x736F6C6343 STOP ADDMOD SHR STOP CALLER "
        },
        "methodIdentifiers": {
          "getQuest(uint256)": "49f86f34",
          "owner()": "8da5cb5b",
          "questArcade()": "a1a6a776",
          "questExists(uint256)": "75be329b",
          "registerQuest(uint256,address,string,string,string,uint64,uint256)": "9edf5a69",
          "renounceOwnership()": "715018a6",
          "setQuestArcade(address)": "5d4330bf",
          "transferOwnership(address)": "f2fde38b",
          "updateQuestMetadata(uint256,string,uint64,uint256)": "ae82222f",
          "updateQuestState(uint256,uint8)": "b41ae247"
        }
      }
    }
  }
}