{
  "contracts/Reputation.sol": {
    "Reputation": {
      "abi": [
        {
          "inputs": [],
          "stateMutability": "nonpayable",
          "type": "constructor"
        },
        {
          "inputs": [
            {
              "internalType": "address",
              "name": "owner",
              "type": "address"
            }
          ],
          "name": "OwnableInvalidOwner",
          "type": "error"
        },
        {
          "inputs": [
            {
              "internalType": "address",
              "name": "account",
              "type": "address"
            }
          ],
          "name": "OwnableUnauthorizedAccount",
          "type": "error"
        },
        {
          "inputs": [],
          "name": "Reputation__Unauthorized",
          "type": "error"
        },
        {
          "anonymous": false,
          "inputs": [
            {
              "indexed": true,
              "internalType": "address",
              "name": "previousOwner",
              "type": "address"
            },
            {
              "indexed": true,
              "internalType": "address",
              "name": "newOwner",
              "type": "address"
            }
          ],
          "name": "OwnershipTransferred",
          "type": "event"
        },
        {
          "anonymous": false,
          "inputs": [
            {
              "indexed": true,
              "internalType": "address",
              "name": "questArcade",
              "type": "address"
            }
          ],
          "name": "QuestArcadeUpdated",
          "type": "event"
        },
        {
          "anonymous": false,
          "inputs": [
            {
              "indexed": true,
              "internalType": "address",
              "name": "reporter",
              "type": "address"
            },
            {
              "indexed": false,
              "internalType": "bool",
              "name": "isAuthorized",
              "type": "bool"
            }
          ],
          "name": "ReporterStatusUpdated",
          "type": "event"
        },
        {
          "anonymous": false,
          "inputs": [
            {
              "indexed": true,
              "internalType": "address",
              "name": "account",
              "type": "address"
            },
            {
              "indexed": false,
              "internalType": "uint256",
              "name": "xpGain",
              "type": "uint256"
            },
            {
              "indexed": false,
              "internalType": "uint256",
              "name": "reputationGain",
              "type": "uint256"
            },
            {
              "indexed": false,
              "internalType": "uint256",
              "name": "newXp",
              "type": "uint256"
            },
            {
              "indexed": false,
              "internalType": "uint256",
              "name": "newReputation",
              "type": "uint256"
            },
            {
              "indexed": false,
              "internalType": "string",
              "name": "level",
              "type": "string"
            }
          ],
          "name": "ReputationIncreased",
          "type": "event"
        },
        {
          "inputs": [
            {
              "internalType": "address",
              "name": "account",
              "type": "address"
            }
          ],
          "name": "getProfile",
          "outputs": [
            {
              "components": [
                {
                  "internalType": "uint256",
                  "name": "xp",
                  "type": "uint256"
                },
                {
                  "internalType": "uint256",
                  "name": "reputation",
                  "type": "uint256"
                }
              ],
              "internalType": "struct Reputation.Profile",
              "name": "profile",
              "type": "tuple"
            },
            {
              "internalType": "string",
              "name": "level",
              "type": "string"
            }
          ],
          "stateMutability": "view",
          "type": "function"
        },
        {
          "inputs": [
            {
              "internalType": "address",
              "name": "account",
              "type": "address"
            },
            {
              "internalType": "uint256",
              "name": "xpGain",
              "type": "uint256"
            },
            {
              "internalType": "uint256",
              "name": "reputationGain",
              "type": "uint256"
            }
          ],
          "name": "increaseReputation",
          "outputs": [
            {
              "components": [
                {
                  "internalType": "uint256",
                  "name": "xp",
                  "type": "uint256"
                },
                {
                  "internalType": "uint256",
                  "name": "reputation",
                  "type": "uint256"
                }
              ],
              "internalType": "struct Reputation.Profile",
              "name": "",
              "type": "tuple"
            }
          ],
          "stateMutability": "nonpayable",
          "type": "function"
        },
        {
          "inputs": [
            {
              "internalType": "address",
              "name": "reporter",
              "type": "address"
            }
          ],
          "name": "isReporter",
          "outputs": [
            {
              "internalType": "bool",
              "name": "",
              "type": "bool"
            }
          ],
          "stateMutability": "view",
          "type": "function"
        },
        {
          "inputs": [
            {
              "internalType": "uint256",
              "name": "xp",
              "type": "uint256"
            }
          ],
          "name": "levelForXp",
          "outputs": [
            {
              "internalType": "string",
              "name": "",
              "type": "string"
            }
          ],
          "stateMutability": "pure",
          "type": "function"
        },
        {
          "inputs": [],
          "name": "owner",
          "outputs": [
            {
              "internalType": "address",
              "name": "",
              "type": "address"
            }
          ],
          "stateMutability": "view",
          "type": "function"
        },
        {
          "inputs": [],
          "name": "questArcade",
          "outputs": [
            {
              "internalType": "address",
              "name": "",
              "type": "address"
            }
          ],
          "stateMutability": "view",
          "type": "function"
        },
        {
          "inputs": [],
          "name": "renounceOwnership",
          "outputs": [],
          "stateMutability": "nonpayable",
          "type": "function"
        },
        {
          "inputs": [
            {
              "internalType": "address",
              "name": "newQuestArcade",
              "type": "address"
            }
          ],
          "name": "setQuestArcade",
          "outputs": [],
          "stateMutability": "nonpayable",
          "type": "function"
        },
        {
          "inputs": [
            {
              "internalType": "address",
              "name": "reporter",
              "type": "address"
            },
            {
              "internalType": "bool",
              "name": "isAuthorized",
              "type": "bool"
            }
          ],
          "name": "setReporter",
          "outputs": [],
          "stateMutability": "nonpayable",
          "type": "function"
        },
        {
          "inputs": [
            {
              "internalType": "address",
              "name": "newOwner",
              "type": "address"
            }
          ],
          "name": "transferOwnership",
          "outputs": [],
          "stateMutability": "nonpayable",
          "type": "function"
        }
      ],
      "evm": {
        "bytecode": {
          "linkReferences": {},
          "object": "6080604052348015600f57600080fd5b503380603557604051631e4fbdf760e01b81526000600482015260240160405180910390fd5b603c816041565b506091565b600080546001600160a01b038381166001600160a01b0319831681178455604051919092169283917f8be0079c531659141344cd1fd0a4f28419497f9722a3daafe3b4186f6b6457e09190a35050565b6107e7806100a06000396000f3fe608060405234801561001057600080fd5b506004361061009e5760003560e01c80638da5cb5b116100665780638da5cb5b14610142578063a1a6a77614610167578063b25f94ea1461017a578063e1bb51331461019a578063f2fde38b146101ad57600080fd5b8063044ad7be146100a35780630f53a470146100e45780635d4330bf14610105578063715018a61461011a57806374041b2914610122575b600080fd5b6100cf6100b1366004610612565b6001600160a01b031660009081526002602052604090205460ff1690565b60405190151581526020015b60405180910390f35b6100f76100f2366004610612565b6101c0565b6040516100db92919061067a565b610118610113366004610612565b610218565b005b61011861026a565b6101356101303660046106a6565b61027e565b6040516100db91906106bf565b6000546001600160a01b03165b6040516001600160a01b0390911681526020016100db565b60035461014f906001600160a01b031681565b61018d6101883660046106d2565b6103a3565b6040516100db9190610705565b6101186101a836600461071e565b6104cf565b6101186101bb366004610612565b610536565b6040805180820190915260008082526020820152506001600160a01b03811660009081526001602081815260409283902083518085019094528054808552920154908301526060906102119061027e565b9050915091565b610220610579565b600380546001600160a01b0319166001600160a01b0383169081179091556040517f628b03a2737dcbc78dccf126de4e62e205a763879aba55d8a3097d4e90d0a77590600090a250565b610272610579565b61027c60006105a6565b565b606061271082106102ab5750506040805180820190915260068152654d797468696360d01b602082015290565b61138882106102d95750506040805180820190915260098152684c6567656e6461727960b81b602082015290565b6109c48210610303575050604080518082019091526005815264456c69746560d81b602082015290565b6103e8821061032c57505060408051808201909152600481526311dbdb1960e21b602082015290565b610190821061035757505060408051808201909152600681526529b4b63b32b960d11b602082015290565b6096821061038157505060408051808201909152600681526542726f6e7a6560d01b602082015290565b5050604080518082019091526006815265526f6f6b696560d01b602082015290565b60408051808201909152600080825260208201526003546001600160a01b031633148015906103e257503360009081526002602052604090205460ff16155b156104005760405163f17bde0560e01b815260040160405180910390fd5b6001600160a01b038416600090815260016020526040812080549091859183919061042c90849061075a565b9250508190555082816001016000828254610447919061075a565b9091555050805460009061045a9061027e565b9050856001600160a01b03167fcc94961aad50ffba435a576ecb734a8df660dc8623bcc5b3220e8a5788f78b07868685600001548660010154866040516104a595949392919061077b565b60405180910390a25060408051808201909152815481526001909101546020820152949350505050565b6104d7610579565b6001600160a01b038216600081815260026020908152604091829020805460ff191685151590811790915591519182527f0c1707a80b7979101ec1b90d1fd375c65d0b2c6df9e6c9479c32a480072a3016910160405180910390a25050565b61053e610579565b6001600160a01b03811661056d57604051631e4fbdf760e01b8152600060048201526024015b60405180910390fd5b610576816105a6565b50565b6000546001600160a01b0316331461027c5760405163118cdaa760e01b8152336004820152602401610564565b600080546001600160a01b038381166001600160a01b0319831681178455604051919092169283917f8be0079c531659141344cd1fd0a4f28419497f9722a3daafe3b4186f6b6457e09190a35050565b80356001600160a01b038116811461060d57600080fd5b919050565b60006020828403121561062457600080fd5b61062d826105f6565b9392505050565b6000815180845260005b8181101561065a5760208185018101518683018201520161063e565b506000602082860101526020601f19601f83011685010191505092915050565b825181526020808401519082015260606040820152600061069e6060830184610634565b949350505050565b6000602082840312156106b857600080fd5b5035919050565b60208152600061062d6020830184610634565b6000806000606084860312156106e757600080fd5b6106f0846105f6565b95602085013595506040909401359392505050565b8151815260208083015190820152604081015b92915050565b6000806040838503121561073157600080fd5b61073a836105f6565b91506020830135801515811461074f57600080fd5b809150509250929050565b8082018082111561071857634e487b7160e01b600052601160045260246000fd5b85815284602082015283604082015282606082015260a0608082015260006107a660a0830184610634565b97965050505050505056fea264697066735822122098fc0250081bc6ef336348105ea9a942a81efaa967286af3d7576ef4cc92e73264736f6c634300081c0033",
          "opcodes": "PUSH1 0x80 PUSH1 0x40 MSTORE CALLVALUE DUP1 ISZERO PUSH1 0xF JUMPI PUSH1 0x0 DUP1 REVERT JUMPDEST POP CALLER DUP1 PUSH1 0x35 JUMPI PUSH1 0x40 MLOAD PUSH4 0x1E4FBDF7 PUSH1 0xE0 SHL DUP2 MSTORE PUSH1 0x0 PUSH1 0x4 DUP3 ADD MSTORE PUSH1 0x24 ADD PUSH1 0x40 MLOAD DUP1 SWAP2 SUB SWAP1 REVERT JUMPDEST PUSH1 0x3C DUP2 PUSH1 0x41 JUMP JUMPDEST POP PUSH1 0x91 JUMP JUMPDEST PUSH1 0x0 DUP1 SLOAD PUSH1 0x1 PUSH1 0x1 PUSH1 0xA0 SHL SUB DUP4 DUP2 AND PUSH1 0x1 PUSH1 0x1 PUSH1 0xA0 SHL SUB NOT DUP4 AND DUP2 OR DUP5 SSTORE PUSH1 0x40 MLOAD SWAP2 SWAP1 SWAP3 AND SWAP3 DUP4 SWAP2 PUSH32 0x8BE0079C531659141344CD1FD0A4F28419497F9722A3DAAFE3B4186F6B6457E0 SWAP2 SWAP1 LOG3 POP POP JUMP JUMPDEST PUSH2 0x7E7 DUP1 PUSH2 0xA0 PUSH1 0x0 CODECOPY PUSH1 0x0 RETURN INVALID PUSH1 0x80 PUSH1 0x40 MSTORE CALLVALUE DUP1 ISZERO PUSH2 0x10 JUMPI PUSH1 0x0 DUP1 REVERT JUMPDEST POP PUSH1 0x4 CALLDATASIZE LT PUSH2 0x9E JUMPI PUSH1 0x0 CALLDATALOAD PUSH1 0xE0 SHR DUP1 PUSH4 0x8DA5CB5B GT PUSH2 0x66 JUMPI DUP1 PUSH4 0x8DA5CB5B EQ PUSH2 0x142 JUMPI DUP1 PUSH4 0xA1A6A776 EQ PUSH2 0x167 JUMPI DUP1 PUSH4 0xB25F94EA EQ PUSH2 0x17A JUMPI DUP1 PUSH4 0xE1BB5133 EQ PUSH2 0x19A JUMPI DUP1 PUSH4 0xF2FDE38B EQ PUSH2 0x1AD JUMPI PUSH1 0x0 DUP1 REVERT JUMPDEST DUP1 PUSH4 0x44AD7BE EQ PUSH2 0xA3 JUMPI DUP1 PUSH4 0xF53A470 EQ PUSH2 0xE4 JUMPI DUP1 PUSH4 0x5D4330BF EQ PUSH2 0x105 JUMPI DUP1 PUSH4 0x715018A6 EQ PUSH2 0x11A JUMPI DUP1 PUSH4 0x74041B29 EQ PUSH2 0x122 JUMPI JUMPDEST PUSH1 0x0 DUP1 REVERT JUMPDEST PUSH2 0xCF PUSH2 0xB1 CALLDATASIZE PUSH1 0x4 PUSH2 0x612 JUMP JUMPDEST PUSH1 0x1 PUSH1 0x1 PUSH1 0xA0 SHL SUB AND PUSH1 0x0 SWAP1 DUP2 MSTORE PUSH1 0x2 PUSH1 0x20 MSTORE PUSH1 0x40 SWAP1 KECCAK256 SLOAD PUSH1 0xFF AND SWAP1 JUMP JUMPDEST PUSH1 0x40 MLOAD SWAP1 ISZERO ISZERO DUP2 MSTORE PUSH1 0x20 ADD JUMPDEST PUSH1 0x40 MLOAD DUP1 SWAP2 SUB SWAP1 RETURN JUMPDEST PUSH2 0xF7 PUSH2 0xF2 CALLDATASIZE PUSH1 0x4 PUSH2 0x612 JUMP JUMPDEST PUSH2 0x1C0 JUMP JUMPDEST PUSH1 0x40 MLOAD PUSH2 0xDB SWAP3 SWAP2 SWAP1 PUSH2 0x67A JUMP JUMPDEST PUSH2 0x118 PUSH2 0x113 CALLDATASIZE PUSH1 0x4 PUSH2 0x612 JUMP JUMPDEST PUSH2 0x218 JUMP JUMPDEST STOP JUMPDEST PUSH2 0x118 PUSH2 0x26A JUMP JUMPDEST PUSH2 0x135 PUSH2 0x130 CALLDATASIZE PUSH1 0x4 PUSH2 0x6A6 JUMP JUMPDEST PUSH2 0x27E JUMP JUMPDEST PUSH1 0x40 MLOAD PUSH2 0xDB SWAP2 SWAP1 PUSH2 0x6BF JUMP JUMPDEST PUSH1 0x0 SLOAD PUSH1 0x1 PUSH1 0x1 PUSH1 0xA0 SHL SUB AND JUMPDEST PUSH1 0x40 MLOAD PUSH1 0x1 PUSH1 0x1 PUSH1 0xA0 SHL SUB SWAP1 SWAP2 AND DUP2 MSTORE PUSH1 0x20 ADD PUSH2 0xDB JUMP JUMPDEST PUSH1 0x3 SLOAD PUSH2 0x14F SWAP1 PUSH1 0x1 PUSH1 0x1 PUSH1 0xA0 SHL SUB AND DUP2 JUMP JUMPDEST PUSH2 0x18D PUSH2 0x188 CALLDATASIZE PUSH1 0x4 PUSH2 0x6D2 JUMP JUMPDEST PUSH2 0x3A3 JUMP JUMPDEST PUSH1 0x40 MLOAD PUSH2 0xDB SWAP2 SWAP1 PUSH2 0x705 JUMP JUMPDEST PUSH2 0x118 PUSH2 0x1A8 CALLDATASIZE PUSH1 0x4 PUSH2 0x71E JUMP JUMPDEST PUSH2 0x4CF JUMP JUMPDEST PUSH2 0x118 PUSH2 0x1BB CALLDATASIZE PUSH1 0x4 PUSH2 0x612 JUMP JUMPDEST PUSH2 0x536 JUMP JUMPDEST PUSH1 0x40 DUP1 MLOAD DUP1 DUP3 ADD SWAP1 SWAP2 MSTORE PUSH1 0x0 DUP1 DUP3 MSTORE PUSH1 0x20 DUP3 ADD MSTORE POP PUSH1 0x1 PUSH1 0x1 PUSH1 0xA0 SHL SUB DUP2 AND PUSH1 0x0 SWAP1 DUP2 MSTORE PUSH1 0x1 PUSH1 0x20 DUP2 DUP2 MSTORE PUSH1 0x40 SWAP3 DUP4 SWAP1 KECCAK256 DUP4 MLOAD DUP1 DUP6 ADD SWAP1 SWAP5 MSTORE DUP1 SLOAD DUP1 DUP6 MSTORE SWAP3 ADD SLOAD SWAP1 DUP4 ADD MSTORE PUSH1 0x60 SWAP1 PUSH2 0x211 SWAP1 PUSH2 0x27E JUMP JUMPDEST SWAP1 POP SWAP2 POP SWAP2 JUMP JUMPDEST PUSH2 0x220 PUSH2 0x579 JUMP JUMPDEST PUSH1 0x3 DUP1 SLOAD PUSH1 0x1 PUSH1 0x1 PUSH1 0xA0 SHL SUB NOT AND PUSH1 0x1 PUSH1 0x1 PUSH1 0xA0 SHL SUB DUP4 AND SWAP1 DUP2 OR SWAP1 SWAP2 SSTORE PUSH1 0x40 MLOAD PUSH32 0x628B03A2737DCBC78DCCF126DE4E62E205A763879ABA55D8A3097D4E90D0A775 SWAP1 PUSH1 0x0 SWAP1 LOG2 POP JUMP JUMPDEST PUSH2 0x272 PUSH2 0x579 JUMP JUMPDEST PUSH2 0x27C PUSH1 0x0 PUSH2 0x5A6 JUMP JUMPDEST JUMP JUMPDEST PUSH1 0x60 PUSH2 0x2710 DUP3 LT PUSH2 0x2AB JUMPI POP POP PUSH1 0x40 DUP1 MLOAD DUP1 DUP3 ADD SWAP1 SWAP2 MSTORE PUSH1 0x6 DUP2 MSTORE PUSH6 0x4D7974686963 PUSH1 0xD0 SHL PUSH1 0x20 DUP3 ADD MSTORE SWAP1 JUMP JUMPDEST PUSH2 0x1388 DUP3 LT PUSH2 0x2D9 JUMPI POP POP PUSH1 0x40 DUP1 MLOAD DUP1 DUP3 ADD SWAP1 SWAP2 MSTORE PUSH1 0x9 DUP2 MSTORE PUSH9 0x4C6567656E64617279 PUSH1 0xB8 SHL PUSH1 0x20 DUP3 ADD MSTORE SWAP1 JUMP JUMPDEST PUSH2 0x9C4 DUP3 LT PUSH2 0x303 JUMPI POP POP PUSH1 0x40 DUP1 MLOAD DUP1 DUP3 ADD SWAP1 SWAP2 MSTORE PUSH1 0x5 DUP2 MSTORE PUSH5 0x456C697465 PUSH1 0xD8 SHL PUSH1 0x20 DUP3 ADD MSTORE SWAP1 JUMP JUMPDEST PUSH2 0x3E8 DUP3 LT PUSH2 0x32C JUMPI POP POP PUSH1 0x40 DUP1 MLOAD DUP1 DUP3 ADD SWAP1 SWAP2 MSTORE PUSH1 0x4 DUP2 MSTORE PUSH4 0x11DBDB19 PUSH1 0xE2 SHL PUSH1 0x20 DUP3 ADD MSTORE SWAP1 JUMP JUMPDEST PUSH2 0x190 DUP3 LT PUSH2 0x357 JUMPI POP POP PUSH1 0x40 DUP1 MLOAD DUP1 DUP3 ADD SWAP1 SWAP2 MSTORE PUSH1 0x6 DUP2 MSTORE PUSH6 0x29B4B63B32B9 PUSH1 0xD1 SHL PUSH1 0x20 DUP3 ADD MSTORE SWAP1 JUMP JUMPDEST PUSH1 0x96 DUP3 LT PUSH2 0x381 JUMPI POP POP PUSH1 0x40 DUP1 MLOAD DUP1 DUP3 ADD SWAP1 SWAP2 MSTORE PUSH1 0x6 DUP2 MSTORE PUSH6 0x42726F6E7A65 PUSH1 0xD0 SHL PUSH1 0x20 DUP3 ADD MSTORE SWAP1 JUMP JUMPDEST POP POP PUSH1 0x40 DUP1 MLOAD DUP1 DUP3 ADD SWAP1 SWAP2 MSTORE PUSH1 0x6 DUP2 MSTORE PUSH6 0x526F6F6B6965 PUSH1 0xD0 SHL PUSH1 0x20 DUP3 ADD MSTORE SWAP1 JUMP JUMPDEST PUSH1 0x40 DUP1 MLOAD DUP1 DUP3 ADD SWAP1 SWAP2 MSTORE PUSH1 0x0 DUP1 DUP3 MSTORE PUSH1 0x20 DUP3 ADD MSTORE PUSH1 0x3 SLOAD PUSH1 0x1 PUSH1 0x1 PUSH1 0xA0 SHL SUB AND CALLER EQ DUP1 ISZERO SWAP1 PUSH2 0x3E2 JUMPI POP CALLER PUSH1 0x0 SWAP1 DUP2 MSTORE PUSH1 0x2 PUSH1 0x20 MSTORE PUSH1 0x40 SWAP1 KECCAK256 SLOAD PUSH1 0xFF AND ISZERO JUMPDEST ISZERO PUSH2 0x400 JUMPI PUSH1 0x40 MLOAD PUSH4 0xF17BDE05 PUSH1 0xE0 SHL DUP2 MSTORE PUSH1 0x4 ADD PUSH1 0x40 MLOAD DUP1 SWAP2 SUB SWAP1 REVERT JUMPDEST PUSH1 0x1 PUSH1 0x1 PUSH1 0xA0 SHL SUB DUP5 AND PUSH1 0x0 SWAP1 DUP2 MSTORE PUSH1 0x1 PUSH1 0x20 MSTORE PUSH1 0x40 DUP2 KECCAK256 DUP1 SLOAD SWAP1 SWAP2 DUP6 SWAP2 DUP4 SWAP2 SWAP1 PUSH2 0x42C SWAP1 DUP5 SWAP1 PUSH2 0x75A JUMP JUMPDEST SWAP3 POP POP DUP2 SWAP1 SSTORE POP DUP3 DUP2 PUSH1 0x1 ADD PUSH1 0x0 DUP3 DUP3 SLOAD PUSH2 0x447 SWAP2 SWAP1 PUSH2 0x75A JUMP JUMPDEST SWAP1 SWAP2 SSTORE POP POP DUP1 SLOAD PUSH1 0x0 SWAP1 PUSH2 0x45A SWAP1 PUSH2 0x27E JUMP JUMPDEST SWAP1 POP DUP6 PUSH1 0x1 PUSH1 0x1 PUSH1 0xA0 SHL SUB AND PUSH32 0xCC94961AAD50FFBA435A576ECB734A8DF660DC8623BCC5B3220E8A5788F78B07 DUP7 DUP7 DUP6 PUSH1 0x0 ADD SLOAD DUP7 PUSH1 0x1 ADD SLOAD DUP7 PUSH1 0x40 MLOAD PUSH2 0x4A5 SWAP6 SWAP5 SWAP4 SWAP3 SWAP2 SWAP1 PUSH2 0x77B JUMP JUMPDEST PUSH1 0x40 MLOAD DUP1 SWAP2 SUB SWAP1 LOG2 POP PUSH1 0x40 DUP1 MLOAD DUP1 DUP3 ADD SWAP1 SWAP2 MSTORE DUP2 SLOAD DUP2 MSTORE PUSH1 0x1 SWAP1 SWAP2 ADD SLOAD PUSH1 0x20 DUP3 ADD MSTORE SWAP5 SWAP4 POP POP POP POP JUMP JUMPDEST PUSH2 0x4D7 PUSH2 0x579 JUMP JUMPDEST PUSH1 0x1 PUSH1 0x1 PUSH1 0xA0 SHL SUB DUP3 AND PUSH1 0x0 DUP2 DUP2 MSTORE PUSH1 0x2 PUSH1 0x20 SWAP1 DUP2 MSTORE PUSH1 0x40 SWAP2 DUP3 SWAP1 KECCAK256 DUP1 SLOAD PUSH1 0xFF NOT AND DUP6 ISZERO ISZERO SWAP1 DUP2 OR SWAP1 SWAP2 SSTORE SWAP2 MLOAD SWAP2 DUP3 MSTORE PUSH32 0xC1707A80B7979101EC1B90D1FD375C65D0B2C6DF9E6C9479C32A480072A3016 SWAP2 ADD PUSH1 0x40 MLOAD DUP1 SWAP2 SUB SWAP1 LOG2 POP POP JUMP JUMPDEST PUSH2 0x53E PUSH2 0x579 JUMP JUMPDEST PUSH1 0x1 PUSH1 0x1 PUSH1 0xA0 SHL SUB DUP2 AND PUSH2 0x56D JUMPI PUSH1 0x40 MLOAD PUSH4 0x1E4FBDF7 PUSH1 0xE0 SHL DUP2 MSTORE PUSH1 0x0 PUSH1 0x4 DUP3 ADD MSTORE PUSH1 0x24 ADD JUMPDEST PUSH1 0x40 MLOAD DUP1 SWAP2 SUB SWAP1 REVERT JUMPDEST PUSH2 0x576 DUP2 PUSH2 0x5A6 JUMP JUMPDEST POP JUMP JUMPDEST PUSH1 0x0 SLOAD PUSH1 0x1 PUSH1 0x1 PUSH1 0xA0 SHL SUB AND CALLER EQ PUSH2 0x27C JUMPI PUSH1 0x40 MLOAD PUSH4 0x118CDAA7 PUSH1 0xE0 SHL DUP2 MSTORE CALLER PUSH1 0x4 DUP3 ADD MSTORE PUSH1 0x24 ADD PUSH2 0x564 JUMP JUMPDEST PUSH1 0x0 DUP1 SLOAD PUSH1 0x1 PUSH1 0x1 PUSH1 0xA0 SHL SUB DUP4 DUP2 AND PUSH1 0x1 PUSH1 0x1 PUSH1 0xA0 SHL SUB NOT DUP4 AND DUP2 OR DUP5 SSTORE PUSH1 0x40 MLOAD SWAP2 SWAP1 SWAP3 AND SWAP3 DUP4 SWAP2 PUSH32 0x8BE0079C531659141344CD1FD0A4F28419497F9722A3DAAFE3B4186F6B6457E0 SWAP2 SWAP1 LOG3 POP POP JUMP JUMPDEST DUP1 CALLDATALOAD PUSH1 0x1 PUSH1 0x1 PUSH1 0xA0 SHL SUB DUP2 AND DUP2 EQ PUSH2 0x60D JUMPI PUSH1 0x0 DUP1 REVERT JUMPDEST SWAP2 SWAP1 POP JUMP JUMPDEST PUSH1 0x0 PUSH1 0x20 DUP3 DUP5 SUB SLT ISZERO PUSH2 0x624 JUMPI PUSH1 0x0 DUP1 REVERT JUMPDEST PUSH2 0x62D DUP3 PUSH2 0x5F6 JUMP JUMPDEST SWAP4 SWAP3 POP POP POP JUMP JUMPDEST PUSH1 0x0 DUP2 MLOAD DUP1 DUP5 MSTORE PUSH1 0x0 JUMPDEST DUP2 DUP2 LT ISZERO PUSH2 0x65A JUMPI PUSH1 0x20 DUP2 DUP6 ADD DUP2 ADD MLOAD DUP7 DUP4 ADD DUP3 ADD MSTORE ADD PUSH2 0x63E JUMP JUMPDEST POP PUSH1 0x0 PUSH1 0x20 DUP3 DUP7 ADD ADD MSTORE PUSH1 0x20 PUSH1 0x1F NOT PUSH1 0x1F DUP4 ADD AND DUP6 ADD ADD SWAP2 POP POP SWAP3 SWAP2 POP POP JUMP JUMPDEST DUP3 MLOAD DUP2 MSTORE PUSH1 0x20 DUP1 DUP5 ADD MLOAD SWAP1 DUP3 ADD MSTORE PUSH1 0x60 PUSH1 0x40 DUP3 ADD MSTORE PUSH1 0x0 PUSH2 0x69E PUSH1 0x60 DUP4 ADD DUP5 PUSH2 0x634 JUMP JUMPDEST SWAP5 SWAP4 POP POP POP POP JUMP JUMPDEST PUSH1 0x0 PUSH1 0x20 DUP3 DUP5 SUB SLT ISZERO PUSH2 0x6B8 JUMPI PUSH1 0x0 DUP1 REVERT JUMPDEST POP CALLDATALOAD SWAP2 SWAP1 POP JUMP JUMPDEST PUSH1 0x20 DUP2 MSTORE PUSH1 0x0 PUSH2 0x62D PUSH1 0x20 DUP4 ADD DUP5 PUSH2 0x634 JUMP JUMPDEST PUSH1 0x0 DUP1 PUSH1 0x0 PUSH1 0x60 DUP5 DUP7 SUB SLT ISZERO PUSH2 0x6E7 JUMPI PUSH1 0x0 DUP1 REVERT JUMPDEST PUSH2 0x6F0 DUP5 PUSH2 0x5F6 JUMP JUMPDEST SWAP6 PUSH1 0x20 DUP6 ADD CALLDATALOAD SWAP6 POP PUSH1 0x40 SWAP1 SWAP5 ADD CALLDATALOAD SWAP4 SWAP3 POP POP POP JUMP JUMPDEST DUP2 MLOAD DUP2 MSTORE PUSH1 0x20 DUP1 DUP4 ADD MLOAD SWAP1 DUP3 ADD MSTORE PUSH1 0x40 DUP2 ADD JUMPDEST SWAP3 SWAP2 POP POP JUMP JUMPDEST PUSH1 0x0 DUP1 PUSH1 0x40 DUP4 DUP6 SUB SLT ISZERO PUSH2 0x731 JUMPI PUSH1 0x0 DUP1 REVERT JUMPDEST PUSH2 0x73A DUP4 PUSH2 0x5F6 JUMP JUMPDEST SWAP2 POP PUSH1 0x20 DUP4 ADD CALLDATALOAD DUP1 ISZERO ISZERO DUP2 EQ PUSH2 0x74F JUMPI PUSH1 0x0 DUP1 REVERT JUMPDEST DUP1 SWAP2 POP POP SWAP3 POP SWAP3 SWAP1 POP JUMP JUMPDEST DUP1 DUP3 ADD DUP1 DUP3 GT ISZERO PUSH2 0x718 JUMPI PUSH4 0x4E487B71 PUSH1 0xE0 SHL PUSH1 0x0 MSTORE PUSH1 0x11 PUSH1 0x4 MSTORE PUSH1 0x24 PUSH1 0x0 REVERT JUMPDEST DUP6 DUP2 MSTORE DUP5 PUSH1 0x20 DUP3 ADD MSTORE DUP4 PUSH1 0x40 DUP3 ADD MSTORE DUP3 PUSH1 0x60 DUP3 ADD MSTORE PUSH1 0xA0 PUSH1 0x80 DUP3 ADD MSTORE PUSH1 0x0 PUSH2 0x7A6 PUSH1 0xA0 DUP4 ADD DUP5 PUSH2 0x634 JUMP JUMPDEST SWAP8 SWAP7 POP POP POP POP POP POP POP JUMP INVALID LOG2 PUSH5 0x6970667358 0x22 SLT KECCAK256 SWAP9 0xFC MUL POP ADDMOD SHL 0xC6 0xEF CALLER PUSH4 0x48105EA9 0xA9 TIMESTAMP 0xA8 0x1E STATICCALL 0xA9 PUSH8 0x286AF3D7576EF4CC SWAP3 0xE7 ORIGIN PUSH5 0x736F6C6343 STOP ADDMOD SHR STOP CALLER "
        },
        "methodIdentifiers": {
          "getProfile(address)": "0f53a470",
          "increaseReputation(address,uint256,uint256)": "b25f94ea",
          "isReporter(address)": "044ad7be",
          "levelForXp(uint256)": "74041b29",
          "owner()": "8da5cb5b",
          "questArcade()": "a1a6a776",
          "renounceOwnership()": "715018a6",
          "setQuestArcade(address)": "5d4330bf",
          "setReporter(address,bool)": "e1bb5133",
          "transferOwnership(address)": "f2fde38b"
        }
      }
    }
  }
}